{
	"project.sol": {
		"StakingContract": {
			"abi": [
				{
					"inputs": [
						{
							"internalType": "contract IERC20",
							"name": "_stakingToken",
							"type": "address"
						}
					],
					"stateMutability": "nonpayable",
					"type": "constructor"
				},
				{
					"inputs": [
						{
							"internalType": "address",
							"name": "",
							"type": "address"
						}
					],
					"name": "balances",
					"outputs": [
						{
							"internalType": "uint256",
							"name": "",
							"type": "uint256"
						}
					],
					"stateMutability": "view",
					"type": "function"
				},
				{
					"inputs": [],
					"name": "claimRewards",
					"outputs": [],
					"stateMutability": "nonpayable",
					"type": "function"
				},
				{
					"inputs": [
						{
							"internalType": "uint256",
							"name": "amount",
							"type": "uint256"
						}
					],
					"name": "deposit",
					"outputs": [],
					"stateMutability": "nonpayable",
					"type": "function"
				},
				{
					"inputs": [
						{
							"internalType": "address",
							"name": "",
							"type": "address"
						}
					],
					"name": "lastStakedTime",
					"outputs": [
						{
							"internalType": "uint256",
							"name": "",
							"type": "uint256"
						}
					],
					"stateMutability": "view",
					"type": "function"
				},
				{
					"inputs": [
						{
							"internalType": "address",
							"name": "user",
							"type": "address"
						}
					],
					"name": "pendingRewards",
					"outputs": [
						{
							"internalType": "uint256",
							"name": "",
							"type": "uint256"
						}
					],
					"stateMutability": "view",
					"type": "function"
				},
				{
					"inputs": [
						{
							"internalType": "address",
							"name": "",
							"type": "address"
						}
					],
					"name": "rewardDebt",
					"outputs": [
						{
							"internalType": "uint256",
							"name": "",
							"type": "uint256"
						}
					],
					"stateMutability": "view",
					"type": "function"
				},
				{
					"inputs": [],
					"name": "rewardRatePerSecond",
					"outputs": [
						{
							"internalType": "uint256",
							"name": "",
							"type": "uint256"
						}
					],
					"stateMutability": "view",
					"type": "function"
				},
				{
					"inputs": [],
					"name": "stakingToken",
					"outputs": [
						{
							"internalType": "contract IERC20",
							"name": "",
							"type": "address"
						}
					],
					"stateMutability": "view",
					"type": "function"
				},
				{
					"inputs": [
						{
							"internalType": "uint256",
							"name": "amount",
							"type": "uint256"
						}
					],
					"name": "withdraw",
					"outputs": [],
					"stateMutability": "nonpayable",
					"type": "function"
				}
			],
			"devdoc": {
				"kind": "dev",
				"methods": {
					"deposit(uint256)": {
						"params": {
							"amount": "The amount of tokens to stake"
						}
					},
					"pendingRewards(address)": {
						"params": {
							"user": "The user's address"
						},
						"returns": {
							"_0": "Pending rewards"
						}
					},
					"withdraw(uint256)": {
						"params": {
							"amount": "The amount of tokens to withdraw"
						}
					}
				},
				"version": 1
			},
			"evm": {
				"assembly": "    /* \"project.sol\":60:3305  contract StakingContract {... */\n  mstore(0x40, 0x80)\n    /* \"project.sol\":162:166  1e18 */\n  0x0de0b6b3a7640000\n    /* \"project.sol\":125:166  uint256 public rewardRatePerSecond = 1e18 */\n  0x01\n  sstore\n    /* \"project.sol\":488:569  constructor(IERC20 _stakingToken) {... */\n  callvalue\n  dup1\n  iszero\n  tag_1\n  jumpi\n  0x00\n  dup1\n  revert\ntag_1:\n  pop\n  mload(0x40)\n  sub(codesize, bytecodeSize)\n  dup1\n  bytecodeSize\n  dup4\n  codecopy\n  dup2\n  dup2\n  add\n  0x40\n  mstore\n  dup2\n  add\n  swap1\n  tag_2\n  swap2\n  swap1\n  tag_3\n  jump\t// in\ntag_2:\n    /* \"project.sol\":548:561  _stakingToken */\n  dup1\n    /* \"project.sol\":533:545  stakingToken */\n  0x00\n  dup1\n    /* \"project.sol\":533:561  stakingToken = _stakingToken */\n  0x0100\n  exp\n  dup2\n  sload\n  dup2\n  0xffffffffffffffffffffffffffffffffffffffff\n  mul\n  not\n  and\n  swap1\n  dup4\n  0xffffffffffffffffffffffffffffffffffffffff\n  and\n  mul\n  or\n  swap1\n  sstore\n  pop\n    /* \"project.sol\":488:569  constructor(IERC20 _stakingToken) {... */\n  pop\n    /* \"project.sol\":60:3305  contract StakingContract {... */\n  jump(tag_6)\n    /* \"#utility.yul\":88:205   */\ntag_8:\n    /* \"#utility.yul\":197:198   */\n  0x00\n    /* \"#utility.yul\":194:195   */\n  dup1\n    /* \"#utility.yul\":187:199   */\n  revert\n    /* \"#utility.yul\":334:460   */\ntag_10:\n    /* \"#utility.yul\":371:378   */\n  0x00\n    /* \"#utility.yul\":411:453   */\n  0xffffffffffffffffffffffffffffffffffffffff\n    /* \"#utility.yul\":404:409   */\n  dup3\n    /* \"#utility.yul\":400:454   */\n  and\n    /* \"#utility.yul\":389:454   */\n  swap1\n  pop\n    /* \"#utility.yul\":334:460   */\n  swap2\n  swap1\n  pop\n  jump\t// out\n    /* \"#utility.yul\":466:562   */\ntag_11:\n    /* \"#utility.yul\":503:510   */\n  0x00\n    /* \"#utility.yul\":532:556   */\n  tag_21\n    /* \"#utility.yul\":550:555   */\n  dup3\n    /* \"#utility.yul\":532:556   */\n  tag_10\n  jump\t// in\ntag_21:\n    /* \"#utility.yul\":521:556   */\n  swap1\n  pop\n    /* \"#utility.yul\":466:562   */\n  swap2\n  swap1\n  pop\n  jump\t// out\n    /* \"#utility.yul\":568:678   */\ntag_12:\n    /* \"#utility.yul\":619:626   */\n  0x00\n    /* \"#utility.yul\":648:672   */\n  tag_23\n    /* \"#utility.yul\":666:671   */\n  dup3\n    /* \"#utility.yul\":648:672   */\n  tag_11\n  jump\t// in\ntag_23:\n    /* \"#utility.yul\":637:672   */\n  swap1\n  pop\n    /* \"#utility.yul\":568:678   */\n  swap2\n  swap1\n  pop\n  jump\t// out\n    /* \"#utility.yul\":684:834   */\ntag_13:\n    /* \"#utility.yul\":771:809   */\n  tag_25\n    /* \"#utility.yul\":803:808   */\n  dup2\n    /* \"#utility.yul\":771:809   */\n  tag_12\n  jump\t// in\ntag_25:\n    /* \"#utility.yul\":764:769   */\n  dup2\n    /* \"#utility.yul\":761:810   */\n  eq\n    /* \"#utility.yul\":751:828   */\n  tag_26\n  jumpi\n    /* \"#utility.yul\":824:825   */\n  0x00\n    /* \"#utility.yul\":821:822   */\n  dup1\n    /* \"#utility.yul\":814:826   */\n  revert\n    /* \"#utility.yul\":751:828   */\ntag_26:\n    /* \"#utility.yul\":684:834   */\n  pop\n  jump\t// out\n    /* \"#utility.yul\":840:1011   */\ntag_14:\n    /* \"#utility.yul\":911:916   */\n  0x00\n    /* \"#utility.yul\":942:948   */\n  dup2\n    /* \"#utility.yul\":936:949   */\n  mload\n    /* \"#utility.yul\":927:949   */\n  swap1\n  pop\n    /* \"#utility.yul\":958:1005   */\n  tag_28\n    /* \"#utility.yul\":999:1004   */\n  dup2\n    /* \"#utility.yul\":958:1005   */\n  tag_13\n  jump\t// in\ntag_28:\n    /* \"#utility.yul\":840:1011   */\n  swap3\n  swap2\n  pop\n  pop\n  jump\t// out\n    /* \"#utility.yul\":1017:1396   */\ntag_3:\n    /* \"#utility.yul\":1101:1107   */\n  0x00\n    /* \"#utility.yul\":1150:1152   */\n  0x20\n    /* \"#utility.yul\":1138:1147   */\n  dup3\n    /* \"#utility.yul\":1129:1136   */\n  dup5\n    /* \"#utility.yul\":1125:1148   */\n  sub\n    /* \"#utility.yul\":1121:1153   */\n  slt\n    /* \"#utility.yul\":1118:1237   */\n  iszero\n  tag_30\n  jumpi\n    /* \"#utility.yul\":1156:1235   */\n  tag_31\n  tag_8\n  jump\t// in\ntag_31:\n    /* \"#utility.yul\":1118:1237   */\ntag_30:\n    /* \"#utility.yul\":1276:1277   */\n  0x00\n    /* \"#utility.yul\":1301:1379   */\n  tag_32\n    /* \"#utility.yul\":1371:1378   */\n  dup5\n    /* \"#utility.yul\":1362:1368   */\n  dup3\n    /* \"#utility.yul\":1351:1360   */\n  dup6\n    /* \"#utility.yul\":1347:1369   */\n  add\n    /* \"#utility.yul\":1301:1379   */\n  tag_14\n  jump\t// in\ntag_32:\n    /* \"#utility.yul\":1291:1379   */\n  swap2\n  pop\n    /* \"#utility.yul\":1247:1389   */\n  pop\n    /* \"#utility.yul\":1017:1396   */\n  swap3\n  swap2\n  pop\n  pop\n  jump\t// out\n    /* \"project.sol\":60:3305  contract StakingContract {... */\ntag_6:\n  dataSize(sub_0)\n  dup1\n  dataOffset(sub_0)\n  0x00\n  codecopy\n  0x00\n  return\nstop\n\nsub_0: assembly {\n        /* \"project.sol\":60:3305  contract StakingContract {... */\n      mstore(0x40, 0x80)\n      callvalue\n      dup1\n      iszero\n      tag_1\n      jumpi\n      0x00\n      dup1\n      revert\n    tag_1:\n      pop\n      jumpi(tag_2, lt(calldatasize, 0x04))\n      shr(0xe0, calldataload(0x00))\n      dup1\n      0x5873eb9b\n      gt\n      tag_12\n      jumpi\n      dup1\n      0x5873eb9b\n      eq\n      tag_7\n      jumpi\n      dup1\n      0x5d773b2c\n      eq\n      tag_8\n      jumpi\n      dup1\n      0x72f702f3\n      eq\n      tag_9\n      jumpi\n      dup1\n      0xb6b55f25\n      eq\n      tag_10\n      jumpi\n      dup1\n      0xc57a202c\n      eq\n      tag_11\n      jumpi\n      jump(tag_2)\n    tag_12:\n      dup1\n      0x27e235e3\n      eq\n      tag_3\n      jumpi\n      dup1\n      0x2e1a7d4d\n      eq\n      tag_4\n      jumpi\n      dup1\n      0x31d7a262\n      eq\n      tag_5\n      jumpi\n      dup1\n      0x372500ab\n      eq\n      tag_6\n      jumpi\n    tag_2:\n      0x00\n      dup1\n      revert\n        /* \"project.sol\":221:264  mapping(address => uint256) public balances */\n    tag_3:\n      tag_13\n      0x04\n      dup1\n      calldatasize\n      sub\n      dup2\n      add\n      swap1\n      tag_14\n      swap2\n      swap1\n      tag_15\n      jump\t// in\n    tag_14:\n      tag_16\n      jump\t// in\n    tag_13:\n      mload(0x40)\n      tag_17\n      swap2\n      swap1\n      tag_18\n      jump\t// in\n    tag_17:\n      mload(0x40)\n      dup1\n      swap2\n      sub\n      swap1\n      return\n        /* \"project.sol\":1301:1785  function withdraw(uint256 amount) external {... */\n    tag_4:\n      tag_19\n      0x04\n      dup1\n      calldatasize\n      sub\n      dup2\n      add\n      swap1\n      tag_20\n      swap2\n      swap1\n      tag_21\n      jump\t// in\n    tag_20:\n      tag_22\n      jump\t// in\n    tag_19:\n      stop\n        /* \"project.sol\":3023:3302  function pendingRewards(address user) external view returns (uint256) {... */\n    tag_5:\n      tag_23\n      0x04\n      dup1\n      calldatasize\n      sub\n      dup2\n      add\n      swap1\n      tag_24\n      swap2\n      swap1\n      tag_15\n      jump\t// in\n    tag_24:\n      tag_25\n      jump\t// in\n    tag_23:\n      mload(0x40)\n      tag_26\n      swap2\n      swap1\n      tag_18\n      jump\t// in\n    tag_26:\n      mload(0x40)\n      dup1\n      swap2\n      sub\n      swap1\n      return\n        /* \"project.sol\":1863:2306  function claimRewards() external {... */\n    tag_6:\n      tag_27\n      tag_28\n      jump\t// in\n    tag_27:\n      stop\n        /* \"project.sol\":294:339  mapping(address => uint256) public rewardDebt */\n    tag_7:\n      tag_29\n      0x04\n      dup1\n      calldatasize\n      sub\n      dup2\n      add\n      swap1\n      tag_30\n      swap2\n      swap1\n      tag_15\n      jump\t// in\n    tag_30:\n      tag_31\n      jump\t// in\n    tag_29:\n      mload(0x40)\n      tag_32\n      swap2\n      swap1\n      tag_18\n      jump\t// in\n    tag_32:\n      mload(0x40)\n      dup1\n      swap2\n      sub\n      swap1\n      return\n        /* \"project.sol\":125:166  uint256 public rewardRatePerSecond = 1e18 */\n    tag_8:\n      tag_33\n      tag_34\n      jump\t// in\n    tag_33:\n      mload(0x40)\n      tag_35\n      swap2\n      swap1\n      tag_18\n      jump\t// in\n    tag_35:\n      mload(0x40)\n      dup1\n      swap2\n      sub\n      swap1\n      return\n        /* \"project.sol\":92:118  IERC20 public stakingToken */\n    tag_9:\n      tag_36\n      tag_37\n      jump\t// in\n    tag_36:\n      mload(0x40)\n      tag_38\n      swap2\n      swap1\n      tag_39\n      jump\t// in\n    tag_38:\n      mload(0x40)\n      dup1\n      swap2\n      sub\n      swap1\n      return\n        /* \"project.sol\":674:1179  function deposit(uint256 amount) external {... */\n    tag_10:\n      tag_40\n      0x04\n      dup1\n      calldatasize\n      sub\n      dup2\n      add\n      swap1\n      tag_41\n      swap2\n      swap1\n      tag_21\n      jump\t// in\n    tag_41:\n      tag_42\n      jump\t// in\n    tag_40:\n      stop\n        /* \"project.sol\":383:432  mapping(address => uint256) public lastStakedTime */\n    tag_11:\n      tag_43\n      0x04\n      dup1\n      calldatasize\n      sub\n      dup2\n      add\n      swap1\n      tag_44\n      swap2\n      swap1\n      tag_15\n      jump\t// in\n    tag_44:\n      tag_45\n      jump\t// in\n    tag_43:\n      mload(0x40)\n      tag_46\n      swap2\n      swap1\n      tag_18\n      jump\t// in\n    tag_46:\n      mload(0x40)\n      dup1\n      swap2\n      sub\n      swap1\n      return\n        /* \"project.sol\":221:264  mapping(address => uint256) public balances */\n    tag_16:\n      mstore(0x20, 0x02)\n      dup1\n      0x00\n      mstore\n      keccak256(0x00, 0x40)\n      0x00\n      swap2\n      pop\n      swap1\n      pop\n      sload\n      dup2\n      jump\t// out\n        /* \"project.sol\":1301:1785  function withdraw(uint256 amount) external {... */\n    tag_22:\n        /* \"project.sol\":1372:1373  0 */\n      0x00\n        /* \"project.sol\":1363:1369  amount */\n      dup2\n        /* \"project.sol\":1363:1373  amount > 0 */\n      gt\n        /* \"project.sol\":1355:1407  require(amount > 0, \"Amount must be greater than 0\") */\n      tag_48\n      jumpi\n      mload(0x40)\n      0x08c379a000000000000000000000000000000000000000000000000000000000\n      dup2\n      mstore\n      0x04\n      add\n      tag_49\n      swap1\n      tag_50\n      jump\t// in\n    tag_49:\n      mload(0x40)\n      dup1\n      swap2\n      sub\n      swap1\n      revert\n    tag_48:\n        /* \"project.sol\":1450:1456  amount */\n      dup1\n        /* \"project.sol\":1426:1434  balances */\n      0x02\n        /* \"project.sol\":1426:1446  balances[msg.sender] */\n      0x00\n        /* \"project.sol\":1435:1445  msg.sender */\n      caller\n        /* \"project.sol\":1426:1446  balances[msg.sender] */\n      0xffffffffffffffffffffffffffffffffffffffff\n      and\n      0xffffffffffffffffffffffffffffffffffffffff\n      and\n      dup2\n      mstore\n      0x20\n      add\n      swap1\n      dup2\n      mstore\n      0x20\n      add\n      0x00\n      keccak256\n      sload\n        /* \"project.sol\":1426:1456  balances[msg.sender] >= amount */\n      lt\n      iszero\n        /* \"project.sol\":1418:1481  require(balances[msg.sender] >= amount, \"Insufficient balance\") */\n      tag_51\n      jumpi\n      mload(0x40)\n      0x08c379a000000000000000000000000000000000000000000000000000000000\n      dup2\n      mstore\n      0x04\n      add\n      tag_52\n      swap1\n      tag_53\n      jump\t// in\n    tag_52:\n      mload(0x40)\n      dup1\n      swap2\n      sub\n      swap1\n      revert\n    tag_51:\n        /* \"project.sol\":1561:1587  _updateRewards(msg.sender) */\n      tag_54\n        /* \"project.sol\":1576:1586  msg.sender */\n      caller\n        /* \"project.sol\":1561:1575  _updateRewards */\n      tag_55\n        /* \"project.sol\":1561:1587  _updateRewards(msg.sender) */\n      jump\t// in\n    tag_54:\n        /* \"project.sol\":1660:1666  amount */\n      dup1\n        /* \"project.sol\":1636:1644  balances */\n      0x02\n        /* \"project.sol\":1636:1656  balances[msg.sender] */\n      0x00\n        /* \"project.sol\":1645:1655  msg.sender */\n      caller\n        /* \"project.sol\":1636:1656  balances[msg.sender] */\n      0xffffffffffffffffffffffffffffffffffffffff\n      and\n      0xffffffffffffffffffffffffffffffffffffffff\n      and\n      dup2\n      mstore\n      0x20\n      add\n      swap1\n      dup2\n      mstore\n      0x20\n      add\n      0x00\n      keccak256\n      0x00\n        /* \"project.sol\":1636:1666  balances[msg.sender] -= amount */\n      dup3\n      dup3\n      sload\n      tag_56\n      swap2\n      swap1\n      tag_57\n      jump\t// in\n    tag_56:\n      swap3\n      pop\n      pop\n      dup2\n      swap1\n      sstore\n      pop\n        /* \"project.sol\":1736:1748  stakingToken */\n      0x00\n      dup1\n      sload\n      swap1\n      0x0100\n      exp\n      swap1\n      div\n      0xffffffffffffffffffffffffffffffffffffffff\n      and\n        /* \"project.sol\":1736:1757  stakingToken.transfer */\n      0xffffffffffffffffffffffffffffffffffffffff\n      and\n      0xa9059cbb\n        /* \"project.sol\":1758:1768  msg.sender */\n      caller\n        /* \"project.sol\":1770:1776  amount */\n      dup4\n        /* \"project.sol\":1736:1777  stakingToken.transfer(msg.sender, amount) */\n      mload(0x40)\n      dup4\n      0xffffffff\n      and\n      0xe0\n      shl\n      dup2\n      mstore\n      0x04\n      add\n      tag_58\n      swap3\n      swap2\n      swap1\n      tag_59\n      jump\t// in\n    tag_58:\n      0x20\n      mload(0x40)\n      dup1\n      dup4\n      sub\n      dup2\n      0x00\n      dup8\n      gas\n      call\n      iszero\n      dup1\n      iszero\n      tag_61\n      jumpi\n      returndatasize\n      0x00\n      dup1\n      returndatacopy\n      revert(0x00, returndatasize)\n    tag_61:\n      pop\n      pop\n      pop\n      pop\n      mload(0x40)\n      returndatasize\n      not(0x1f)\n      0x1f\n      dup3\n      add\n      and\n      dup3\n      add\n      dup1\n      0x40\n      mstore\n      pop\n      dup2\n      add\n      swap1\n      tag_62\n      swap2\n      swap1\n      tag_63\n      jump\t// in\n    tag_62:\n      pop\n        /* \"project.sol\":1301:1785  function withdraw(uint256 amount) external {... */\n      pop\n      jump\t// out\n        /* \"project.sol\":3023:3302  function pendingRewards(address user) external view returns (uint256) {... */\n    tag_25:\n        /* \"project.sol\":3084:3091  uint256 */\n      0x00\n        /* \"project.sol\":3104:3123  uint256 timeElapsed */\n      dup1\n        /* \"project.sol\":3144:3158  lastStakedTime */\n      0x04\n        /* \"project.sol\":3144:3164  lastStakedTime[user] */\n      0x00\n        /* \"project.sol\":3159:3163  user */\n      dup5\n        /* \"project.sol\":3144:3164  lastStakedTime[user] */\n      0xffffffffffffffffffffffffffffffffffffffff\n      and\n      0xffffffffffffffffffffffffffffffffffffffff\n      and\n      dup2\n      mstore\n      0x20\n      add\n      swap1\n      dup2\n      mstore\n      0x20\n      add\n      0x00\n      keccak256\n      sload\n        /* \"project.sol\":3126:3141  block.timestamp */\n      timestamp\n        /* \"project.sol\":3126:3164  block.timestamp - lastStakedTime[user] */\n      tag_65\n      swap2\n      swap1\n      tag_57\n      jump\t// in\n    tag_65:\n        /* \"project.sol\":3104:3164  uint256 timeElapsed = block.timestamp - lastStakedTime[user] */\n      swap1\n      pop\n        /* \"project.sol\":3175:3190  uint256 pending */\n      0x00\n        /* \"project.sol\":3246:3250  1e18 */\n      0x0de0b6b3a7640000\n        /* \"project.sol\":3232:3243  timeElapsed */\n      dup3\n        /* \"project.sol\":3210:3229  rewardRatePerSecond */\n      sload(0x01)\n        /* \"project.sol\":3193:3201  balances */\n      0x02\n        /* \"project.sol\":3193:3207  balances[user] */\n      0x00\n        /* \"project.sol\":3202:3206  user */\n      dup9\n        /* \"project.sol\":3193:3207  balances[user] */\n      0xffffffffffffffffffffffffffffffffffffffff\n      and\n      0xffffffffffffffffffffffffffffffffffffffff\n      and\n      dup2\n      mstore\n      0x20\n      add\n      swap1\n      dup2\n      mstore\n      0x20\n      add\n      0x00\n      keccak256\n      sload\n        /* \"project.sol\":3193:3229  balances[user] * rewardRatePerSecond */\n      tag_66\n      swap2\n      swap1\n      tag_67\n      jump\t// in\n    tag_66:\n        /* \"project.sol\":3193:3243  balances[user] * rewardRatePerSecond * timeElapsed */\n      tag_68\n      swap2\n      swap1\n      tag_67\n      jump\t// in\n    tag_68:\n        /* \"project.sol\":3193:3250  balances[user] * rewardRatePerSecond * timeElapsed / 1e18 */\n      tag_69\n      swap2\n      swap1\n      tag_70\n      jump\t// in\n    tag_69:\n        /* \"project.sol\":3175:3250  uint256 pending = balances[user] * rewardRatePerSecond * timeElapsed / 1e18 */\n      swap1\n      pop\n        /* \"project.sol\":3287:3294  pending */\n      dup1\n        /* \"project.sol\":3268:3278  rewardDebt */\n      0x03\n        /* \"project.sol\":3268:3284  rewardDebt[user] */\n      0x00\n        /* \"project.sol\":3279:3283  user */\n      dup7\n        /* \"project.sol\":3268:3284  rewardDebt[user] */\n      0xffffffffffffffffffffffffffffffffffffffff\n      and\n      0xffffffffffffffffffffffffffffffffffffffff\n      and\n      dup2\n      mstore\n      0x20\n      add\n      swap1\n      dup2\n      mstore\n      0x20\n      add\n      0x00\n      keccak256\n      sload\n        /* \"project.sol\":3268:3294  rewardDebt[user] + pending */\n      tag_71\n      swap2\n      swap1\n      tag_72\n      jump\t// in\n    tag_71:\n        /* \"project.sol\":3261:3294  return rewardDebt[user] + pending */\n      swap3\n      pop\n      pop\n      pop\n        /* \"project.sol\":3023:3302  function pendingRewards(address user) external view returns (uint256) {... */\n      swap2\n      swap1\n      pop\n      jump\t// out\n        /* \"project.sol\":1863:2306  function claimRewards() external {... */\n    tag_28:\n        /* \"project.sol\":1907:1933  _updateRewards(msg.sender) */\n      tag_74\n        /* \"project.sol\":1922:1932  msg.sender */\n      caller\n        /* \"project.sol\":1907:1921  _updateRewards */\n      tag_55\n        /* \"project.sol\":1907:1933  _updateRewards(msg.sender) */\n      jump\t// in\n    tag_74:\n        /* \"project.sol\":1979:1994  uint256 rewards */\n      0x00\n        /* \"project.sol\":1997:2007  rewardDebt */\n      0x03\n        /* \"project.sol\":1997:2019  rewardDebt[msg.sender] */\n      0x00\n        /* \"project.sol\":2008:2018  msg.sender */\n      caller\n        /* \"project.sol\":1997:2019  rewardDebt[msg.sender] */\n      0xffffffffffffffffffffffffffffffffffffffff\n      and\n      0xffffffffffffffffffffffffffffffffffffffff\n      and\n      dup2\n      mstore\n      0x20\n      add\n      swap1\n      dup2\n      mstore\n      0x20\n      add\n      0x00\n      keccak256\n      sload\n        /* \"project.sol\":1979:2019  uint256 rewards = rewardDebt[msg.sender] */\n      swap1\n      pop\n        /* \"project.sol\":2048:2049  0 */\n      0x00\n        /* \"project.sol\":2038:2045  rewards */\n      dup2\n        /* \"project.sol\":2038:2049  rewards > 0 */\n      gt\n        /* \"project.sol\":2030:2073  require(rewards > 0, \"No rewards to claim\") */\n      tag_75\n      jumpi\n      mload(0x40)\n      0x08c379a000000000000000000000000000000000000000000000000000000000\n      dup2\n      mstore\n      0x04\n      add\n      tag_76\n      swap1\n      tag_77\n      jump\t// in\n    tag_76:\n      mload(0x40)\n      dup1\n      swap2\n      sub\n      swap1\n      revert\n    tag_75:\n        /* \"project.sol\":2161:2162  0 */\n      0x00\n        /* \"project.sol\":2136:2146  rewardDebt */\n      0x03\n        /* \"project.sol\":2136:2158  rewardDebt[msg.sender] */\n      0x00\n        /* \"project.sol\":2147:2157  msg.sender */\n      caller\n        /* \"project.sol\":2136:2158  rewardDebt[msg.sender] */\n      0xffffffffffffffffffffffffffffffffffffffff\n      and\n      0xffffffffffffffffffffffffffffffffffffffff\n      and\n      dup2\n      mstore\n      0x20\n      add\n      swap1\n      dup2\n      mstore\n      0x20\n      add\n      0x00\n      keccak256\n        /* \"project.sol\":2136:2162  rewardDebt[msg.sender] = 0 */\n      dup2\n      swap1\n      sstore\n      pop\n        /* \"project.sol\":2256:2268  stakingToken */\n      0x00\n      dup1\n      sload\n      swap1\n      0x0100\n      exp\n      swap1\n      div\n      0xffffffffffffffffffffffffffffffffffffffff\n      and\n        /* \"project.sol\":2256:2277  stakingToken.transfer */\n      0xffffffffffffffffffffffffffffffffffffffff\n      and\n      0xa9059cbb\n        /* \"project.sol\":2278:2288  msg.sender */\n      caller\n        /* \"project.sol\":2290:2297  rewards */\n      dup4\n        /* \"project.sol\":2256:2298  stakingToken.transfer(msg.sender, rewards) */\n      mload(0x40)\n      dup4\n      0xffffffff\n      and\n      0xe0\n      shl\n      dup2\n      mstore\n      0x04\n      add\n      tag_78\n      swap3\n      swap2\n      swap1\n      tag_59\n      jump\t// in\n    tag_78:\n      0x20\n      mload(0x40)\n      dup1\n      dup4\n      sub\n      dup2\n      0x00\n      dup8\n      gas\n      call\n      iszero\n      dup1\n      iszero\n      tag_80\n      jumpi\n      returndatasize\n      0x00\n      dup1\n      returndatacopy\n      revert(0x00, returndatasize)\n    tag_80:\n      pop\n      pop\n      pop\n      pop\n      mload(0x40)\n      returndatasize\n      not(0x1f)\n      0x1f\n      dup3\n      add\n      and\n      dup3\n      add\n      dup1\n      0x40\n      mstore\n      pop\n      dup2\n      add\n      swap1\n      tag_81\n      swap2\n      swap1\n      tag_63\n      jump\t// in\n    tag_81:\n      pop\n        /* \"project.sol\":1896:2306  {... */\n      pop\n        /* \"project.sol\":1863:2306  function claimRewards() external {... */\n      jump\t// out\n        /* \"project.sol\":294:339  mapping(address => uint256) public rewardDebt */\n    tag_31:\n      mstore(0x20, 0x03)\n      dup1\n      0x00\n      mstore\n      keccak256(0x00, 0x40)\n      0x00\n      swap2\n      pop\n      swap1\n      pop\n      sload\n      dup2\n      jump\t// out\n        /* \"project.sol\":125:166  uint256 public rewardRatePerSecond = 1e18 */\n    tag_34:\n      sload(0x01)\n      dup2\n      jump\t// out\n        /* \"project.sol\":92:118  IERC20 public stakingToken */\n    tag_37:\n      0x00\n      dup1\n      sload\n      swap1\n      0x0100\n      exp\n      swap1\n      div\n      0xffffffffffffffffffffffffffffffffffffffff\n      and\n      dup2\n      jump\t// out\n        /* \"project.sol\":674:1179  function deposit(uint256 amount) external {... */\n    tag_42:\n        /* \"project.sol\":744:745  0 */\n      0x00\n        /* \"project.sol\":735:741  amount */\n      dup2\n        /* \"project.sol\":735:745  amount > 0 */\n      gt\n        /* \"project.sol\":727:779  require(amount > 0, \"Amount must be greater than 0\") */\n      tag_83\n      jumpi\n      mload(0x40)\n      0x08c379a000000000000000000000000000000000000000000000000000000000\n      dup2\n      mstore\n      0x04\n      add\n      tag_84\n      swap1\n      tag_50\n      jump\t// in\n    tag_84:\n      mload(0x40)\n      dup1\n      swap2\n      sub\n      swap1\n      revert\n    tag_83:\n        /* \"project.sol\":859:885  _updateRewards(msg.sender) */\n      tag_85\n        /* \"project.sol\":874:884  msg.sender */\n      caller\n        /* \"project.sol\":859:873  _updateRewards */\n      tag_55\n        /* \"project.sol\":859:885  _updateRewards(msg.sender) */\n      jump\t// in\n    tag_85:\n        /* \"project.sol\":955:967  stakingToken */\n      0x00\n      dup1\n      sload\n      swap1\n      0x0100\n      exp\n      swap1\n      div\n      0xffffffffffffffffffffffffffffffffffffffff\n      and\n        /* \"project.sol\":955:980  stakingToken.transferFrom */\n      0xffffffffffffffffffffffffffffffffffffffff\n      and\n      0x23b872dd\n        /* \"project.sol\":981:991  msg.sender */\n      caller\n        /* \"project.sol\":1001:1005  this */\n      address\n        /* \"project.sol\":1008:1014  amount */\n      dup5\n        /* \"project.sol\":955:1015  stakingToken.transferFrom(msg.sender, address(this), amount) */\n      mload(0x40)\n      dup5\n      0xffffffff\n      and\n      0xe0\n      shl\n      dup2\n      mstore\n      0x04\n      add\n      tag_86\n      swap4\n      swap3\n      swap2\n      swap1\n      tag_87\n      jump\t// in\n    tag_86:\n      0x20\n      mload(0x40)\n      dup1\n      dup4\n      sub\n      dup2\n      0x00\n      dup8\n      gas\n      call\n      iszero\n      dup1\n      iszero\n      tag_89\n      jumpi\n      returndatasize\n      0x00\n      dup1\n      returndatacopy\n      revert(0x00, returndatasize)\n    tag_89:\n      pop\n      pop\n      pop\n      pop\n      mload(0x40)\n      returndatasize\n      not(0x1f)\n      0x1f\n      dup3\n      add\n      and\n      dup3\n      add\n      dup1\n      0x40\n      mstore\n      pop\n      dup2\n      add\n      swap1\n      tag_90\n      swap2\n      swap1\n      tag_63\n      jump\t// in\n    tag_90:\n      pop\n        /* \"project.sol\":1110:1116  amount */\n      dup1\n        /* \"project.sol\":1086:1094  balances */\n      0x02\n        /* \"project.sol\":1086:1106  balances[msg.sender] */\n      0x00\n        /* \"project.sol\":1095:1105  msg.sender */\n      caller\n        /* \"project.sol\":1086:1106  balances[msg.sender] */\n      0xffffffffffffffffffffffffffffffffffffffff\n      and\n      0xffffffffffffffffffffffffffffffffffffffff\n      and\n      dup2\n      mstore\n      0x20\n      add\n      swap1\n      dup2\n      mstore\n      0x20\n      add\n      0x00\n      keccak256\n      0x00\n        /* \"project.sol\":1086:1116  balances[msg.sender] += amount */\n      dup3\n      dup3\n      sload\n      tag_91\n      swap2\n      swap1\n      tag_72\n      jump\t// in\n    tag_91:\n      swap3\n      pop\n      pop\n      dup2\n      swap1\n      sstore\n      pop\n        /* \"project.sol\":1156:1171  block.timestamp */\n      timestamp\n        /* \"project.sol\":1127:1141  lastStakedTime */\n      0x04\n        /* \"project.sol\":1127:1153  lastStakedTime[msg.sender] */\n      0x00\n        /* \"project.sol\":1142:1152  msg.sender */\n      caller\n        /* \"project.sol\":1127:1153  lastStakedTime[msg.sender] */\n      0xffffffffffffffffffffffffffffffffffffffff\n      and\n      0xffffffffffffffffffffffffffffffffffffffff\n      and\n      dup2\n      mstore\n      0x20\n      add\n      swap1\n      dup2\n      mstore\n      0x20\n      add\n      0x00\n      keccak256\n        /* \"project.sol\":1127:1171  lastStakedTime[msg.sender] = block.timestamp */\n      dup2\n      swap1\n      sstore\n      pop\n        /* \"project.sol\":674:1179  function deposit(uint256 amount) external {... */\n      pop\n      jump\t// out\n        /* \"project.sol\":383:432  mapping(address => uint256) public lastStakedTime */\n    tag_45:\n      mstore(0x20, 0x04)\n      dup1\n      0x00\n      mstore\n      keccak256(0x00, 0x40)\n      0x00\n      swap2\n      pop\n      swap1\n      pop\n      sload\n      dup2\n      jump\t// out\n        /* \"project.sol\":2440:2875  function _updateRewards(address user) internal {... */\n    tag_55:\n        /* \"project.sol\":2498:2517  uint256 timeElapsed */\n      0x00\n        /* \"project.sol\":2538:2552  lastStakedTime */\n      0x04\n        /* \"project.sol\":2538:2558  lastStakedTime[user] */\n      0x00\n        /* \"project.sol\":2553:2557  user */\n      dup4\n        /* \"project.sol\":2538:2558  lastStakedTime[user] */\n      0xffffffffffffffffffffffffffffffffffffffff\n      and\n      0xffffffffffffffffffffffffffffffffffffffff\n      and\n      dup2\n      mstore\n      0x20\n      add\n      swap1\n      dup2\n      mstore\n      0x20\n      add\n      0x00\n      keccak256\n      sload\n        /* \"project.sol\":2520:2535  block.timestamp */\n      timestamp\n        /* \"project.sol\":2520:2558  block.timestamp - lastStakedTime[user] */\n      tag_93\n      swap2\n      swap1\n      tag_57\n      jump\t// in\n    tag_93:\n        /* \"project.sol\":2498:2558  uint256 timeElapsed = block.timestamp - lastStakedTime[user] */\n      swap1\n      pop\n        /* \"project.sol\":2569:2590  uint256 pendingAmount */\n      0x00\n        /* \"project.sol\":2646:2650  1e18 */\n      0x0de0b6b3a7640000\n        /* \"project.sol\":2632:2643  timeElapsed */\n      dup3\n        /* \"project.sol\":2610:2629  rewardRatePerSecond */\n      sload(0x01)\n        /* \"project.sol\":2593:2601  balances */\n      0x02\n        /* \"project.sol\":2593:2607  balances[user] */\n      0x00\n        /* \"project.sol\":2602:2606  user */\n      dup8\n        /* \"project.sol\":2593:2607  balances[user] */\n      0xffffffffffffffffffffffffffffffffffffffff\n      and\n      0xffffffffffffffffffffffffffffffffffffffff\n      and\n      dup2\n      mstore\n      0x20\n      add\n      swap1\n      dup2\n      mstore\n      0x20\n      add\n      0x00\n      keccak256\n      sload\n        /* \"project.sol\":2593:2629  balances[user] * rewardRatePerSecond */\n      tag_94\n      swap2\n      swap1\n      tag_67\n      jump\t// in\n    tag_94:\n        /* \"project.sol\":2593:2643  balances[user] * rewardRatePerSecond * timeElapsed */\n      tag_95\n      swap2\n      swap1\n      tag_67\n      jump\t// in\n    tag_95:\n        /* \"project.sol\":2593:2650  balances[user] * rewardRatePerSecond * timeElapsed / 1e18 */\n      tag_96\n      swap2\n      swap1\n      tag_70\n      jump\t// in\n    tag_96:\n        /* \"project.sol\":2569:2650  uint256 pendingAmount = balances[user] * rewardRatePerSecond * timeElapsed / 1e18 */\n      swap1\n      pop\n        /* \"project.sol\":2764:2777  pendingAmount */\n      dup1\n        /* \"project.sol\":2744:2754  rewardDebt */\n      0x03\n        /* \"project.sol\":2744:2760  rewardDebt[user] */\n      0x00\n        /* \"project.sol\":2755:2759  user */\n      dup6\n        /* \"project.sol\":2744:2760  rewardDebt[user] */\n      0xffffffffffffffffffffffffffffffffffffffff\n      and\n      0xffffffffffffffffffffffffffffffffffffffff\n      and\n      dup2\n      mstore\n      0x20\n      add\n      swap1\n      dup2\n      mstore\n      0x20\n      add\n      0x00\n      keccak256\n      0x00\n        /* \"project.sol\":2744:2777  rewardDebt[user] += pendingAmount */\n      dup3\n      dup3\n      sload\n      tag_97\n      swap2\n      swap1\n      tag_72\n      jump\t// in\n    tag_97:\n      swap3\n      pop\n      pop\n      dup2\n      swap1\n      sstore\n      pop\n        /* \"project.sol\":2852:2867  block.timestamp */\n      timestamp\n        /* \"project.sol\":2829:2843  lastStakedTime */\n      0x04\n        /* \"project.sol\":2829:2849  lastStakedTime[user] */\n      0x00\n        /* \"project.sol\":2844:2848  user */\n      dup6\n        /* \"project.sol\":2829:2849  lastStakedTime[user] */\n      0xffffffffffffffffffffffffffffffffffffffff\n      and\n      0xffffffffffffffffffffffffffffffffffffffff\n      and\n      dup2\n      mstore\n      0x20\n      add\n      swap1\n      dup2\n      mstore\n      0x20\n      add\n      0x00\n      keccak256\n        /* \"project.sol\":2829:2867  lastStakedTime[user] = block.timestamp */\n      dup2\n      swap1\n      sstore\n      pop\n        /* \"project.sol\":2487:2875  {... */\n      pop\n      pop\n        /* \"project.sol\":2440:2875  function _updateRewards(address user) internal {... */\n      pop\n      jump\t// out\n        /* \"#utility.yul\":88:205   */\n    tag_99:\n        /* \"#utility.yul\":197:198   */\n      0x00\n        /* \"#utility.yul\":194:195   */\n      dup1\n        /* \"#utility.yul\":187:199   */\n      revert\n        /* \"#utility.yul\":334:460   */\n    tag_101:\n        /* \"#utility.yul\":371:378   */\n      0x00\n        /* \"#utility.yul\":411:453   */\n      0xffffffffffffffffffffffffffffffffffffffff\n        /* \"#utility.yul\":404:409   */\n      dup3\n        /* \"#utility.yul\":400:454   */\n      and\n        /* \"#utility.yul\":389:454   */\n      swap1\n      pop\n        /* \"#utility.yul\":334:460   */\n      swap2\n      swap1\n      pop\n      jump\t// out\n        /* \"#utility.yul\":466:562   */\n    tag_102:\n        /* \"#utility.yul\":503:510   */\n      0x00\n        /* \"#utility.yul\":532:556   */\n      tag_133\n        /* \"#utility.yul\":550:555   */\n      dup3\n        /* \"#utility.yul\":532:556   */\n      tag_101\n      jump\t// in\n    tag_133:\n        /* \"#utility.yul\":521:556   */\n      swap1\n      pop\n        /* \"#utility.yul\":466:562   */\n      swap2\n      swap1\n      pop\n      jump\t// out\n        /* \"#utility.yul\":568:690   */\n    tag_103:\n        /* \"#utility.yul\":641:665   */\n      tag_135\n        /* \"#utility.yul\":659:664   */\n      dup2\n        /* \"#utility.yul\":641:665   */\n      tag_102\n      jump\t// in\n    tag_135:\n        /* \"#utility.yul\":634:639   */\n      dup2\n        /* \"#utility.yul\":631:666   */\n      eq\n        /* \"#utility.yul\":621:684   */\n      tag_136\n      jumpi\n        /* \"#utility.yul\":680:681   */\n      0x00\n        /* \"#utility.yul\":677:678   */\n      dup1\n        /* \"#utility.yul\":670:682   */\n      revert\n        /* \"#utility.yul\":621:684   */\n    tag_136:\n        /* \"#utility.yul\":568:690   */\n      pop\n      jump\t// out\n        /* \"#utility.yul\":696:835   */\n    tag_104:\n        /* \"#utility.yul\":742:747   */\n      0x00\n        /* \"#utility.yul\":780:786   */\n      dup2\n        /* \"#utility.yul\":767:787   */\n      calldataload\n        /* \"#utility.yul\":758:787   */\n      swap1\n      pop\n        /* \"#utility.yul\":796:829   */\n      tag_138\n        /* \"#utility.yul\":823:828   */\n      dup2\n        /* \"#utility.yul\":796:829   */\n      tag_103\n      jump\t// in\n    tag_138:\n        /* \"#utility.yul\":696:835   */\n      swap3\n      swap2\n      pop\n      pop\n      jump\t// out\n        /* \"#utility.yul\":841:1170   */\n    tag_15:\n        /* \"#utility.yul\":900:906   */\n      0x00\n        /* \"#utility.yul\":949:951   */\n      0x20\n        /* \"#utility.yul\":937:946   */\n      dup3\n        /* \"#utility.yul\":928:935   */\n      dup5\n        /* \"#utility.yul\":924:947   */\n      sub\n        /* \"#utility.yul\":920:952   */\n      slt\n        /* \"#utility.yul\":917:1036   */\n      iszero\n      tag_140\n      jumpi\n        /* \"#utility.yul\":955:1034   */\n      tag_141\n      tag_99\n      jump\t// in\n    tag_141:\n        /* \"#utility.yul\":917:1036   */\n    tag_140:\n        /* \"#utility.yul\":1075:1076   */\n      0x00\n        /* \"#utility.yul\":1100:1153   */\n      tag_142\n        /* \"#utility.yul\":1145:1152   */\n      dup5\n        /* \"#utility.yul\":1136:1142   */\n      dup3\n        /* \"#utility.yul\":1125:1134   */\n      dup6\n        /* \"#utility.yul\":1121:1143   */\n      add\n        /* \"#utility.yul\":1100:1153   */\n      tag_104\n      jump\t// in\n    tag_142:\n        /* \"#utility.yul\":1090:1153   */\n      swap2\n      pop\n        /* \"#utility.yul\":1046:1163   */\n      pop\n        /* \"#utility.yul\":841:1170   */\n      swap3\n      swap2\n      pop\n      pop\n      jump\t// out\n        /* \"#utility.yul\":1176:1253   */\n    tag_105:\n        /* \"#utility.yul\":1213:1220   */\n      0x00\n        /* \"#utility.yul\":1242:1247   */\n      dup2\n        /* \"#utility.yul\":1231:1247   */\n      swap1\n      pop\n        /* \"#utility.yul\":1176:1253   */\n      swap2\n      swap1\n      pop\n      jump\t// out\n        /* \"#utility.yul\":1259:1377   */\n    tag_106:\n        /* \"#utility.yul\":1346:1370   */\n      tag_145\n        /* \"#utility.yul\":1364:1369   */\n      dup2\n        /* \"#utility.yul\":1346:1370   */\n      tag_105\n      jump\t// in\n    tag_145:\n        /* \"#utility.yul\":1341:1344   */\n      dup3\n        /* \"#utility.yul\":1334:1371   */\n      mstore\n        /* \"#utility.yul\":1259:1377   */\n      pop\n      pop\n      jump\t// out\n        /* \"#utility.yul\":1383:1605   */\n    tag_18:\n        /* \"#utility.yul\":1476:1480   */\n      0x00\n        /* \"#utility.yul\":1514:1516   */\n      0x20\n        /* \"#utility.yul\":1503:1512   */\n      dup3\n        /* \"#utility.yul\":1499:1517   */\n      add\n        /* \"#utility.yul\":1491:1517   */\n      swap1\n      pop\n        /* \"#utility.yul\":1527:1598   */\n      tag_147\n        /* \"#utility.yul\":1595:1596   */\n      0x00\n        /* \"#utility.yul\":1584:1593   */\n      dup4\n        /* \"#utility.yul\":1580:1597   */\n      add\n        /* \"#utility.yul\":1571:1577   */\n      dup5\n        /* \"#utility.yul\":1527:1598   */\n      tag_106\n      jump\t// in\n    tag_147:\n        /* \"#utility.yul\":1383:1605   */\n      swap3\n      swap2\n      pop\n      pop\n      jump\t// out\n        /* \"#utility.yul\":1611:1733   */\n    tag_107:\n        /* \"#utility.yul\":1684:1708   */\n      tag_149\n        /* \"#utility.yul\":1702:1707   */\n      dup2\n        /* \"#utility.yul\":1684:1708   */\n      tag_105\n      jump\t// in\n    tag_149:\n        /* \"#utility.yul\":1677:1682   */\n      dup2\n        /* \"#utility.yul\":1674:1709   */\n      eq\n        /* \"#utility.yul\":1664:1727   */\n      tag_150\n      jumpi\n        /* \"#utility.yul\":1723:1724   */\n      0x00\n        /* \"#utility.yul\":1720:1721   */\n      dup1\n        /* \"#utility.yul\":1713:1725   */\n      revert\n        /* \"#utility.yul\":1664:1727   */\n    tag_150:\n        /* \"#utility.yul\":1611:1733   */\n      pop\n      jump\t// out\n        /* \"#utility.yul\":1739:1878   */\n    tag_108:\n        /* \"#utility.yul\":1785:1790   */\n      0x00\n        /* \"#utility.yul\":1823:1829   */\n      dup2\n        /* \"#utility.yul\":1810:1830   */\n      calldataload\n        /* \"#utility.yul\":1801:1830   */\n      swap1\n      pop\n        /* \"#utility.yul\":1839:1872   */\n      tag_152\n        /* \"#utility.yul\":1866:1871   */\n      dup2\n        /* \"#utility.yul\":1839:1872   */\n      tag_107\n      jump\t// in\n    tag_152:\n        /* \"#utility.yul\":1739:1878   */\n      swap3\n      swap2\n      pop\n      pop\n      jump\t// out\n        /* \"#utility.yul\":1884:2213   */\n    tag_21:\n        /* \"#utility.yul\":1943:1949   */\n      0x00\n        /* \"#utility.yul\":1992:1994   */\n      0x20\n        /* \"#utility.yul\":1980:1989   */\n      dup3\n        /* \"#utility.yul\":1971:1978   */\n      dup5\n        /* \"#utility.yul\":1967:1990   */\n      sub\n        /* \"#utility.yul\":1963:1995   */\n      slt\n        /* \"#utility.yul\":1960:2079   */\n      iszero\n      tag_154\n      jumpi\n        /* \"#utility.yul\":1998:2077   */\n      tag_155\n      tag_99\n      jump\t// in\n    tag_155:\n        /* \"#utility.yul\":1960:2079   */\n    tag_154:\n        /* \"#utility.yul\":2118:2119   */\n      0x00\n        /* \"#utility.yul\":2143:2196   */\n      tag_156\n        /* \"#utility.yul\":2188:2195   */\n      dup5\n        /* \"#utility.yul\":2179:2185   */\n      dup3\n        /* \"#utility.yul\":2168:2177   */\n      dup6\n        /* \"#utility.yul\":2164:2186   */\n      add\n        /* \"#utility.yul\":2143:2196   */\n      tag_108\n      jump\t// in\n    tag_156:\n        /* \"#utility.yul\":2133:2196   */\n      swap2\n      pop\n        /* \"#utility.yul\":2089:2206   */\n      pop\n        /* \"#utility.yul\":1884:2213   */\n      swap3\n      swap2\n      pop\n      pop\n      jump\t// out\n        /* \"#utility.yul\":2219:2279   */\n    tag_109:\n        /* \"#utility.yul\":2247:2250   */\n      0x00\n        /* \"#utility.yul\":2268:2273   */\n      dup2\n        /* \"#utility.yul\":2261:2273   */\n      swap1\n      pop\n        /* \"#utility.yul\":2219:2279   */\n      swap2\n      swap1\n      pop\n      jump\t// out\n        /* \"#utility.yul\":2285:2427   */\n    tag_110:\n        /* \"#utility.yul\":2335:2344   */\n      0x00\n        /* \"#utility.yul\":2368:2421   */\n      tag_159\n        /* \"#utility.yul\":2386:2420   */\n      tag_160\n        /* \"#utility.yul\":2395:2419   */\n      tag_161\n        /* \"#utility.yul\":2413:2418   */\n      dup5\n        /* \"#utility.yul\":2395:2419   */\n      tag_101\n      jump\t// in\n    tag_161:\n        /* \"#utility.yul\":2386:2420   */\n      tag_109\n      jump\t// in\n    tag_160:\n        /* \"#utility.yul\":2368:2421   */\n      tag_101\n      jump\t// in\n    tag_159:\n        /* \"#utility.yul\":2355:2421   */\n      swap1\n      pop\n        /* \"#utility.yul\":2285:2427   */\n      swap2\n      swap1\n      pop\n      jump\t// out\n        /* \"#utility.yul\":2433:2559   */\n    tag_111:\n        /* \"#utility.yul\":2483:2492   */\n      0x00\n        /* \"#utility.yul\":2516:2553   */\n      tag_163\n        /* \"#utility.yul\":2547:2552   */\n      dup3\n        /* \"#utility.yul\":2516:2553   */\n      tag_110\n      jump\t// in\n    tag_163:\n        /* \"#utility.yul\":2503:2553   */\n      swap1\n      pop\n        /* \"#utility.yul\":2433:2559   */\n      swap2\n      swap1\n      pop\n      jump\t// out\n        /* \"#utility.yul\":2565:2705   */\n    tag_112:\n        /* \"#utility.yul\":2629:2638   */\n      0x00\n        /* \"#utility.yul\":2662:2699   */\n      tag_165\n        /* \"#utility.yul\":2693:2698   */\n      dup3\n        /* \"#utility.yul\":2662:2699   */\n      tag_111\n      jump\t// in\n    tag_165:\n        /* \"#utility.yul\":2649:2699   */\n      swap1\n      pop\n        /* \"#utility.yul\":2565:2705   */\n      swap2\n      swap1\n      pop\n      jump\t// out\n        /* \"#utility.yul\":2711:2870   */\n    tag_113:\n        /* \"#utility.yul\":2812:2863   */\n      tag_167\n        /* \"#utility.yul\":2857:2862   */\n      dup2\n        /* \"#utility.yul\":2812:2863   */\n      tag_112\n      jump\t// in\n    tag_167:\n        /* \"#utility.yul\":2807:2810   */\n      dup3\n        /* \"#utility.yul\":2800:2864   */\n      mstore\n        /* \"#utility.yul\":2711:2870   */\n      pop\n      pop\n      jump\t// out\n        /* \"#utility.yul\":2876:3126   */\n    tag_39:\n        /* \"#utility.yul\":2983:2987   */\n      0x00\n        /* \"#utility.yul\":3021:3023   */\n      0x20\n        /* \"#utility.yul\":3010:3019   */\n      dup3\n        /* \"#utility.yul\":3006:3024   */\n      add\n        /* \"#utility.yul\":2998:3024   */\n      swap1\n      pop\n        /* \"#utility.yul\":3034:3119   */\n      tag_169\n        /* \"#utility.yul\":3116:3117   */\n      0x00\n        /* \"#utility.yul\":3105:3114   */\n      dup4\n        /* \"#utility.yul\":3101:3118   */\n      add\n        /* \"#utility.yul\":3092:3098   */\n      dup5\n        /* \"#utility.yul\":3034:3119   */\n      tag_113\n      jump\t// in\n    tag_169:\n        /* \"#utility.yul\":2876:3126   */\n      swap3\n      swap2\n      pop\n      pop\n      jump\t// out\n        /* \"#utility.yul\":3132:3301   */\n    tag_114:\n        /* \"#utility.yul\":3216:3227   */\n      0x00\n        /* \"#utility.yul\":3250:3256   */\n      dup3\n        /* \"#utility.yul\":3245:3248   */\n      dup3\n        /* \"#utility.yul\":3238:3257   */\n      mstore\n        /* \"#utility.yul\":3290:3294   */\n      0x20\n        /* \"#utility.yul\":3285:3288   */\n      dup3\n        /* \"#utility.yul\":3281:3295   */\n      add\n        /* \"#utility.yul\":3266:3295   */\n      swap1\n      pop\n        /* \"#utility.yul\":3132:3301   */\n      swap3\n      swap2\n      pop\n      pop\n      jump\t// out\n        /* \"#utility.yul\":3307:3486   */\n    tag_115:\n        /* \"#utility.yul\":3447:3478   */\n      0x416d6f756e74206d7573742062652067726561746572207468616e2030000000\n        /* \"#utility.yul\":3443:3444   */\n      0x00\n        /* \"#utility.yul\":3435:3441   */\n      dup3\n        /* \"#utility.yul\":3431:3445   */\n      add\n        /* \"#utility.yul\":3424:3479   */\n      mstore\n        /* \"#utility.yul\":3307:3486   */\n      pop\n      jump\t// out\n        /* \"#utility.yul\":3492:3858   */\n    tag_116:\n        /* \"#utility.yul\":3634:3637   */\n      0x00\n        /* \"#utility.yul\":3655:3722   */\n      tag_173\n        /* \"#utility.yul\":3719:3721   */\n      0x1d\n        /* \"#utility.yul\":3714:3717   */\n      dup4\n        /* \"#utility.yul\":3655:3722   */\n      tag_114\n      jump\t// in\n    tag_173:\n        /* \"#utility.yul\":3648:3722   */\n      swap2\n      pop\n        /* \"#utility.yul\":3731:3824   */\n      tag_174\n        /* \"#utility.yul\":3820:3823   */\n      dup3\n        /* \"#utility.yul\":3731:3824   */\n      tag_115\n      jump\t// in\n    tag_174:\n        /* \"#utility.yul\":3849:3851   */\n      0x20\n        /* \"#utility.yul\":3844:3847   */\n      dup3\n        /* \"#utility.yul\":3840:3852   */\n      add\n        /* \"#utility.yul\":3833:3852   */\n      swap1\n      pop\n        /* \"#utility.yul\":3492:3858   */\n      swap2\n      swap1\n      pop\n      jump\t// out\n        /* \"#utility.yul\":3864:4283   */\n    tag_50:\n        /* \"#utility.yul\":4030:4034   */\n      0x00\n        /* \"#utility.yul\":4068:4070   */\n      0x20\n        /* \"#utility.yul\":4057:4066   */\n      dup3\n        /* \"#utility.yul\":4053:4071   */\n      add\n        /* \"#utility.yul\":4045:4071   */\n      swap1\n      pop\n        /* \"#utility.yul\":4117:4126   */\n      dup2\n        /* \"#utility.yul\":4111:4115   */\n      dup2\n        /* \"#utility.yul\":4107:4127   */\n      sub\n        /* \"#utility.yul\":4103:4104   */\n      0x00\n        /* \"#utility.yul\":4092:4101   */\n      dup4\n        /* \"#utility.yul\":4088:4105   */\n      add\n        /* \"#utility.yul\":4081:4128   */\n      mstore\n        /* \"#utility.yul\":4145:4276   */\n      tag_176\n        /* \"#utility.yul\":4271:4275   */\n      dup2\n        /* \"#utility.yul\":4145:4276   */\n      tag_116\n      jump\t// in\n    tag_176:\n        /* \"#utility.yul\":4137:4276   */\n      swap1\n      pop\n        /* \"#utility.yul\":3864:4283   */\n      swap2\n      swap1\n      pop\n      jump\t// out\n        /* \"#utility.yul\":4289:4459   */\n    tag_117:\n        /* \"#utility.yul\":4429:4451   */\n      0x496e73756666696369656e742062616c616e6365000000000000000000000000\n        /* \"#utility.yul\":4425:4426   */\n      0x00\n        /* \"#utility.yul\":4417:4423   */\n      dup3\n        /* \"#utility.yul\":4413:4427   */\n      add\n        /* \"#utility.yul\":4406:4452   */\n      mstore\n        /* \"#utility.yul\":4289:4459   */\n      pop\n      jump\t// out\n        /* \"#utility.yul\":4465:4831   */\n    tag_118:\n        /* \"#utility.yul\":4607:4610   */\n      0x00\n        /* \"#utility.yul\":4628:4695   */\n      tag_179\n        /* \"#utility.yul\":4692:4694   */\n      0x14\n        /* \"#utility.yul\":4687:4690   */\n      dup4\n        /* \"#utility.yul\":4628:4695   */\n      tag_114\n      jump\t// in\n    tag_179:\n        /* \"#utility.yul\":4621:4695   */\n      swap2\n      pop\n        /* \"#utility.yul\":4704:4797   */\n      tag_180\n        /* \"#utility.yul\":4793:4796   */\n      dup3\n        /* \"#utility.yul\":4704:4797   */\n      tag_117\n      jump\t// in\n    tag_180:\n        /* \"#utility.yul\":4822:4824   */\n      0x20\n        /* \"#utility.yul\":4817:4820   */\n      dup3\n        /* \"#utility.yul\":4813:4825   */\n      add\n        /* \"#utility.yul\":4806:4825   */\n      swap1\n      pop\n        /* \"#utility.yul\":4465:4831   */\n      swap2\n      swap1\n      pop\n      jump\t// out\n        /* \"#utility.yul\":4837:5256   */\n    tag_53:\n        /* \"#utility.yul\":5003:5007   */\n      0x00\n        /* \"#utility.yul\":5041:5043   */\n      0x20\n        /* \"#utility.yul\":5030:5039   */\n      dup3\n        /* \"#utility.yul\":5026:5044   */\n      add\n        /* \"#utility.yul\":5018:5044   */\n      swap1\n      pop\n        /* \"#utility.yul\":5090:5099   */\n      dup2\n        /* \"#utility.yul\":5084:5088   */\n      dup2\n        /* \"#utility.yul\":5080:5100   */\n      sub\n        /* \"#utility.yul\":5076:5077   */\n      0x00\n        /* \"#utility.yul\":5065:5074   */\n      dup4\n        /* \"#utility.yul\":5061:5078   */\n      add\n        /* \"#utility.yul\":5054:5101   */\n      mstore\n        /* \"#utility.yul\":5118:5249   */\n      tag_182\n        /* \"#utility.yul\":5244:5248   */\n      dup2\n        /* \"#utility.yul\":5118:5249   */\n      tag_118\n      jump\t// in\n    tag_182:\n        /* \"#utility.yul\":5110:5249   */\n      swap1\n      pop\n        /* \"#utility.yul\":4837:5256   */\n      swap2\n      swap1\n      pop\n      jump\t// out\n        /* \"#utility.yul\":5262:5442   */\n    tag_119:\n        /* \"#utility.yul\":5310:5387   */\n      0x4e487b7100000000000000000000000000000000000000000000000000000000\n        /* \"#utility.yul\":5307:5308   */\n      0x00\n        /* \"#utility.yul\":5300:5388   */\n      mstore\n        /* \"#utility.yul\":5407:5411   */\n      0x11\n        /* \"#utility.yul\":5404:5405   */\n      0x04\n        /* \"#utility.yul\":5397:5412   */\n      mstore\n        /* \"#utility.yul\":5431:5435   */\n      0x24\n        /* \"#utility.yul\":5428:5429   */\n      0x00\n        /* \"#utility.yul\":5421:5436   */\n      revert\n        /* \"#utility.yul\":5448:5642   */\n    tag_57:\n        /* \"#utility.yul\":5488:5492   */\n      0x00\n        /* \"#utility.yul\":5508:5528   */\n      tag_185\n        /* \"#utility.yul\":5526:5527   */\n      dup3\n        /* \"#utility.yul\":5508:5528   */\n      tag_105\n      jump\t// in\n    tag_185:\n        /* \"#utility.yul\":5503:5528   */\n      swap2\n      pop\n        /* \"#utility.yul\":5542:5562   */\n      tag_186\n        /* \"#utility.yul\":5560:5561   */\n      dup4\n        /* \"#utility.yul\":5542:5562   */\n      tag_105\n      jump\t// in\n    tag_186:\n        /* \"#utility.yul\":5537:5562   */\n      swap3\n      pop\n        /* \"#utility.yul\":5586:5587   */\n      dup3\n        /* \"#utility.yul\":5583:5584   */\n      dup3\n        /* \"#utility.yul\":5579:5588   */\n      sub\n        /* \"#utility.yul\":5571:5588   */\n      swap1\n      pop\n        /* \"#utility.yul\":5610:5611   */\n      dup2\n        /* \"#utility.yul\":5604:5608   */\n      dup2\n        /* \"#utility.yul\":5601:5612   */\n      gt\n        /* \"#utility.yul\":5598:5635   */\n      iszero\n      tag_187\n      jumpi\n        /* \"#utility.yul\":5615:5633   */\n      tag_188\n      tag_119\n      jump\t// in\n    tag_188:\n        /* \"#utility.yul\":5598:5635   */\n    tag_187:\n        /* \"#utility.yul\":5448:5642   */\n      swap3\n      swap2\n      pop\n      pop\n      jump\t// out\n        /* \"#utility.yul\":5648:5766   */\n    tag_120:\n        /* \"#utility.yul\":5735:5759   */\n      tag_190\n        /* \"#utility.yul\":5753:5758   */\n      dup2\n        /* \"#utility.yul\":5735:5759   */\n      tag_102\n      jump\t// in\n    tag_190:\n        /* \"#utility.yul\":5730:5733   */\n      dup3\n        /* \"#utility.yul\":5723:5760   */\n      mstore\n        /* \"#utility.yul\":5648:5766   */\n      pop\n      pop\n      jump\t// out\n        /* \"#utility.yul\":5772:6104   */\n    tag_59:\n        /* \"#utility.yul\":5893:5897   */\n      0x00\n        /* \"#utility.yul\":5931:5933   */\n      0x40\n        /* \"#utility.yul\":5920:5929   */\n      dup3\n        /* \"#utility.yul\":5916:5934   */\n      add\n        /* \"#utility.yul\":5908:5934   */\n      swap1\n      pop\n        /* \"#utility.yul\":5944:6015   */\n      tag_192\n        /* \"#utility.yul\":6012:6013   */\n      0x00\n        /* \"#utility.yul\":6001:6010   */\n      dup4\n        /* \"#utility.yul\":5997:6014   */\n      add\n        /* \"#utility.yul\":5988:5994   */\n      dup6\n        /* \"#utility.yul\":5944:6015   */\n      tag_120\n      jump\t// in\n    tag_192:\n        /* \"#utility.yul\":6025:6097   */\n      tag_193\n        /* \"#utility.yul\":6093:6095   */\n      0x20\n        /* \"#utility.yul\":6082:6091   */\n      dup4\n        /* \"#utility.yul\":6078:6096   */\n      add\n        /* \"#utility.yul\":6069:6075   */\n      dup5\n        /* \"#utility.yul\":6025:6097   */\n      tag_106\n      jump\t// in\n    tag_193:\n        /* \"#utility.yul\":5772:6104   */\n      swap4\n      swap3\n      pop\n      pop\n      pop\n      jump\t// out\n        /* \"#utility.yul\":6110:6200   */\n    tag_121:\n        /* \"#utility.yul\":6144:6151   */\n      0x00\n        /* \"#utility.yul\":6187:6192   */\n      dup2\n        /* \"#utility.yul\":6180:6193   */\n      iszero\n        /* \"#utility.yul\":6173:6194   */\n      iszero\n        /* \"#utility.yul\":6162:6194   */\n      swap1\n      pop\n        /* \"#utility.yul\":6110:6200   */\n      swap2\n      swap1\n      pop\n      jump\t// out\n        /* \"#utility.yul\":6206:6322   */\n    tag_122:\n        /* \"#utility.yul\":6276:6297   */\n      tag_196\n        /* \"#utility.yul\":6291:6296   */\n      dup2\n        /* \"#utility.yul\":6276:6297   */\n      tag_121\n      jump\t// in\n    tag_196:\n        /* \"#utility.yul\":6269:6274   */\n      dup2\n        /* \"#utility.yul\":6266:6298   */\n      eq\n        /* \"#utility.yul\":6256:6316   */\n      tag_197\n      jumpi\n        /* \"#utility.yul\":6312:6313   */\n      0x00\n        /* \"#utility.yul\":6309:6310   */\n      dup1\n        /* \"#utility.yul\":6302:6314   */\n      revert\n        /* \"#utility.yul\":6256:6316   */\n    tag_197:\n        /* \"#utility.yul\":6206:6322   */\n      pop\n      jump\t// out\n        /* \"#utility.yul\":6328:6465   */\n    tag_123:\n        /* \"#utility.yul\":6382:6387   */\n      0x00\n        /* \"#utility.yul\":6413:6419   */\n      dup2\n        /* \"#utility.yul\":6407:6420   */\n      mload\n        /* \"#utility.yul\":6398:6420   */\n      swap1\n      pop\n        /* \"#utility.yul\":6429:6459   */\n      tag_199\n        /* \"#utility.yul\":6453:6458   */\n      dup2\n        /* \"#utility.yul\":6429:6459   */\n      tag_122\n      jump\t// in\n    tag_199:\n        /* \"#utility.yul\":6328:6465   */\n      swap3\n      swap2\n      pop\n      pop\n      jump\t// out\n        /* \"#utility.yul\":6471:6816   */\n    tag_63:\n        /* \"#utility.yul\":6538:6544   */\n      0x00\n        /* \"#utility.yul\":6587:6589   */\n      0x20\n        /* \"#utility.yul\":6575:6584   */\n      dup3\n        /* \"#utility.yul\":6566:6573   */\n      dup5\n        /* \"#utility.yul\":6562:6585   */\n      sub\n        /* \"#utility.yul\":6558:6590   */\n      slt\n        /* \"#utility.yul\":6555:6674   */\n      iszero\n      tag_201\n      jumpi\n        /* \"#utility.yul\":6593:6672   */\n      tag_202\n      tag_99\n      jump\t// in\n    tag_202:\n        /* \"#utility.yul\":6555:6674   */\n    tag_201:\n        /* \"#utility.yul\":6713:6714   */\n      0x00\n        /* \"#utility.yul\":6738:6799   */\n      tag_203\n        /* \"#utility.yul\":6791:6798   */\n      dup5\n        /* \"#utility.yul\":6782:6788   */\n      dup3\n        /* \"#utility.yul\":6771:6780   */\n      dup6\n        /* \"#utility.yul\":6767:6789   */\n      add\n        /* \"#utility.yul\":6738:6799   */\n      tag_123\n      jump\t// in\n    tag_203:\n        /* \"#utility.yul\":6728:6799   */\n      swap2\n      pop\n        /* \"#utility.yul\":6684:6809   */\n      pop\n        /* \"#utility.yul\":6471:6816   */\n      swap3\n      swap2\n      pop\n      pop\n      jump\t// out\n        /* \"#utility.yul\":6822:7232   */\n    tag_67:\n        /* \"#utility.yul\":6862:6869   */\n      0x00\n        /* \"#utility.yul\":6885:6905   */\n      tag_205\n        /* \"#utility.yul\":6903:6904   */\n      dup3\n        /* \"#utility.yul\":6885:6905   */\n      tag_105\n      jump\t// in\n    tag_205:\n        /* \"#utility.yul\":6880:6905   */\n      swap2\n      pop\n        /* \"#utility.yul\":6919:6939   */\n      tag_206\n        /* \"#utility.yul\":6937:6938   */\n      dup4\n        /* \"#utility.yul\":6919:6939   */\n      tag_105\n      jump\t// in\n    tag_206:\n        /* \"#utility.yul\":6914:6939   */\n      swap3\n      pop\n        /* \"#utility.yul\":6974:6975   */\n      dup3\n        /* \"#utility.yul\":6971:6972   */\n      dup3\n        /* \"#utility.yul\":6967:6976   */\n      mul\n        /* \"#utility.yul\":6996:7026   */\n      tag_207\n        /* \"#utility.yul\":7014:7025   */\n      dup2\n        /* \"#utility.yul\":6996:7026   */\n      tag_105\n      jump\t// in\n    tag_207:\n        /* \"#utility.yul\":6985:7026   */\n      swap2\n      pop\n        /* \"#utility.yul\":7175:7176   */\n      dup3\n        /* \"#utility.yul\":7166:7173   */\n      dup3\n        /* \"#utility.yul\":7162:7177   */\n      div\n        /* \"#utility.yul\":7159:7160   */\n      dup5\n        /* \"#utility.yul\":7156:7178   */\n      eq\n        /* \"#utility.yul\":7136:7137   */\n      dup4\n        /* \"#utility.yul\":7129:7138   */\n      iszero\n        /* \"#utility.yul\":7109:7192   */\n      or\n        /* \"#utility.yul\":7086:7225   */\n      tag_208\n      jumpi\n        /* \"#utility.yul\":7205:7223   */\n      tag_209\n      tag_119\n      jump\t// in\n    tag_209:\n        /* \"#utility.yul\":7086:7225   */\n    tag_208:\n        /* \"#utility.yul\":6870:7232   */\n      pop\n        /* \"#utility.yul\":6822:7232   */\n      swap3\n      swap2\n      pop\n      pop\n      jump\t// out\n        /* \"#utility.yul\":7238:7418   */\n    tag_124:\n        /* \"#utility.yul\":7286:7363   */\n      0x4e487b7100000000000000000000000000000000000000000000000000000000\n        /* \"#utility.yul\":7283:7284   */\n      0x00\n        /* \"#utility.yul\":7276:7364   */\n      mstore\n        /* \"#utility.yul\":7383:7387   */\n      0x12\n        /* \"#utility.yul\":7380:7381   */\n      0x04\n        /* \"#utility.yul\":7373:7388   */\n      mstore\n        /* \"#utility.yul\":7407:7411   */\n      0x24\n        /* \"#utility.yul\":7404:7405   */\n      0x00\n        /* \"#utility.yul\":7397:7412   */\n      revert\n        /* \"#utility.yul\":7424:7609   */\n    tag_70:\n        /* \"#utility.yul\":7464:7465   */\n      0x00\n        /* \"#utility.yul\":7481:7501   */\n      tag_212\n        /* \"#utility.yul\":7499:7500   */\n      dup3\n        /* \"#utility.yul\":7481:7501   */\n      tag_105\n      jump\t// in\n    tag_212:\n        /* \"#utility.yul\":7476:7501   */\n      swap2\n      pop\n        /* \"#utility.yul\":7515:7535   */\n      tag_213\n        /* \"#utility.yul\":7533:7534   */\n      dup4\n        /* \"#utility.yul\":7515:7535   */\n      tag_105\n      jump\t// in\n    tag_213:\n        /* \"#utility.yul\":7510:7535   */\n      swap3\n      pop\n        /* \"#utility.yul\":7554:7555   */\n      dup3\n        /* \"#utility.yul\":7544:7579   */\n      tag_214\n      jumpi\n        /* \"#utility.yul\":7559:7577   */\n      tag_215\n      tag_124\n      jump\t// in\n    tag_215:\n        /* \"#utility.yul\":7544:7579   */\n    tag_214:\n        /* \"#utility.yul\":7601:7602   */\n      dup3\n        /* \"#utility.yul\":7598:7599   */\n      dup3\n        /* \"#utility.yul\":7594:7603   */\n      div\n        /* \"#utility.yul\":7589:7603   */\n      swap1\n      pop\n        /* \"#utility.yul\":7424:7609   */\n      swap3\n      swap2\n      pop\n      pop\n      jump\t// out\n        /* \"#utility.yul\":7615:7806   */\n    tag_72:\n        /* \"#utility.yul\":7655:7658   */\n      0x00\n        /* \"#utility.yul\":7674:7694   */\n      tag_217\n        /* \"#utility.yul\":7692:7693   */\n      dup3\n        /* \"#utility.yul\":7674:7694   */\n      tag_105\n      jump\t// in\n    tag_217:\n        /* \"#utility.yul\":7669:7694   */\n      swap2\n      pop\n        /* \"#utility.yul\":7708:7728   */\n      tag_218\n        /* \"#utility.yul\":7726:7727   */\n      dup4\n        /* \"#utility.yul\":7708:7728   */\n      tag_105\n      jump\t// in\n    tag_218:\n        /* \"#utility.yul\":7703:7728   */\n      swap3\n      pop\n        /* \"#utility.yul\":7751:7752   */\n      dup3\n        /* \"#utility.yul\":7748:7749   */\n      dup3\n        /* \"#utility.yul\":7744:7753   */\n      add\n        /* \"#utility.yul\":7737:7753   */\n      swap1\n      pop\n        /* \"#utility.yul\":7772:7775   */\n      dup1\n        /* \"#utility.yul\":7769:7770   */\n      dup3\n        /* \"#utility.yul\":7766:7776   */\n      gt\n        /* \"#utility.yul\":7763:7799   */\n      iszero\n      tag_219\n      jumpi\n        /* \"#utility.yul\":7779:7797   */\n      tag_220\n      tag_119\n      jump\t// in\n    tag_220:\n        /* \"#utility.yul\":7763:7799   */\n    tag_219:\n        /* \"#utility.yul\":7615:7806   */\n      swap3\n      swap2\n      pop\n      pop\n      jump\t// out\n        /* \"#utility.yul\":7812:7981   */\n    tag_125:\n        /* \"#utility.yul\":7952:7973   */\n      0x4e6f207265776172647320746f20636c61696d00000000000000000000000000\n        /* \"#utility.yul\":7948:7949   */\n      0x00\n        /* \"#utility.yul\":7940:7946   */\n      dup3\n        /* \"#utility.yul\":7936:7950   */\n      add\n        /* \"#utility.yul\":7929:7974   */\n      mstore\n        /* \"#utility.yul\":7812:7981   */\n      pop\n      jump\t// out\n        /* \"#utility.yul\":7987:8353   */\n    tag_126:\n        /* \"#utility.yul\":8129:8132   */\n      0x00\n        /* \"#utility.yul\":8150:8217   */\n      tag_223\n        /* \"#utility.yul\":8214:8216   */\n      0x13\n        /* \"#utility.yul\":8209:8212   */\n      dup4\n        /* \"#utility.yul\":8150:8217   */\n      tag_114\n      jump\t// in\n    tag_223:\n        /* \"#utility.yul\":8143:8217   */\n      swap2\n      pop\n        /* \"#utility.yul\":8226:8319   */\n      tag_224\n        /* \"#utility.yul\":8315:8318   */\n      dup3\n        /* \"#utility.yul\":8226:8319   */\n      tag_125\n      jump\t// in\n    tag_224:\n        /* \"#utility.yul\":8344:8346   */\n      0x20\n        /* \"#utility.yul\":8339:8342   */\n      dup3\n        /* \"#utility.yul\":8335:8347   */\n      add\n        /* \"#utility.yul\":8328:8347   */\n      swap1\n      pop\n        /* \"#utility.yul\":7987:8353   */\n      swap2\n      swap1\n      pop\n      jump\t// out\n        /* \"#utility.yul\":8359:8778   */\n    tag_77:\n        /* \"#utility.yul\":8525:8529   */\n      0x00\n        /* \"#utility.yul\":8563:8565   */\n      0x20\n        /* \"#utility.yul\":8552:8561   */\n      dup3\n        /* \"#utility.yul\":8548:8566   */\n      add\n        /* \"#utility.yul\":8540:8566   */\n      swap1\n      pop\n        /* \"#utility.yul\":8612:8621   */\n      dup2\n        /* \"#utility.yul\":8606:8610   */\n      dup2\n        /* \"#utility.yul\":8602:8622   */\n      sub\n        /* \"#utility.yul\":8598:8599   */\n      0x00\n        /* \"#utility.yul\":8587:8596   */\n      dup4\n        /* \"#utility.yul\":8583:8600   */\n      add\n        /* \"#utility.yul\":8576:8623   */\n      mstore\n        /* \"#utility.yul\":8640:8771   */\n      tag_226\n        /* \"#utility.yul\":8766:8770   */\n      dup2\n        /* \"#utility.yul\":8640:8771   */\n      tag_126\n      jump\t// in\n    tag_226:\n        /* \"#utility.yul\":8632:8771   */\n      swap1\n      pop\n        /* \"#utility.yul\":8359:8778   */\n      swap2\n      swap1\n      pop\n      jump\t// out\n        /* \"#utility.yul\":8784:9226   */\n    tag_87:\n        /* \"#utility.yul\":8933:8937   */\n      0x00\n        /* \"#utility.yul\":8971:8973   */\n      0x60\n        /* \"#utility.yul\":8960:8969   */\n      dup3\n        /* \"#utility.yul\":8956:8974   */\n      add\n        /* \"#utility.yul\":8948:8974   */\n      swap1\n      pop\n        /* \"#utility.yul\":8984:9055   */\n      tag_228\n        /* \"#utility.yul\":9052:9053   */\n      0x00\n        /* \"#utility.yul\":9041:9050   */\n      dup4\n        /* \"#utility.yul\":9037:9054   */\n      add\n        /* \"#utility.yul\":9028:9034   */\n      dup7\n        /* \"#utility.yul\":8984:9055   */\n      tag_120\n      jump\t// in\n    tag_228:\n        /* \"#utility.yul\":9065:9137   */\n      tag_229\n        /* \"#utility.yul\":9133:9135   */\n      0x20\n        /* \"#utility.yul\":9122:9131   */\n      dup4\n        /* \"#utility.yul\":9118:9136   */\n      add\n        /* \"#utility.yul\":9109:9115   */\n      dup6\n        /* \"#utility.yul\":9065:9137   */\n      tag_120\n      jump\t// in\n    tag_229:\n        /* \"#utility.yul\":9147:9219   */\n      tag_230\n        /* \"#utility.yul\":9215:9217   */\n      0x40\n        /* \"#utility.yul\":9204:9213   */\n      dup4\n        /* \"#utility.yul\":9200:9218   */\n      add\n        /* \"#utility.yul\":9191:9197   */\n      dup5\n        /* \"#utility.yul\":9147:9219   */\n      tag_106\n      jump\t// in\n    tag_230:\n        /* \"#utility.yul\":8784:9226   */\n      swap5\n      swap4\n      pop\n      pop\n      pop\n      pop\n      jump\t// out\n\n    auxdata: 0xa2646970667358221220142771bc8aa72d865af30779b8d3c18dd58e4c3efbed33e2892135f3b6ff109364736f6c634300081a0033\n}\n",
				"bytecode": {
					"linkReferences": {},
					"object": "6080604052670de0b6b3a764000060015534801561001b575f80fd5b50604051610f66380380610f66833981810160405281019061003d91906100f1565b805f806101000a81548173ffffffffffffffffffffffffffffffffffffffff021916908373ffffffffffffffffffffffffffffffffffffffff1602179055505061011c565b5f80fd5b5f73ffffffffffffffffffffffffffffffffffffffff82169050919050565b5f6100af82610086565b9050919050565b5f6100c0826100a5565b9050919050565b6100d0816100b6565b81146100da575f80fd5b50565b5f815190506100eb816100c7565b92915050565b5f6020828403121561010657610105610082565b5b5f610113848285016100dd565b91505092915050565b610e3d806101295f395ff3fe608060405234801561000f575f80fd5b5060043610610091575f3560e01c80635873eb9b116100645780635873eb9b1461011b5780635d773b2c1461014b57806372f702f314610169578063b6b55f2514610187578063c57a202c146101a357610091565b806327e235e3146100955780632e1a7d4d146100c557806331d7a262146100e1578063372500ab14610111575b5f80fd5b6100af60048036038101906100aa919061099e565b6101d3565b6040516100bc91906109e1565b60405180910390f35b6100df60048036038101906100da9190610a24565b6101e8565b005b6100fb60048036038101906100f6919061099e565b6103a4565b60405161010891906109e1565b60405180910390f35b6101196104af565b005b6101356004803603810190610130919061099e565b61061b565b60405161014291906109e1565b60405180910390f35b610153610630565b60405161016091906109e1565b60405180910390f35b610171610636565b60405161017e9190610aaa565b60405180910390f35b6101a1600480360381019061019c9190610a24565b610659565b005b6101bd60048036038101906101b8919061099e565b6107d9565b6040516101ca91906109e1565b60405180910390f35b6002602052805f5260405f205f915090505481565b5f811161022a576040517f08c379a000000000000000000000000000000000000000000000000000000000815260040161022190610b1d565b60405180910390fd5b8060025f3373ffffffffffffffffffffffffffffffffffffffff1673ffffffffffffffffffffffffffffffffffffffff1681526020019081526020015f205410156102aa576040517f08c379a00000000000000000000000000000000000000000000000000000000081526004016102a190610b85565b60405180910390fd5b6102b3336107ee565b8060025f3373ffffffffffffffffffffffffffffffffffffffff1673ffffffffffffffffffffffffffffffffffffffff1681526020019081526020015f205f8282546102ff9190610bd0565b925050819055505f8054906101000a900473ffffffffffffffffffffffffffffffffffffffff1673ffffffffffffffffffffffffffffffffffffffff1663a9059cbb33836040518363ffffffff1660e01b8152600401610360929190610c12565b6020604051808303815f875af115801561037c573d5f803e3d5ffd5b505050506040513d601f19601f820116820180604052508101906103a09190610c6e565b5050565b5f8060045f8473ffffffffffffffffffffffffffffffffffffffff1673ffffffffffffffffffffffffffffffffffffffff1681526020019081526020015f2054426103ef9190610bd0565b90505f670de0b6b3a76400008260015460025f8873ffffffffffffffffffffffffffffffffffffffff1673ffffffffffffffffffffffffffffffffffffffff1681526020019081526020015f20546104479190610c99565b6104519190610c99565b61045b9190610d07565b90508060035f8673ffffffffffffffffffffffffffffffffffffffff1673ffffffffffffffffffffffffffffffffffffffff1681526020019081526020015f20546104a69190610d37565b92505050919050565b6104b8336107ee565b5f60035f3373ffffffffffffffffffffffffffffffffffffffff1673ffffffffffffffffffffffffffffffffffffffff1681526020019081526020015f205490505f811161053b576040517f08c379a000000000000000000000000000000000000000000000000000000000815260040161053290610db4565b60405180910390fd5b5f60035f3373ffffffffffffffffffffffffffffffffffffffff1673ffffffffffffffffffffffffffffffffffffffff1681526020019081526020015f20819055505f8054906101000a900473ffffffffffffffffffffffffffffffffffffffff1673ffffffffffffffffffffffffffffffffffffffff1663a9059cbb33836040518363ffffffff1660e01b81526004016105d7929190610c12565b6020604051808303815f875af11580156105f3573d5f803e3d5ffd5b505050506040513d601f19601f820116820180604052508101906106179190610c6e565b5050565b6003602052805f5260405f205f915090505481565b60015481565b5f8054906101000a900473ffffffffffffffffffffffffffffffffffffffff1681565b5f811161069b576040517f08c379a000000000000000000000000000000000000000000000000000000000815260040161069290610b1d565b60405180910390fd5b6106a4336107ee565b5f8054906101000a900473ffffffffffffffffffffffffffffffffffffffff1673ffffffffffffffffffffffffffffffffffffffff166323b872dd3330846040518463ffffffff1660e01b815260040161070093929190610dd2565b6020604051808303815f875af115801561071c573d5f803e3d5ffd5b505050506040513d601f19601f820116820180604052508101906107409190610c6e565b508060025f3373ffffffffffffffffffffffffffffffffffffffff1673ffffffffffffffffffffffffffffffffffffffff1681526020019081526020015f205f82825461078d9190610d37565b925050819055504260045f3373ffffffffffffffffffffffffffffffffffffffff1673ffffffffffffffffffffffffffffffffffffffff1681526020019081526020015f208190555050565b6004602052805f5260405f205f915090505481565b5f60045f8373ffffffffffffffffffffffffffffffffffffffff1673ffffffffffffffffffffffffffffffffffffffff1681526020019081526020015f2054426108389190610bd0565b90505f670de0b6b3a76400008260015460025f8773ffffffffffffffffffffffffffffffffffffffff1673ffffffffffffffffffffffffffffffffffffffff1681526020019081526020015f20546108909190610c99565b61089a9190610c99565b6108a49190610d07565b90508060035f8573ffffffffffffffffffffffffffffffffffffffff1673ffffffffffffffffffffffffffffffffffffffff1681526020019081526020015f205f8282546108f29190610d37565b925050819055504260045f8573ffffffffffffffffffffffffffffffffffffffff1673ffffffffffffffffffffffffffffffffffffffff1681526020019081526020015f2081905550505050565b5f80fd5b5f73ffffffffffffffffffffffffffffffffffffffff82169050919050565b5f61096d82610944565b9050919050565b61097d81610963565b8114610987575f80fd5b50565b5f8135905061099881610974565b92915050565b5f602082840312156109b3576109b2610940565b5b5f6109c08482850161098a565b91505092915050565b5f819050919050565b6109db816109c9565b82525050565b5f6020820190506109f45f8301846109d2565b92915050565b610a03816109c9565b8114610a0d575f80fd5b50565b5f81359050610a1e816109fa565b92915050565b5f60208284031215610a3957610a38610940565b5b5f610a4684828501610a10565b91505092915050565b5f819050919050565b5f610a72610a6d610a6884610944565b610a4f565b610944565b9050919050565b5f610a8382610a58565b9050919050565b5f610a9482610a79565b9050919050565b610aa481610a8a565b82525050565b5f602082019050610abd5f830184610a9b565b92915050565b5f82825260208201905092915050565b7f416d6f756e74206d7573742062652067726561746572207468616e20300000005f82015250565b5f610b07601d83610ac3565b9150610b1282610ad3565b602082019050919050565b5f6020820190508181035f830152610b3481610afb565b9050919050565b7f496e73756666696369656e742062616c616e63650000000000000000000000005f82015250565b5f610b6f601483610ac3565b9150610b7a82610b3b565b602082019050919050565b5f6020820190508181035f830152610b9c81610b63565b9050919050565b7f4e487b71000000000000000000000000000000000000000000000000000000005f52601160045260245ffd5b5f610bda826109c9565b9150610be5836109c9565b9250828203905081811115610bfd57610bfc610ba3565b5b92915050565b610c0c81610963565b82525050565b5f604082019050610c255f830185610c03565b610c3260208301846109d2565b9392505050565b5f8115159050919050565b610c4d81610c39565b8114610c57575f80fd5b50565b5f81519050610c6881610c44565b92915050565b5f60208284031215610c8357610c82610940565b5b5f610c9084828501610c5a565b91505092915050565b5f610ca3826109c9565b9150610cae836109c9565b9250828202610cbc816109c9565b91508282048414831517610cd357610cd2610ba3565b5b5092915050565b7f4e487b71000000000000000000000000000000000000000000000000000000005f52601260045260245ffd5b5f610d11826109c9565b9150610d1c836109c9565b925082610d2c57610d2b610cda565b5b828204905092915050565b5f610d41826109c9565b9150610d4c836109c9565b9250828201905080821115610d6457610d63610ba3565b5b92915050565b7f4e6f207265776172647320746f20636c61696d000000000000000000000000005f82015250565b5f610d9e601383610ac3565b9150610da982610d6a565b602082019050919050565b5f6020820190508181035f830152610dcb81610d92565b9050919050565b5f606082019050610de55f830186610c03565b610df26020830185610c03565b610dff60408301846109d2565b94935050505056fea2646970667358221220142771bc8aa72d865af30779b8d3c18dd58e4c3efbed33e2892135f3b6ff109364736f6c634300081a0033",
					"opcodes": "PUSH1 0x80 PUSH1 0x40 MSTORE PUSH8 0xDE0B6B3A7640000 PUSH1 0x1 SSTORE CALLVALUE DUP1 ISZERO PUSH2 0x1B JUMPI PUSH0 DUP1 REVERT JUMPDEST POP PUSH1 0x40 MLOAD PUSH2 0xF66 CODESIZE SUB DUP1 PUSH2 0xF66 DUP4 CODECOPY DUP2 DUP2 ADD PUSH1 0x40 MSTORE DUP2 ADD SWAP1 PUSH2 0x3D SWAP2 SWAP1 PUSH2 0xF1 JUMP JUMPDEST DUP1 PUSH0 DUP1 PUSH2 0x100 EXP DUP2 SLOAD DUP2 PUSH20 0xFFFFFFFFFFFFFFFFFFFFFFFFFFFFFFFFFFFFFFFF MUL NOT AND SWAP1 DUP4 PUSH20 0xFFFFFFFFFFFFFFFFFFFFFFFFFFFFFFFFFFFFFFFF AND MUL OR SWAP1 SSTORE POP POP PUSH2 0x11C JUMP JUMPDEST PUSH0 DUP1 REVERT JUMPDEST PUSH0 PUSH20 0xFFFFFFFFFFFFFFFFFFFFFFFFFFFFFFFFFFFFFFFF DUP3 AND SWAP1 POP SWAP2 SWAP1 POP JUMP JUMPDEST PUSH0 PUSH2 0xAF DUP3 PUSH2 0x86 JUMP JUMPDEST SWAP1 POP SWAP2 SWAP1 POP JUMP JUMPDEST PUSH0 PUSH2 0xC0 DUP3 PUSH2 0xA5 JUMP JUMPDEST SWAP1 POP SWAP2 SWAP1 POP JUMP JUMPDEST PUSH2 0xD0 DUP2 PUSH2 0xB6 JUMP JUMPDEST DUP2 EQ PUSH2 0xDA JUMPI PUSH0 DUP1 REVERT JUMPDEST POP JUMP JUMPDEST PUSH0 DUP2 MLOAD SWAP1 POP PUSH2 0xEB DUP2 PUSH2 0xC7 JUMP JUMPDEST SWAP3 SWAP2 POP POP JUMP JUMPDEST PUSH0 PUSH1 0x20 DUP3 DUP5 SUB SLT ISZERO PUSH2 0x106 JUMPI PUSH2 0x105 PUSH2 0x82 JUMP JUMPDEST JUMPDEST PUSH0 PUSH2 0x113 DUP5 DUP3 DUP6 ADD PUSH2 0xDD JUMP JUMPDEST SWAP2 POP POP SWAP3 SWAP2 POP POP JUMP JUMPDEST PUSH2 0xE3D DUP1 PUSH2 0x129 PUSH0 CODECOPY PUSH0 RETURN INVALID PUSH1 0x80 PUSH1 0x40 MSTORE CALLVALUE DUP1 ISZERO PUSH2 0xF JUMPI PUSH0 DUP1 REVERT JUMPDEST POP PUSH1 0x4 CALLDATASIZE LT PUSH2 0x91 JUMPI PUSH0 CALLDATALOAD PUSH1 0xE0 SHR DUP1 PUSH4 0x5873EB9B GT PUSH2 0x64 JUMPI DUP1 PUSH4 0x5873EB9B EQ PUSH2 0x11B JUMPI DUP1 PUSH4 0x5D773B2C EQ PUSH2 0x14B JUMPI DUP1 PUSH4 0x72F702F3 EQ PUSH2 0x169 JUMPI DUP1 PUSH4 0xB6B55F25 EQ PUSH2 0x187 JUMPI DUP1 PUSH4 0xC57A202C EQ PUSH2 0x1A3 JUMPI PUSH2 0x91 JUMP JUMPDEST DUP1 PUSH4 0x27E235E3 EQ PUSH2 0x95 JUMPI DUP1 PUSH4 0x2E1A7D4D EQ PUSH2 0xC5 JUMPI DUP1 PUSH4 0x31D7A262 EQ PUSH2 0xE1 JUMPI DUP1 PUSH4 0x372500AB EQ PUSH2 0x111 JUMPI JUMPDEST PUSH0 DUP1 REVERT JUMPDEST PUSH2 0xAF PUSH1 0x4 DUP1 CALLDATASIZE SUB DUP2 ADD SWAP1 PUSH2 0xAA SWAP2 SWAP1 PUSH2 0x99E JUMP JUMPDEST PUSH2 0x1D3 JUMP JUMPDEST PUSH1 0x40 MLOAD PUSH2 0xBC SWAP2 SWAP1 PUSH2 0x9E1 JUMP JUMPDEST PUSH1 0x40 MLOAD DUP1 SWAP2 SUB SWAP1 RETURN JUMPDEST PUSH2 0xDF PUSH1 0x4 DUP1 CALLDATASIZE SUB DUP2 ADD SWAP1 PUSH2 0xDA SWAP2 SWAP1 PUSH2 0xA24 JUMP JUMPDEST PUSH2 0x1E8 JUMP JUMPDEST STOP JUMPDEST PUSH2 0xFB PUSH1 0x4 DUP1 CALLDATASIZE SUB DUP2 ADD SWAP1 PUSH2 0xF6 SWAP2 SWAP1 PUSH2 0x99E JUMP JUMPDEST PUSH2 0x3A4 JUMP JUMPDEST PUSH1 0x40 MLOAD PUSH2 0x108 SWAP2 SWAP1 PUSH2 0x9E1 JUMP JUMPDEST PUSH1 0x40 MLOAD DUP1 SWAP2 SUB SWAP1 RETURN JUMPDEST PUSH2 0x119 PUSH2 0x4AF JUMP JUMPDEST STOP JUMPDEST PUSH2 0x135 PUSH1 0x4 DUP1 CALLDATASIZE SUB DUP2 ADD SWAP1 PUSH2 0x130 SWAP2 SWAP1 PUSH2 0x99E JUMP JUMPDEST PUSH2 0x61B JUMP JUMPDEST PUSH1 0x40 MLOAD PUSH2 0x142 SWAP2 SWAP1 PUSH2 0x9E1 JUMP JUMPDEST PUSH1 0x40 MLOAD DUP1 SWAP2 SUB SWAP1 RETURN JUMPDEST PUSH2 0x153 PUSH2 0x630 JUMP JUMPDEST PUSH1 0x40 MLOAD PUSH2 0x160 SWAP2 SWAP1 PUSH2 0x9E1 JUMP JUMPDEST PUSH1 0x40 MLOAD DUP1 SWAP2 SUB SWAP1 RETURN JUMPDEST PUSH2 0x171 PUSH2 0x636 JUMP JUMPDEST PUSH1 0x40 MLOAD PUSH2 0x17E SWAP2 SWAP1 PUSH2 0xAAA JUMP JUMPDEST PUSH1 0x40 MLOAD DUP1 SWAP2 SUB SWAP1 RETURN JUMPDEST PUSH2 0x1A1 PUSH1 0x4 DUP1 CALLDATASIZE SUB DUP2 ADD SWAP1 PUSH2 0x19C SWAP2 SWAP1 PUSH2 0xA24 JUMP JUMPDEST PUSH2 0x659 JUMP JUMPDEST STOP JUMPDEST PUSH2 0x1BD PUSH1 0x4 DUP1 CALLDATASIZE SUB DUP2 ADD SWAP1 PUSH2 0x1B8 SWAP2 SWAP1 PUSH2 0x99E JUMP JUMPDEST PUSH2 0x7D9 JUMP JUMPDEST PUSH1 0x40 MLOAD PUSH2 0x1CA SWAP2 SWAP1 PUSH2 0x9E1 JUMP JUMPDEST PUSH1 0x40 MLOAD DUP1 SWAP2 SUB SWAP1 RETURN JUMPDEST PUSH1 0x2 PUSH1 0x20 MSTORE DUP1 PUSH0 MSTORE PUSH1 0x40 PUSH0 KECCAK256 PUSH0 SWAP2 POP SWAP1 POP SLOAD DUP2 JUMP JUMPDEST PUSH0 DUP2 GT PUSH2 0x22A JUMPI PUSH1 0x40 MLOAD PUSH32 0x8C379A000000000000000000000000000000000000000000000000000000000 DUP2 MSTORE PUSH1 0x4 ADD PUSH2 0x221 SWAP1 PUSH2 0xB1D JUMP JUMPDEST PUSH1 0x40 MLOAD DUP1 SWAP2 SUB SWAP1 REVERT JUMPDEST DUP1 PUSH1 0x2 PUSH0 CALLER PUSH20 0xFFFFFFFFFFFFFFFFFFFFFFFFFFFFFFFFFFFFFFFF AND PUSH20 0xFFFFFFFFFFFFFFFFFFFFFFFFFFFFFFFFFFFFFFFF AND DUP2 MSTORE PUSH1 0x20 ADD SWAP1 DUP2 MSTORE PUSH1 0x20 ADD PUSH0 KECCAK256 SLOAD LT ISZERO PUSH2 0x2AA JUMPI PUSH1 0x40 MLOAD PUSH32 0x8C379A000000000000000000000000000000000000000000000000000000000 DUP2 MSTORE PUSH1 0x4 ADD PUSH2 0x2A1 SWAP1 PUSH2 0xB85 JUMP JUMPDEST PUSH1 0x40 MLOAD DUP1 SWAP2 SUB SWAP1 REVERT JUMPDEST PUSH2 0x2B3 CALLER PUSH2 0x7EE JUMP JUMPDEST DUP1 PUSH1 0x2 PUSH0 CALLER PUSH20 0xFFFFFFFFFFFFFFFFFFFFFFFFFFFFFFFFFFFFFFFF AND PUSH20 0xFFFFFFFFFFFFFFFFFFFFFFFFFFFFFFFFFFFFFFFF AND DUP2 MSTORE PUSH1 0x20 ADD SWAP1 DUP2 MSTORE PUSH1 0x20 ADD PUSH0 KECCAK256 PUSH0 DUP3 DUP3 SLOAD PUSH2 0x2FF SWAP2 SWAP1 PUSH2 0xBD0 JUMP JUMPDEST SWAP3 POP POP DUP2 SWAP1 SSTORE POP PUSH0 DUP1 SLOAD SWAP1 PUSH2 0x100 EXP SWAP1 DIV PUSH20 0xFFFFFFFFFFFFFFFFFFFFFFFFFFFFFFFFFFFFFFFF AND PUSH20 0xFFFFFFFFFFFFFFFFFFFFFFFFFFFFFFFFFFFFFFFF AND PUSH4 0xA9059CBB CALLER DUP4 PUSH1 0x40 MLOAD DUP4 PUSH4 0xFFFFFFFF AND PUSH1 0xE0 SHL DUP2 MSTORE PUSH1 0x4 ADD PUSH2 0x360 SWAP3 SWAP2 SWAP1 PUSH2 0xC12 JUMP JUMPDEST PUSH1 0x20 PUSH1 0x40 MLOAD DUP1 DUP4 SUB DUP2 PUSH0 DUP8 GAS CALL ISZERO DUP1 ISZERO PUSH2 0x37C JUMPI RETURNDATASIZE PUSH0 DUP1 RETURNDATACOPY RETURNDATASIZE PUSH0 REVERT JUMPDEST POP POP POP POP PUSH1 0x40 MLOAD RETURNDATASIZE PUSH1 0x1F NOT PUSH1 0x1F DUP3 ADD AND DUP3 ADD DUP1 PUSH1 0x40 MSTORE POP DUP2 ADD SWAP1 PUSH2 0x3A0 SWAP2 SWAP1 PUSH2 0xC6E JUMP JUMPDEST POP POP JUMP JUMPDEST PUSH0 DUP1 PUSH1 0x4 PUSH0 DUP5 PUSH20 0xFFFFFFFFFFFFFFFFFFFFFFFFFFFFFFFFFFFFFFFF AND PUSH20 0xFFFFFFFFFFFFFFFFFFFFFFFFFFFFFFFFFFFFFFFF AND DUP2 MSTORE PUSH1 0x20 ADD SWAP1 DUP2 MSTORE PUSH1 0x20 ADD PUSH0 KECCAK256 SLOAD TIMESTAMP PUSH2 0x3EF SWAP2 SWAP1 PUSH2 0xBD0 JUMP JUMPDEST SWAP1 POP PUSH0 PUSH8 0xDE0B6B3A7640000 DUP3 PUSH1 0x1 SLOAD PUSH1 0x2 PUSH0 DUP9 PUSH20 0xFFFFFFFFFFFFFFFFFFFFFFFFFFFFFFFFFFFFFFFF AND PUSH20 0xFFFFFFFFFFFFFFFFFFFFFFFFFFFFFFFFFFFFFFFF AND DUP2 MSTORE PUSH1 0x20 ADD SWAP1 DUP2 MSTORE PUSH1 0x20 ADD PUSH0 KECCAK256 SLOAD PUSH2 0x447 SWAP2 SWAP1 PUSH2 0xC99 JUMP JUMPDEST PUSH2 0x451 SWAP2 SWAP1 PUSH2 0xC99 JUMP JUMPDEST PUSH2 0x45B SWAP2 SWAP1 PUSH2 0xD07 JUMP JUMPDEST SWAP1 POP DUP1 PUSH1 0x3 PUSH0 DUP7 PUSH20 0xFFFFFFFFFFFFFFFFFFFFFFFFFFFFFFFFFFFFFFFF AND PUSH20 0xFFFFFFFFFFFFFFFFFFFFFFFFFFFFFFFFFFFFFFFF AND DUP2 MSTORE PUSH1 0x20 ADD SWAP1 DUP2 MSTORE PUSH1 0x20 ADD PUSH0 KECCAK256 SLOAD PUSH2 0x4A6 SWAP2 SWAP1 PUSH2 0xD37 JUMP JUMPDEST SWAP3 POP POP POP SWAP2 SWAP1 POP JUMP JUMPDEST PUSH2 0x4B8 CALLER PUSH2 0x7EE JUMP JUMPDEST PUSH0 PUSH1 0x3 PUSH0 CALLER PUSH20 0xFFFFFFFFFFFFFFFFFFFFFFFFFFFFFFFFFFFFFFFF AND PUSH20 0xFFFFFFFFFFFFFFFFFFFFFFFFFFFFFFFFFFFFFFFF AND DUP2 MSTORE PUSH1 0x20 ADD SWAP1 DUP2 MSTORE PUSH1 0x20 ADD PUSH0 KECCAK256 SLOAD SWAP1 POP PUSH0 DUP2 GT PUSH2 0x53B JUMPI PUSH1 0x40 MLOAD PUSH32 0x8C379A000000000000000000000000000000000000000000000000000000000 DUP2 MSTORE PUSH1 0x4 ADD PUSH2 0x532 SWAP1 PUSH2 0xDB4 JUMP JUMPDEST PUSH1 0x40 MLOAD DUP1 SWAP2 SUB SWAP1 REVERT JUMPDEST PUSH0 PUSH1 0x3 PUSH0 CALLER PUSH20 0xFFFFFFFFFFFFFFFFFFFFFFFFFFFFFFFFFFFFFFFF AND PUSH20 0xFFFFFFFFFFFFFFFFFFFFFFFFFFFFFFFFFFFFFFFF AND DUP2 MSTORE PUSH1 0x20 ADD SWAP1 DUP2 MSTORE PUSH1 0x20 ADD PUSH0 KECCAK256 DUP2 SWAP1 SSTORE POP PUSH0 DUP1 SLOAD SWAP1 PUSH2 0x100 EXP SWAP1 DIV PUSH20 0xFFFFFFFFFFFFFFFFFFFFFFFFFFFFFFFFFFFFFFFF AND PUSH20 0xFFFFFFFFFFFFFFFFFFFFFFFFFFFFFFFFFFFFFFFF AND PUSH4 0xA9059CBB CALLER DUP4 PUSH1 0x40 MLOAD DUP4 PUSH4 0xFFFFFFFF AND PUSH1 0xE0 SHL DUP2 MSTORE PUSH1 0x4 ADD PUSH2 0x5D7 SWAP3 SWAP2 SWAP1 PUSH2 0xC12 JUMP JUMPDEST PUSH1 0x20 PUSH1 0x40 MLOAD DUP1 DUP4 SUB DUP2 PUSH0 DUP8 GAS CALL ISZERO DUP1 ISZERO PUSH2 0x5F3 JUMPI RETURNDATASIZE PUSH0 DUP1 RETURNDATACOPY RETURNDATASIZE PUSH0 REVERT JUMPDEST POP POP POP POP PUSH1 0x40 MLOAD RETURNDATASIZE PUSH1 0x1F NOT PUSH1 0x1F DUP3 ADD AND DUP3 ADD DUP1 PUSH1 0x40 MSTORE POP DUP2 ADD SWAP1 PUSH2 0x617 SWAP2 SWAP1 PUSH2 0xC6E JUMP JUMPDEST POP POP JUMP JUMPDEST PUSH1 0x3 PUSH1 0x20 MSTORE DUP1 PUSH0 MSTORE PUSH1 0x40 PUSH0 KECCAK256 PUSH0 SWAP2 POP SWAP1 POP SLOAD DUP2 JUMP JUMPDEST PUSH1 0x1 SLOAD DUP2 JUMP JUMPDEST PUSH0 DUP1 SLOAD SWAP1 PUSH2 0x100 EXP SWAP1 DIV PUSH20 0xFFFFFFFFFFFFFFFFFFFFFFFFFFFFFFFFFFFFFFFF AND DUP2 JUMP JUMPDEST PUSH0 DUP2 GT PUSH2 0x69B JUMPI PUSH1 0x40 MLOAD PUSH32 0x8C379A000000000000000000000000000000000000000000000000000000000 DUP2 MSTORE PUSH1 0x4 ADD PUSH2 0x692 SWAP1 PUSH2 0xB1D JUMP JUMPDEST PUSH1 0x40 MLOAD DUP1 SWAP2 SUB SWAP1 REVERT JUMPDEST PUSH2 0x6A4 CALLER PUSH2 0x7EE JUMP JUMPDEST PUSH0 DUP1 SLOAD SWAP1 PUSH2 0x100 EXP SWAP1 DIV PUSH20 0xFFFFFFFFFFFFFFFFFFFFFFFFFFFFFFFFFFFFFFFF AND PUSH20 0xFFFFFFFFFFFFFFFFFFFFFFFFFFFFFFFFFFFFFFFF AND PUSH4 0x23B872DD CALLER ADDRESS DUP5 PUSH1 0x40 MLOAD DUP5 PUSH4 0xFFFFFFFF AND PUSH1 0xE0 SHL DUP2 MSTORE PUSH1 0x4 ADD PUSH2 0x700 SWAP4 SWAP3 SWAP2 SWAP1 PUSH2 0xDD2 JUMP JUMPDEST PUSH1 0x20 PUSH1 0x40 MLOAD DUP1 DUP4 SUB DUP2 PUSH0 DUP8 GAS CALL ISZERO DUP1 ISZERO PUSH2 0x71C JUMPI RETURNDATASIZE PUSH0 DUP1 RETURNDATACOPY RETURNDATASIZE PUSH0 REVERT JUMPDEST POP POP POP POP PUSH1 0x40 MLOAD RETURNDATASIZE PUSH1 0x1F NOT PUSH1 0x1F DUP3 ADD AND DUP3 ADD DUP1 PUSH1 0x40 MSTORE POP DUP2 ADD SWAP1 PUSH2 0x740 SWAP2 SWAP1 PUSH2 0xC6E JUMP JUMPDEST POP DUP1 PUSH1 0x2 PUSH0 CALLER PUSH20 0xFFFFFFFFFFFFFFFFFFFFFFFFFFFFFFFFFFFFFFFF AND PUSH20 0xFFFFFFFFFFFFFFFFFFFFFFFFFFFFFFFFFFFFFFFF AND DUP2 MSTORE PUSH1 0x20 ADD SWAP1 DUP2 MSTORE PUSH1 0x20 ADD PUSH0 KECCAK256 PUSH0 DUP3 DUP3 SLOAD PUSH2 0x78D SWAP2 SWAP1 PUSH2 0xD37 JUMP JUMPDEST SWAP3 POP POP DUP2 SWAP1 SSTORE POP TIMESTAMP PUSH1 0x4 PUSH0 CALLER PUSH20 0xFFFFFFFFFFFFFFFFFFFFFFFFFFFFFFFFFFFFFFFF AND PUSH20 0xFFFFFFFFFFFFFFFFFFFFFFFFFFFFFFFFFFFFFFFF AND DUP2 MSTORE PUSH1 0x20 ADD SWAP1 DUP2 MSTORE PUSH1 0x20 ADD PUSH0 KECCAK256 DUP2 SWAP1 SSTORE POP POP JUMP JUMPDEST PUSH1 0x4 PUSH1 0x20 MSTORE DUP1 PUSH0 MSTORE PUSH1 0x40 PUSH0 KECCAK256 PUSH0 SWAP2 POP SWAP1 POP SLOAD DUP2 JUMP JUMPDEST PUSH0 PUSH1 0x4 PUSH0 DUP4 PUSH20 0xFFFFFFFFFFFFFFFFFFFFFFFFFFFFFFFFFFFFFFFF AND PUSH20 0xFFFFFFFFFFFFFFFFFFFFFFFFFFFFFFFFFFFFFFFF AND DUP2 MSTORE PUSH1 0x20 ADD SWAP1 DUP2 MSTORE PUSH1 0x20 ADD PUSH0 KECCAK256 SLOAD TIMESTAMP PUSH2 0x838 SWAP2 SWAP1 PUSH2 0xBD0 JUMP JUMPDEST SWAP1 POP PUSH0 PUSH8 0xDE0B6B3A7640000 DUP3 PUSH1 0x1 SLOAD PUSH1 0x2 PUSH0 DUP8 PUSH20 0xFFFFFFFFFFFFFFFFFFFFFFFFFFFFFFFFFFFFFFFF AND PUSH20 0xFFFFFFFFFFFFFFFFFFFFFFFFFFFFFFFFFFFFFFFF AND DUP2 MSTORE PUSH1 0x20 ADD SWAP1 DUP2 MSTORE PUSH1 0x20 ADD PUSH0 KECCAK256 SLOAD PUSH2 0x890 SWAP2 SWAP1 PUSH2 0xC99 JUMP JUMPDEST PUSH2 0x89A SWAP2 SWAP1 PUSH2 0xC99 JUMP JUMPDEST PUSH2 0x8A4 SWAP2 SWAP1 PUSH2 0xD07 JUMP JUMPDEST SWAP1 POP DUP1 PUSH1 0x3 PUSH0 DUP6 PUSH20 0xFFFFFFFFFFFFFFFFFFFFFFFFFFFFFFFFFFFFFFFF AND PUSH20 0xFFFFFFFFFFFFFFFFFFFFFFFFFFFFFFFFFFFFFFFF AND DUP2 MSTORE PUSH1 0x20 ADD SWAP1 DUP2 MSTORE PUSH1 0x20 ADD PUSH0 KECCAK256 PUSH0 DUP3 DUP3 SLOAD PUSH2 0x8F2 SWAP2 SWAP1 PUSH2 0xD37 JUMP JUMPDEST SWAP3 POP POP DUP2 SWAP1 SSTORE POP TIMESTAMP PUSH1 0x4 PUSH0 DUP6 PUSH20 0xFFFFFFFFFFFFFFFFFFFFFFFFFFFFFFFFFFFFFFFF AND PUSH20 0xFFFFFFFFFFFFFFFFFFFFFFFFFFFFFFFFFFFFFFFF AND DUP2 MSTORE PUSH1 0x20 ADD SWAP1 DUP2 MSTORE PUSH1 0x20 ADD PUSH0 KECCAK256 DUP2 SWAP1 SSTORE POP POP POP POP JUMP JUMPDEST PUSH0 DUP1 REVERT JUMPDEST PUSH0 PUSH20 0xFFFFFFFFFFFFFFFFFFFFFFFFFFFFFFFFFFFFFFFF DUP3 AND SWAP1 POP SWAP2 SWAP1 POP JUMP JUMPDEST PUSH0 PUSH2 0x96D DUP3 PUSH2 0x944 JUMP JUMPDEST SWAP1 POP SWAP2 SWAP1 POP JUMP JUMPDEST PUSH2 0x97D DUP2 PUSH2 0x963 JUMP JUMPDEST DUP2 EQ PUSH2 0x987 JUMPI PUSH0 DUP1 REVERT JUMPDEST POP JUMP JUMPDEST PUSH0 DUP2 CALLDATALOAD SWAP1 POP PUSH2 0x998 DUP2 PUSH2 0x974 JUMP JUMPDEST SWAP3 SWAP2 POP POP JUMP JUMPDEST PUSH0 PUSH1 0x20 DUP3 DUP5 SUB SLT ISZERO PUSH2 0x9B3 JUMPI PUSH2 0x9B2 PUSH2 0x940 JUMP JUMPDEST JUMPDEST PUSH0 PUSH2 0x9C0 DUP5 DUP3 DUP6 ADD PUSH2 0x98A JUMP JUMPDEST SWAP2 POP POP SWAP3 SWAP2 POP POP JUMP JUMPDEST PUSH0 DUP2 SWAP1 POP SWAP2 SWAP1 POP JUMP JUMPDEST PUSH2 0x9DB DUP2 PUSH2 0x9C9 JUMP JUMPDEST DUP3 MSTORE POP POP JUMP JUMPDEST PUSH0 PUSH1 0x20 DUP3 ADD SWAP1 POP PUSH2 0x9F4 PUSH0 DUP4 ADD DUP5 PUSH2 0x9D2 JUMP JUMPDEST SWAP3 SWAP2 POP POP JUMP JUMPDEST PUSH2 0xA03 DUP2 PUSH2 0x9C9 JUMP JUMPDEST DUP2 EQ PUSH2 0xA0D JUMPI PUSH0 DUP1 REVERT JUMPDEST POP JUMP JUMPDEST PUSH0 DUP2 CALLDATALOAD SWAP1 POP PUSH2 0xA1E DUP2 PUSH2 0x9FA JUMP JUMPDEST SWAP3 SWAP2 POP POP JUMP JUMPDEST PUSH0 PUSH1 0x20 DUP3 DUP5 SUB SLT ISZERO PUSH2 0xA39 JUMPI PUSH2 0xA38 PUSH2 0x940 JUMP JUMPDEST JUMPDEST PUSH0 PUSH2 0xA46 DUP5 DUP3 DUP6 ADD PUSH2 0xA10 JUMP JUMPDEST SWAP2 POP POP SWAP3 SWAP2 POP POP JUMP JUMPDEST PUSH0 DUP2 SWAP1 POP SWAP2 SWAP1 POP JUMP JUMPDEST PUSH0 PUSH2 0xA72 PUSH2 0xA6D PUSH2 0xA68 DUP5 PUSH2 0x944 JUMP JUMPDEST PUSH2 0xA4F JUMP JUMPDEST PUSH2 0x944 JUMP JUMPDEST SWAP1 POP SWAP2 SWAP1 POP JUMP JUMPDEST PUSH0 PUSH2 0xA83 DUP3 PUSH2 0xA58 JUMP JUMPDEST SWAP1 POP SWAP2 SWAP1 POP JUMP JUMPDEST PUSH0 PUSH2 0xA94 DUP3 PUSH2 0xA79 JUMP JUMPDEST SWAP1 POP SWAP2 SWAP1 POP JUMP JUMPDEST PUSH2 0xAA4 DUP2 PUSH2 0xA8A JUMP JUMPDEST DUP3 MSTORE POP POP JUMP JUMPDEST PUSH0 PUSH1 0x20 DUP3 ADD SWAP1 POP PUSH2 0xABD PUSH0 DUP4 ADD DUP5 PUSH2 0xA9B JUMP JUMPDEST SWAP3 SWAP2 POP POP JUMP JUMPDEST PUSH0 DUP3 DUP3 MSTORE PUSH1 0x20 DUP3 ADD SWAP1 POP SWAP3 SWAP2 POP POP JUMP JUMPDEST PUSH32 0x416D6F756E74206D7573742062652067726561746572207468616E2030000000 PUSH0 DUP3 ADD MSTORE POP JUMP JUMPDEST PUSH0 PUSH2 0xB07 PUSH1 0x1D DUP4 PUSH2 0xAC3 JUMP JUMPDEST SWAP2 POP PUSH2 0xB12 DUP3 PUSH2 0xAD3 JUMP JUMPDEST PUSH1 0x20 DUP3 ADD SWAP1 POP SWAP2 SWAP1 POP JUMP JUMPDEST PUSH0 PUSH1 0x20 DUP3 ADD SWAP1 POP DUP2 DUP2 SUB PUSH0 DUP4 ADD MSTORE PUSH2 0xB34 DUP2 PUSH2 0xAFB JUMP JUMPDEST SWAP1 POP SWAP2 SWAP1 POP JUMP JUMPDEST PUSH32 0x496E73756666696369656E742062616C616E6365000000000000000000000000 PUSH0 DUP3 ADD MSTORE POP JUMP JUMPDEST PUSH0 PUSH2 0xB6F PUSH1 0x14 DUP4 PUSH2 0xAC3 JUMP JUMPDEST SWAP2 POP PUSH2 0xB7A DUP3 PUSH2 0xB3B JUMP JUMPDEST PUSH1 0x20 DUP3 ADD SWAP1 POP SWAP2 SWAP1 POP JUMP JUMPDEST PUSH0 PUSH1 0x20 DUP3 ADD SWAP1 POP DUP2 DUP2 SUB PUSH0 DUP4 ADD MSTORE PUSH2 0xB9C DUP2 PUSH2 0xB63 JUMP JUMPDEST SWAP1 POP SWAP2 SWAP1 POP JUMP JUMPDEST PUSH32 0x4E487B7100000000000000000000000000000000000000000000000000000000 PUSH0 MSTORE PUSH1 0x11 PUSH1 0x4 MSTORE PUSH1 0x24 PUSH0 REVERT JUMPDEST PUSH0 PUSH2 0xBDA DUP3 PUSH2 0x9C9 JUMP JUMPDEST SWAP2 POP PUSH2 0xBE5 DUP4 PUSH2 0x9C9 JUMP JUMPDEST SWAP3 POP DUP3 DUP3 SUB SWAP1 POP DUP2 DUP2 GT ISZERO PUSH2 0xBFD JUMPI PUSH2 0xBFC PUSH2 0xBA3 JUMP JUMPDEST JUMPDEST SWAP3 SWAP2 POP POP JUMP JUMPDEST PUSH2 0xC0C DUP2 PUSH2 0x963 JUMP JUMPDEST DUP3 MSTORE POP POP JUMP JUMPDEST PUSH0 PUSH1 0x40 DUP3 ADD SWAP1 POP PUSH2 0xC25 PUSH0 DUP4 ADD DUP6 PUSH2 0xC03 JUMP JUMPDEST PUSH2 0xC32 PUSH1 0x20 DUP4 ADD DUP5 PUSH2 0x9D2 JUMP JUMPDEST SWAP4 SWAP3 POP POP POP JUMP JUMPDEST PUSH0 DUP2 ISZERO ISZERO SWAP1 POP SWAP2 SWAP1 POP JUMP JUMPDEST PUSH2 0xC4D DUP2 PUSH2 0xC39 JUMP JUMPDEST DUP2 EQ PUSH2 0xC57 JUMPI PUSH0 DUP1 REVERT JUMPDEST POP JUMP JUMPDEST PUSH0 DUP2 MLOAD SWAP1 POP PUSH2 0xC68 DUP2 PUSH2 0xC44 JUMP JUMPDEST SWAP3 SWAP2 POP POP JUMP JUMPDEST PUSH0 PUSH1 0x20 DUP3 DUP5 SUB SLT ISZERO PUSH2 0xC83 JUMPI PUSH2 0xC82 PUSH2 0x940 JUMP JUMPDEST JUMPDEST PUSH0 PUSH2 0xC90 DUP5 DUP3 DUP6 ADD PUSH2 0xC5A JUMP JUMPDEST SWAP2 POP POP SWAP3 SWAP2 POP POP JUMP JUMPDEST PUSH0 PUSH2 0xCA3 DUP3 PUSH2 0x9C9 JUMP JUMPDEST SWAP2 POP PUSH2 0xCAE DUP4 PUSH2 0x9C9 JUMP JUMPDEST SWAP3 POP DUP3 DUP3 MUL PUSH2 0xCBC DUP2 PUSH2 0x9C9 JUMP JUMPDEST SWAP2 POP DUP3 DUP3 DIV DUP5 EQ DUP4 ISZERO OR PUSH2 0xCD3 JUMPI PUSH2 0xCD2 PUSH2 0xBA3 JUMP JUMPDEST JUMPDEST POP SWAP3 SWAP2 POP POP JUMP JUMPDEST PUSH32 0x4E487B7100000000000000000000000000000000000000000000000000000000 PUSH0 MSTORE PUSH1 0x12 PUSH1 0x4 MSTORE PUSH1 0x24 PUSH0 REVERT JUMPDEST PUSH0 PUSH2 0xD11 DUP3 PUSH2 0x9C9 JUMP JUMPDEST SWAP2 POP PUSH2 0xD1C DUP4 PUSH2 0x9C9 JUMP JUMPDEST SWAP3 POP DUP3 PUSH2 0xD2C JUMPI PUSH2 0xD2B PUSH2 0xCDA JUMP JUMPDEST JUMPDEST DUP3 DUP3 DIV SWAP1 POP SWAP3 SWAP2 POP POP JUMP JUMPDEST PUSH0 PUSH2 0xD41 DUP3 PUSH2 0x9C9 JUMP JUMPDEST SWAP2 POP PUSH2 0xD4C DUP4 PUSH2 0x9C9 JUMP JUMPDEST SWAP3 POP DUP3 DUP3 ADD SWAP1 POP DUP1 DUP3 GT ISZERO PUSH2 0xD64 JUMPI PUSH2 0xD63 PUSH2 0xBA3 JUMP JUMPDEST JUMPDEST SWAP3 SWAP2 POP POP JUMP JUMPDEST PUSH32 0x4E6F207265776172647320746F20636C61696D00000000000000000000000000 PUSH0 DUP3 ADD MSTORE POP JUMP JUMPDEST PUSH0 PUSH2 0xD9E PUSH1 0x13 DUP4 PUSH2 0xAC3 JUMP JUMPDEST SWAP2 POP PUSH2 0xDA9 DUP3 PUSH2 0xD6A JUMP JUMPDEST PUSH1 0x20 DUP3 ADD SWAP1 POP SWAP2 SWAP1 POP JUMP JUMPDEST PUSH0 PUSH1 0x20 DUP3 ADD SWAP1 POP DUP2 DUP2 SUB PUSH0 DUP4 ADD MSTORE PUSH2 0xDCB DUP2 PUSH2 0xD92 JUMP JUMPDEST SWAP1 POP SWAP2 SWAP1 POP JUMP JUMPDEST PUSH0 PUSH1 0x60 DUP3 ADD SWAP1 POP PUSH2 0xDE5 PUSH0 DUP4 ADD DUP7 PUSH2 0xC03 JUMP JUMPDEST PUSH2 0xDF2 PUSH1 0x20 DUP4 ADD DUP6 PUSH2 0xC03 JUMP JUMPDEST PUSH2 0xDFF PUSH1 0x40 DUP4 ADD DUP5 PUSH2 0x9D2 JUMP JUMPDEST SWAP5 SWAP4 POP POP POP POP JUMP INVALID LOG2 PUSH5 0x6970667358 0x22 SLT KECCAK256 EQ 0x27 PUSH18 0xBC8AA72D865AF30779B8D3C18DD58E4C3EFB 0xED CALLER 0xE2 DUP10 0x21 CALLDATALOAD RETURN 0xB6 SELFDESTRUCT LT SWAP4 PUSH5 0x736F6C6343 STOP ADDMOD BYTE STOP CALLER "
				},
				"gasEstimates": {
					"creation": {
						"codeDepositCost": "729000",
						"executionCost": "infinite",
						"totalCost": "infinite"
					},
					"external": {
						"balances(address)": "2803",
						"claimRewards()": "infinite",
						"deposit(uint256)": "infinite",
						"lastStakedTime(address)": "2890",
						"pendingRewards(address)": "infinite",
						"rewardDebt(address)": "2802",
						"rewardRatePerSecond()": "2447",
						"stakingToken()": "infinite",
						"withdraw(uint256)": "infinite"
					},
					"internal": {
						"_updateRewards(address)": "infinite"
					}
				},
				"methodIdentifiers": {
					"balances(address)": "27e235e3",
					"claimRewards()": "372500ab",
					"deposit(uint256)": "b6b55f25",
					"lastStakedTime(address)": "c57a202c",
					"pendingRewards(address)": "31d7a262",
					"rewardDebt(address)": "5873eb9b",
					"rewardRatePerSecond()": "5d773b2c",
					"stakingToken()": "72f702f3",
					"withdraw(uint256)": "2e1a7d4d"
				}
			},
			"storageLayout": {
				"storage": [
					{
						"astId": 4,
						"contract": "project.sol:StakingContract",
						"label": "stakingToken",
						"offset": 0,
						"slot": "0",
						"type": "t_contract(IERC20)258"
					},
					{
						"astId": 7,
						"contract": "project.sol:StakingContract",
						"label": "rewardRatePerSecond",
						"offset": 0,
						"slot": "1",
						"type": "t_uint256"
					},
					{
						"astId": 11,
						"contract": "project.sol:StakingContract",
						"label": "balances",
						"offset": 0,
						"slot": "2",
						"type": "t_mapping(t_address,t_uint256)"
					},
					{
						"astId": 15,
						"contract": "project.sol:StakingContract",
						"label": "rewardDebt",
						"offset": 0,
						"slot": "3",
						"type": "t_mapping(t_address,t_uint256)"
					},
					{
						"astId": 19,
						"contract": "project.sol:StakingContract",
						"label": "lastStakedTime",
						"offset": 0,
						"slot": "4",
						"type": "t_mapping(t_address,t_uint256)"
					}
				],
				"types": {
					"t_address": {
						"encoding": "inplace",
						"label": "address",
						"numberOfBytes": "20"
					},
					"t_contract(IERC20)258": {
						"encoding": "inplace",
						"label": "contract IERC20",
						"numberOfBytes": "20"
					},
					"t_mapping(t_address,t_uint256)": {
						"encoding": "mapping",
						"key": "t_address",
						"label": "mapping(address => uint256)",
						"numberOfBytes": "32",
						"value": "t_uint256"
					},
					"t_uint256": {
						"encoding": "inplace",
						"label": "uint256",
						"numberOfBytes": "32"
					}
				}
			},
			"userdoc": {
				"kind": "user",
				"methods": {
					"claimRewards()": {
						"notice": "Claim accumulated rewards without withdrawing tokens"
					},
					"deposit(uint256)": {
						"notice": "Deposit tokens for staking"
					},
					"pendingRewards(address)": {
						"notice": "View function to check pending rewards for a user"
					},
					"withdraw(uint256)": {
						"notice": "Withdraw staked tokens and claim rewards"
					}
				},
				"version": 1
			}
		}
	}
}