{
	"contracts/project.sol": {
		"StakingContract": {
			"abi": [
				{
					"inputs": [
						{
							"internalType": "uint256",
							"name": "_initialSupply",
							"type": "uint256"
						}
					],
					"stateMutability": "nonpayable",
					"type": "constructor"
				},
				{
					"anonymous": false,
					"inputs": [
						{
							"indexed": true,
							"internalType": "address",
							"name": "sender",
							"type": "address"
						},
						{
							"indexed": false,
							"internalType": "uint256",
							"name": "amount",
							"type": "uint256"
						}
					],
					"name": "EtherReceived",
					"type": "event"
				},
				{
					"stateMutability": "payable",
					"type": "fallback"
				},
				{
					"inputs": [
						{
							"internalType": "address",
							"name": "",
							"type": "address"
						}
					],
					"name": "balanceOf",
					"outputs": [
						{
							"internalType": "uint256",
							"name": "",
							"type": "uint256"
						}
					],
					"stateMutability": "view",
					"type": "function"
				},
				{
					"inputs": [
						{
							"internalType": "address",
							"name": "user",
							"type": "address"
						}
					],
					"name": "calculateRewards",
					"outputs": [
						{
							"internalType": "uint256",
							"name": "",
							"type": "uint256"
						}
					],
					"stateMutability": "view",
					"type": "function"
				},
				{
					"inputs": [],
					"name": "claimRewards",
					"outputs": [],
					"stateMutability": "nonpayable",
					"type": "function"
				},
				{
					"inputs": [],
					"name": "decimals",
					"outputs": [
						{
							"internalType": "uint8",
							"name": "",
							"type": "uint8"
						}
					],
					"stateMutability": "view",
					"type": "function"
				},
				{
					"inputs": [],
					"name": "name",
					"outputs": [
						{
							"internalType": "string",
							"name": "",
							"type": "string"
						}
					],
					"stateMutability": "view",
					"type": "function"
				},
				{
					"inputs": [],
					"name": "rewardRatePerSecond",
					"outputs": [
						{
							"internalType": "uint256",
							"name": "",
							"type": "uint256"
						}
					],
					"stateMutability": "view",
					"type": "function"
				},
				{
					"inputs": [
						{
							"internalType": "address",
							"name": "",
							"type": "address"
						}
					],
					"name": "rewardsEarned",
					"outputs": [
						{
							"internalType": "uint256",
							"name": "",
							"type": "uint256"
						}
					],
					"stateMutability": "view",
					"type": "function"
				},
				{
					"inputs": [
						{
							"internalType": "uint256",
							"name": "amount",
							"type": "uint256"
						}
					],
					"name": "stake",
					"outputs": [],
					"stateMutability": "nonpayable",
					"type": "function"
				},
				{
					"inputs": [
						{
							"internalType": "address",
							"name": "",
							"type": "address"
						}
					],
					"name": "stakeStartTime",
					"outputs": [
						{
							"internalType": "uint256",
							"name": "",
							"type": "uint256"
						}
					],
					"stateMutability": "view",
					"type": "function"
				},
				{
					"inputs": [
						{
							"internalType": "address",
							"name": "",
							"type": "address"
						}
					],
					"name": "stakedBalance",
					"outputs": [
						{
							"internalType": "uint256",
							"name": "",
							"type": "uint256"
						}
					],
					"stateMutability": "view",
					"type": "function"
				},
				{
					"inputs": [],
					"name": "symbol",
					"outputs": [
						{
							"internalType": "string",
							"name": "",
							"type": "string"
						}
					],
					"stateMutability": "view",
					"type": "function"
				},
				{
					"inputs": [],
					"name": "totalSupply",
					"outputs": [
						{
							"internalType": "uint256",
							"name": "",
							"type": "uint256"
						}
					],
					"stateMutability": "view",
					"type": "function"
				},
				{
					"inputs": [
						{
							"internalType": "uint256",
							"name": "amount",
							"type": "uint256"
						}
					],
					"name": "withdraw",
					"outputs": [],
					"stateMutability": "nonpayable",
					"type": "function"
				},
				{
					"stateMutability": "payable",
					"type": "receive"
				}
			],
			"devdoc": {
				"kind": "dev",
				"methods": {
					"calculateRewards(address)": {
						"params": {
							"user": "The address of the user"
						}
					},
					"stake(uint256)": {
						"params": {
							"amount": "The amount of tokens to stake"
						}
					},
					"withdraw(uint256)": {
						"params": {
							"amount": "The amount of tokens to withdraw"
						}
					}
				},
				"version": 1
			},
			"evm": {
				"assembly": "    /* \"contracts/project.sol\":62:3874  contract StakingContract {... */\n  mstore(0x40, 0x80)\n    /* \"contracts/project.sol\":94:130  string public name = \"Staking Token\" */\n  mload(0x40)\n  dup1\n  0x40\n  add\n  0x40\n  mstore\n  dup1\n  0x0d\n  dup2\n  mstore\n  0x20\n  add\n  0x5374616b696e6720546f6b656e00000000000000000000000000000000000000\n  dup2\n  mstore\n  pop\n  0x00\n  swap1\n  dup2\n  tag_1\n  swap2\n  swap1\n  tag_2\n  jump\t// in\ntag_1:\n  pop\n    /* \"contracts/project.sol\":137:167  string public symbol = \"STAKE\" */\n  mload(0x40)\n  dup1\n  0x40\n  add\n  0x40\n  mstore\n  dup1\n  0x05\n  dup2\n  mstore\n  0x20\n  add\n  0x5354414b45000000000000000000000000000000000000000000000000000000\n  dup2\n  mstore\n  pop\n  0x01\n  swap1\n  dup2\n  tag_3\n  swap2\n  swap1\n  tag_2\n  jump\t// in\ntag_3:\n  pop\n    /* \"contracts/project.sol\":198:200  18 */\n  0x12\n    /* \"contracts/project.sol\":174:200  uint8 public decimals = 18 */\n  0x02\n  exp(0x0100, 0x00)\n  dup2\n  sload\n  dup2\n  0xff\n  mul\n  not\n  and\n  swap1\n  dup4\n  0xff\n  and\n  mul\n  or\n  swap1\n  sstore\n  pop\n    /* \"contracts/project.sol\":617:618  1 */\n  0x01\n    /* \"contracts/project.sol\":580:618  uint256 public rewardRatePerSecond = 1 */\n  0x08\n  sstore\n    /* \"contracts/project.sol\":686:870  constructor(uint256 _initialSupply) {... */\n  callvalue\n  dup1\n  iszero\n  tag_4\n  jumpi\n  0x00\n  dup1\n  revert\ntag_4:\n  pop\n  mload(0x40)\n  sub(codesize, bytecodeSize)\n  dup1\n  bytecodeSize\n  dup4\n  codecopy\n  dup2\n  dup2\n  add\n  0x40\n  mstore\n  dup2\n  add\n  swap1\n  tag_5\n  swap2\n  swap1\n  tag_6\n  jump\t// in\ntag_5:\n    /* \"contracts/project.sol\":747:761  _initialSupply */\n  dup1\n    /* \"contracts/project.sol\":733:744  totalSupply */\n  0x03\n    /* \"contracts/project.sol\":733:761  totalSupply = _initialSupply */\n  dup2\n  swap1\n  sstore\n  pop\n    /* \"contracts/project.sol\":796:810  _initialSupply */\n  dup1\n    /* \"contracts/project.sol\":772:781  balanceOf */\n  0x04\n    /* \"contracts/project.sol\":772:793  balanceOf[msg.sender] */\n  0x00\n    /* \"contracts/project.sol\":782:792  msg.sender */\n  caller\n    /* \"contracts/project.sol\":772:793  balanceOf[msg.sender] */\n  0xffffffffffffffffffffffffffffffffffffffff\n  and\n  0xffffffffffffffffffffffffffffffffffffffff\n  and\n  dup2\n  mstore\n  0x20\n  add\n  swap1\n  dup2\n  mstore\n  0x20\n  add\n  0x00\n  keccak256\n    /* \"contracts/project.sol\":772:810  balanceOf[msg.sender] = _initialSupply */\n  dup2\n  swap1\n  sstore\n  pop\n    /* \"contracts/project.sol\":686:870  constructor(uint256 _initialSupply) {... */\n  pop\n    /* \"contracts/project.sol\":62:3874  contract StakingContract {... */\n  jump(tag_9)\n    /* \"#utility.yul\":7:106   */\ntag_10:\n    /* \"#utility.yul\":59:65   */\n  0x00\n    /* \"#utility.yul\":93:98   */\n  dup2\n    /* \"#utility.yul\":87:99   */\n  mload\n    /* \"#utility.yul\":77:99   */\n  swap1\n  pop\n    /* \"#utility.yul\":7:106   */\n  swap2\n  swap1\n  pop\n  jump\t// out\n    /* \"#utility.yul\":112:292   */\ntag_11:\n    /* \"#utility.yul\":160:237   */\n  0x4e487b7100000000000000000000000000000000000000000000000000000000\n    /* \"#utility.yul\":157:158   */\n  0x00\n    /* \"#utility.yul\":150:238   */\n  mstore\n    /* \"#utility.yul\":257:261   */\n  0x41\n    /* \"#utility.yul\":254:255   */\n  0x04\n    /* \"#utility.yul\":247:262   */\n  mstore\n    /* \"#utility.yul\":281:285   */\n  0x24\n    /* \"#utility.yul\":278:279   */\n  0x00\n    /* \"#utility.yul\":271:286   */\n  revert\n    /* \"#utility.yul\":298:478   */\ntag_12:\n    /* \"#utility.yul\":346:423   */\n  0x4e487b7100000000000000000000000000000000000000000000000000000000\n    /* \"#utility.yul\":343:344   */\n  0x00\n    /* \"#utility.yul\":336:424   */\n  mstore\n    /* \"#utility.yul\":443:447   */\n  0x22\n    /* \"#utility.yul\":440:441   */\n  0x04\n    /* \"#utility.yul\":433:448   */\n  mstore\n    /* \"#utility.yul\":467:471   */\n  0x24\n    /* \"#utility.yul\":464:465   */\n  0x00\n    /* \"#utility.yul\":457:472   */\n  revert\n    /* \"#utility.yul\":484:804   */\ntag_13:\n    /* \"#utility.yul\":528:534   */\n  0x00\n    /* \"#utility.yul\":565:566   */\n  0x02\n    /* \"#utility.yul\":559:563   */\n  dup3\n    /* \"#utility.yul\":555:567   */\n  div\n    /* \"#utility.yul\":545:567   */\n  swap1\n  pop\n    /* \"#utility.yul\":612:613   */\n  0x01\n    /* \"#utility.yul\":606:610   */\n  dup3\n    /* \"#utility.yul\":602:614   */\n  and\n    /* \"#utility.yul\":633:651   */\n  dup1\n    /* \"#utility.yul\":623:704   */\n  tag_40\n  jumpi\n    /* \"#utility.yul\":689:693   */\n  0x7f\n    /* \"#utility.yul\":681:687   */\n  dup3\n    /* \"#utility.yul\":677:694   */\n  and\n    /* \"#utility.yul\":667:694   */\n  swap2\n  pop\n    /* \"#utility.yul\":623:704   */\ntag_40:\n    /* \"#utility.yul\":751:753   */\n  0x20\n    /* \"#utility.yul\":743:749   */\n  dup3\n    /* \"#utility.yul\":740:754   */\n  lt\n    /* \"#utility.yul\":720:738   */\n  dup2\n    /* \"#utility.yul\":717:755   */\n  sub\n    /* \"#utility.yul\":714:798   */\n  tag_41\n  jumpi\n    /* \"#utility.yul\":770:788   */\n  tag_42\n  tag_12\n  jump\t// in\ntag_42:\n    /* \"#utility.yul\":714:798   */\ntag_41:\n    /* \"#utility.yul\":535:804   */\n  pop\n    /* \"#utility.yul\":484:804   */\n  swap2\n  swap1\n  pop\n  jump\t// out\n    /* \"#utility.yul\":810:951   */\ntag_14:\n    /* \"#utility.yul\":859:863   */\n  0x00\n    /* \"#utility.yul\":882:885   */\n  dup2\n    /* \"#utility.yul\":874:885   */\n  swap1\n  pop\n    /* \"#utility.yul\":905:908   */\n  dup2\n    /* \"#utility.yul\":902:903   */\n  0x00\n    /* \"#utility.yul\":895:909   */\n  mstore\n    /* \"#utility.yul\":939:943   */\n  0x20\n    /* \"#utility.yul\":936:937   */\n  0x00\n    /* \"#utility.yul\":926:944   */\n  keccak256\n    /* \"#utility.yul\":918:944   */\n  swap1\n  pop\n    /* \"#utility.yul\":810:951   */\n  swap2\n  swap1\n  pop\n  jump\t// out\n    /* \"#utility.yul\":957:1050   */\ntag_15:\n    /* \"#utility.yul\":994:1000   */\n  0x00\n    /* \"#utility.yul\":1041:1043   */\n  0x20\n    /* \"#utility.yul\":1036:1038   */\n  0x1f\n    /* \"#utility.yul\":1029:1034   */\n  dup4\n    /* \"#utility.yul\":1025:1039   */\n  add\n    /* \"#utility.yul\":1021:1044   */\n  div\n    /* \"#utility.yul\":1011:1044   */\n  swap1\n  pop\n    /* \"#utility.yul\":957:1050   */\n  swap2\n  swap1\n  pop\n  jump\t// out\n    /* \"#utility.yul\":1056:1163   */\ntag_16:\n    /* \"#utility.yul\":1100:1108   */\n  0x00\n    /* \"#utility.yul\":1150:1155   */\n  dup3\n    /* \"#utility.yul\":1144:1148   */\n  dup3\n    /* \"#utility.yul\":1140:1156   */\n  shl\n    /* \"#utility.yul\":1119:1156   */\n  swap1\n  pop\n    /* \"#utility.yul\":1056:1163   */\n  swap3\n  swap2\n  pop\n  pop\n  jump\t// out\n    /* \"#utility.yul\":1169:1562   */\ntag_17:\n    /* \"#utility.yul\":1238:1244   */\n  0x00\n    /* \"#utility.yul\":1288:1289   */\n  0x08\n    /* \"#utility.yul\":1276:1286   */\n  dup4\n    /* \"#utility.yul\":1272:1290   */\n  mul\n    /* \"#utility.yul\":1311:1408   */\n  tag_47\n    /* \"#utility.yul\":1341:1407   */\n  0xffffffffffffffffffffffffffffffffffffffffffffffffffffffffffffffff\n    /* \"#utility.yul\":1330:1339   */\n  dup3\n    /* \"#utility.yul\":1311:1408   */\n  tag_16\n  jump\t// in\ntag_47:\n    /* \"#utility.yul\":1429:1468   */\n  tag_48\n    /* \"#utility.yul\":1459:1467   */\n  dup7\n    /* \"#utility.yul\":1448:1457   */\n  dup4\n    /* \"#utility.yul\":1429:1468   */\n  tag_16\n  jump\t// in\ntag_48:\n    /* \"#utility.yul\":1417:1468   */\n  swap6\n  pop\n    /* \"#utility.yul\":1501:1505   */\n  dup1\n    /* \"#utility.yul\":1497:1506   */\n  not\n    /* \"#utility.yul\":1490:1495   */\n  dup5\n    /* \"#utility.yul\":1486:1507   */\n  and\n    /* \"#utility.yul\":1477:1507   */\n  swap4\n  pop\n    /* \"#utility.yul\":1550:1554   */\n  dup1\n    /* \"#utility.yul\":1540:1548   */\n  dup7\n    /* \"#utility.yul\":1536:1555   */\n  and\n    /* \"#utility.yul\":1529:1534   */\n  dup5\n    /* \"#utility.yul\":1526:1556   */\n  or\n    /* \"#utility.yul\":1516:1556   */\n  swap3\n  pop\n    /* \"#utility.yul\":1245:1562   */\n  pop\n  pop\n    /* \"#utility.yul\":1169:1562   */\n  swap4\n  swap3\n  pop\n  pop\n  pop\n  jump\t// out\n    /* \"#utility.yul\":1568:1645   */\ntag_18:\n    /* \"#utility.yul\":1605:1612   */\n  0x00\n    /* \"#utility.yul\":1634:1639   */\n  dup2\n    /* \"#utility.yul\":1623:1639   */\n  swap1\n  pop\n    /* \"#utility.yul\":1568:1645   */\n  swap2\n  swap1\n  pop\n  jump\t// out\n    /* \"#utility.yul\":1651:1711   */\ntag_19:\n    /* \"#utility.yul\":1679:1682   */\n  0x00\n    /* \"#utility.yul\":1700:1705   */\n  dup2\n    /* \"#utility.yul\":1693:1705   */\n  swap1\n  pop\n    /* \"#utility.yul\":1651:1711   */\n  swap2\n  swap1\n  pop\n  jump\t// out\n    /* \"#utility.yul\":1717:1859   */\ntag_20:\n    /* \"#utility.yul\":1767:1776   */\n  0x00\n    /* \"#utility.yul\":1800:1853   */\n  tag_52\n    /* \"#utility.yul\":1818:1852   */\n  tag_53\n    /* \"#utility.yul\":1827:1851   */\n  tag_54\n    /* \"#utility.yul\":1845:1850   */\n  dup5\n    /* \"#utility.yul\":1827:1851   */\n  tag_18\n  jump\t// in\ntag_54:\n    /* \"#utility.yul\":1818:1852   */\n  tag_19\n  jump\t// in\ntag_53:\n    /* \"#utility.yul\":1800:1853   */\n  tag_18\n  jump\t// in\ntag_52:\n    /* \"#utility.yul\":1787:1853   */\n  swap1\n  pop\n    /* \"#utility.yul\":1717:1859   */\n  swap2\n  swap1\n  pop\n  jump\t// out\n    /* \"#utility.yul\":1865:1940   */\ntag_21:\n    /* \"#utility.yul\":1908:1911   */\n  0x00\n    /* \"#utility.yul\":1929:1934   */\n  dup2\n    /* \"#utility.yul\":1922:1934   */\n  swap1\n  pop\n    /* \"#utility.yul\":1865:1940   */\n  swap2\n  swap1\n  pop\n  jump\t// out\n    /* \"#utility.yul\":1946:2215   */\ntag_22:\n    /* \"#utility.yul\":2056:2095   */\n  tag_57\n    /* \"#utility.yul\":2087:2094   */\n  dup4\n    /* \"#utility.yul\":2056:2095   */\n  tag_20\n  jump\t// in\ntag_57:\n    /* \"#utility.yul\":2117:2208   */\n  tag_58\n    /* \"#utility.yul\":2166:2207   */\n  tag_59\n    /* \"#utility.yul\":2190:2206   */\n  dup3\n    /* \"#utility.yul\":2166:2207   */\n  tag_21\n  jump\t// in\ntag_59:\n    /* \"#utility.yul\":2158:2164   */\n  dup5\n    /* \"#utility.yul\":2151:2155   */\n  dup5\n    /* \"#utility.yul\":2145:2156   */\n  sload\n    /* \"#utility.yul\":2117:2208   */\n  tag_17\n  jump\t// in\ntag_58:\n    /* \"#utility.yul\":2111:2115   */\n  dup3\n    /* \"#utility.yul\":2104:2209   */\n  sstore\n    /* \"#utility.yul\":2022:2215   */\n  pop\n    /* \"#utility.yul\":1946:2215   */\n  pop\n  pop\n  pop\n  jump\t// out\n    /* \"#utility.yul\":2221:2294   */\ntag_23:\n    /* \"#utility.yul\":2266:2269   */\n  0x00\n    /* \"#utility.yul\":2221:2294   */\n  swap1\n  jump\t// out\n    /* \"#utility.yul\":2300:2489   */\ntag_24:\n    /* \"#utility.yul\":2377:2409   */\n  tag_62\n  tag_23\n  jump\t// in\ntag_62:\n    /* \"#utility.yul\":2418:2483   */\n  tag_63\n    /* \"#utility.yul\":2476:2482   */\n  dup2\n    /* \"#utility.yul\":2468:2474   */\n  dup5\n    /* \"#utility.yul\":2462:2466   */\n  dup5\n    /* \"#utility.yul\":2418:2483   */\n  tag_22\n  jump\t// in\ntag_63:\n    /* \"#utility.yul\":2353:2489   */\n  pop\n    /* \"#utility.yul\":2300:2489   */\n  pop\n  pop\n  jump\t// out\n    /* \"#utility.yul\":2495:2681   */\ntag_25:\n    /* \"#utility.yul\":2555:2675   */\ntag_65:\n    /* \"#utility.yul\":2572:2575   */\n  dup2\n    /* \"#utility.yul\":2565:2570   */\n  dup2\n    /* \"#utility.yul\":2562:2576   */\n  lt\n    /* \"#utility.yul\":2555:2675   */\n  iszero\n  tag_67\n  jumpi\n    /* \"#utility.yul\":2626:2665   */\n  tag_68\n    /* \"#utility.yul\":2663:2664   */\n  0x00\n    /* \"#utility.yul\":2656:2661   */\n  dup3\n    /* \"#utility.yul\":2626:2665   */\n  tag_24\n  jump\t// in\ntag_68:\n    /* \"#utility.yul\":2599:2600   */\n  0x01\n    /* \"#utility.yul\":2592:2597   */\n  dup2\n    /* \"#utility.yul\":2588:2601   */\n  add\n    /* \"#utility.yul\":2579:2601   */\n  swap1\n  pop\n    /* \"#utility.yul\":2555:2675   */\n  jump(tag_65)\ntag_67:\n    /* \"#utility.yul\":2495:2681   */\n  pop\n  pop\n  jump\t// out\n    /* \"#utility.yul\":2687:3230   */\ntag_26:\n    /* \"#utility.yul\":2788:2790   */\n  0x1f\n    /* \"#utility.yul\":2783:2786   */\n  dup3\n    /* \"#utility.yul\":2780:2791   */\n  gt\n    /* \"#utility.yul\":2777:3223   */\n  iszero\n  tag_70\n  jumpi\n    /* \"#utility.yul\":2822:2860   */\n  tag_71\n    /* \"#utility.yul\":2854:2859   */\n  dup2\n    /* \"#utility.yul\":2822:2860   */\n  tag_14\n  jump\t// in\ntag_71:\n    /* \"#utility.yul\":2906:2935   */\n  tag_72\n    /* \"#utility.yul\":2924:2934   */\n  dup5\n    /* \"#utility.yul\":2906:2935   */\n  tag_15\n  jump\t// in\ntag_72:\n    /* \"#utility.yul\":2896:2904   */\n  dup2\n    /* \"#utility.yul\":2892:2936   */\n  add\n    /* \"#utility.yul\":3089:3091   */\n  0x20\n    /* \"#utility.yul\":3077:3087   */\n  dup6\n    /* \"#utility.yul\":3074:3092   */\n  lt\n    /* \"#utility.yul\":3071:3120   */\n  iszero\n  tag_73\n  jumpi\n    /* \"#utility.yul\":3110:3118   */\n  dup2\n    /* \"#utility.yul\":3095:3118   */\n  swap1\n  pop\n    /* \"#utility.yul\":3071:3120   */\ntag_73:\n    /* \"#utility.yul\":3133:3213   */\n  tag_74\n    /* \"#utility.yul\":3189:3211   */\n  tag_75\n    /* \"#utility.yul\":3207:3210   */\n  dup6\n    /* \"#utility.yul\":3189:3211   */\n  tag_15\n  jump\t// in\ntag_75:\n    /* \"#utility.yul\":3179:3187   */\n  dup4\n    /* \"#utility.yul\":3175:3212   */\n  add\n    /* \"#utility.yul\":3162:3173   */\n  dup3\n    /* \"#utility.yul\":3133:3213   */\n  tag_25\n  jump\t// in\ntag_74:\n    /* \"#utility.yul\":2792:3223   */\n  pop\n  pop\n    /* \"#utility.yul\":2777:3223   */\ntag_70:\n    /* \"#utility.yul\":2687:3230   */\n  pop\n  pop\n  pop\n  jump\t// out\n    /* \"#utility.yul\":3236:3353   */\ntag_27:\n    /* \"#utility.yul\":3290:3298   */\n  0x00\n    /* \"#utility.yul\":3340:3345   */\n  dup3\n    /* \"#utility.yul\":3334:3338   */\n  dup3\n    /* \"#utility.yul\":3330:3346   */\n  shr\n    /* \"#utility.yul\":3309:3346   */\n  swap1\n  pop\n    /* \"#utility.yul\":3236:3353   */\n  swap3\n  swap2\n  pop\n  pop\n  jump\t// out\n    /* \"#utility.yul\":3359:3528   */\ntag_28:\n    /* \"#utility.yul\":3403:3409   */\n  0x00\n    /* \"#utility.yul\":3436:3487   */\n  tag_78\n    /* \"#utility.yul\":3484:3485   */\n  0x00\n    /* \"#utility.yul\":3480:3486   */\n  not\n    /* \"#utility.yul\":3472:3477   */\n  dup5\n    /* \"#utility.yul\":3469:3470   */\n  0x08\n    /* \"#utility.yul\":3465:3478   */\n  mul\n    /* \"#utility.yul\":3436:3487   */\n  tag_27\n  jump\t// in\ntag_78:\n    /* \"#utility.yul\":3432:3488   */\n  not\n    /* \"#utility.yul\":3517:3521   */\n  dup1\n    /* \"#utility.yul\":3511:3515   */\n  dup4\n    /* \"#utility.yul\":3507:3522   */\n  and\n    /* \"#utility.yul\":3497:3522   */\n  swap2\n  pop\n    /* \"#utility.yul\":3410:3528   */\n  pop\n    /* \"#utility.yul\":3359:3528   */\n  swap3\n  swap2\n  pop\n  pop\n  jump\t// out\n    /* \"#utility.yul\":3533:3828   */\ntag_29:\n    /* \"#utility.yul\":3609:3613   */\n  0x00\n    /* \"#utility.yul\":3755:3784   */\n  tag_80\n    /* \"#utility.yul\":3780:3783   */\n  dup4\n    /* \"#utility.yul\":3774:3778   */\n  dup4\n    /* \"#utility.yul\":3755:3784   */\n  tag_28\n  jump\t// in\ntag_80:\n    /* \"#utility.yul\":3747:3784   */\n  swap2\n  pop\n    /* \"#utility.yul\":3817:3820   */\n  dup3\n    /* \"#utility.yul\":3814:3815   */\n  0x02\n    /* \"#utility.yul\":3810:3821   */\n  mul\n    /* \"#utility.yul\":3804:3808   */\n  dup3\n    /* \"#utility.yul\":3801:3822   */\n  or\n    /* \"#utility.yul\":3793:3822   */\n  swap1\n  pop\n    /* \"#utility.yul\":3533:3828   */\n  swap3\n  swap2\n  pop\n  pop\n  jump\t// out\n    /* \"#utility.yul\":3833:5228   */\ntag_2:\n    /* \"#utility.yul\":3950:3987   */\n  tag_82\n    /* \"#utility.yul\":3983:3986   */\n  dup3\n    /* \"#utility.yul\":3950:3987   */\n  tag_10\n  jump\t// in\ntag_82:\n    /* \"#utility.yul\":4052:4070   */\n  0xffffffffffffffff\n    /* \"#utility.yul\":4044:4050   */\n  dup2\n    /* \"#utility.yul\":4041:4071   */\n  gt\n    /* \"#utility.yul\":4038:4094   */\n  iszero\n  tag_83\n  jumpi\n    /* \"#utility.yul\":4074:4092   */\n  tag_84\n  tag_11\n  jump\t// in\ntag_84:\n    /* \"#utility.yul\":4038:4094   */\ntag_83:\n    /* \"#utility.yul\":4118:4156   */\n  tag_85\n    /* \"#utility.yul\":4150:4154   */\n  dup3\n    /* \"#utility.yul\":4144:4155   */\n  sload\n    /* \"#utility.yul\":4118:4156   */\n  tag_13\n  jump\t// in\ntag_85:\n    /* \"#utility.yul\":4203:4270   */\n  tag_86\n    /* \"#utility.yul\":4263:4269   */\n  dup3\n    /* \"#utility.yul\":4255:4261   */\n  dup3\n    /* \"#utility.yul\":4249:4253   */\n  dup6\n    /* \"#utility.yul\":4203:4270   */\n  tag_26\n  jump\t// in\ntag_86:\n    /* \"#utility.yul\":4297:4298   */\n  0x00\n    /* \"#utility.yul\":4321:4325   */\n  0x20\n    /* \"#utility.yul\":4308:4325   */\n  swap1\n  pop\n    /* \"#utility.yul\":4353:4355   */\n  0x1f\n    /* \"#utility.yul\":4345:4351   */\n  dup4\n    /* \"#utility.yul\":4342:4356   */\n  gt\n    /* \"#utility.yul\":4370:4371   */\n  0x01\n    /* \"#utility.yul\":4365:4983   */\n  dup2\n  eq\n  tag_88\n  jumpi\n    /* \"#utility.yul\":5027:5028   */\n  0x00\n    /* \"#utility.yul\":5044:5050   */\n  dup5\n    /* \"#utility.yul\":5041:5118   */\n  iszero\n  tag_89\n  jumpi\n    /* \"#utility.yul\":5093:5102   */\n  dup3\n    /* \"#utility.yul\":5088:5091   */\n  dup8\n    /* \"#utility.yul\":5084:5103   */\n  add\n    /* \"#utility.yul\":5078:5104   */\n  mload\n    /* \"#utility.yul\":5069:5104   */\n  swap1\n  pop\n    /* \"#utility.yul\":5041:5118   */\ntag_89:\n    /* \"#utility.yul\":5144:5211   */\n  tag_90\n    /* \"#utility.yul\":5204:5210   */\n  dup6\n    /* \"#utility.yul\":5197:5202   */\n  dup3\n    /* \"#utility.yul\":5144:5211   */\n  tag_29\n  jump\t// in\ntag_90:\n    /* \"#utility.yul\":5138:5142   */\n  dup7\n    /* \"#utility.yul\":5131:5212   */\n  sstore\n    /* \"#utility.yul\":5000:5222   */\n  pop\n    /* \"#utility.yul\":4335:5222   */\n  jump(tag_87)\n    /* \"#utility.yul\":4365:4983   */\ntag_88:\n    /* \"#utility.yul\":4417:4421   */\n  0x1f\n    /* \"#utility.yul\":4413:4422   */\n  not\n    /* \"#utility.yul\":4405:4411   */\n  dup5\n    /* \"#utility.yul\":4401:4423   */\n  and\n    /* \"#utility.yul\":4451:4488   */\n  tag_91\n    /* \"#utility.yul\":4483:4487   */\n  dup7\n    /* \"#utility.yul\":4451:4488   */\n  tag_14\n  jump\t// in\ntag_91:\n    /* \"#utility.yul\":4510:4511   */\n  0x00\n    /* \"#utility.yul\":4524:4732   */\ntag_92:\n    /* \"#utility.yul\":4538:4545   */\n  dup3\n    /* \"#utility.yul\":4535:4536   */\n  dup2\n    /* \"#utility.yul\":4532:4546   */\n  lt\n    /* \"#utility.yul\":4524:4732   */\n  iszero\n  tag_94\n  jumpi\n    /* \"#utility.yul\":4617:4626   */\n  dup5\n    /* \"#utility.yul\":4612:4615   */\n  dup10\n    /* \"#utility.yul\":4608:4627   */\n  add\n    /* \"#utility.yul\":4602:4628   */\n  mload\n    /* \"#utility.yul\":4594:4600   */\n  dup3\n    /* \"#utility.yul\":4587:4629   */\n  sstore\n    /* \"#utility.yul\":4668:4669   */\n  0x01\n    /* \"#utility.yul\":4660:4666   */\n  dup3\n    /* \"#utility.yul\":4656:4670   */\n  add\n    /* \"#utility.yul\":4646:4670   */\n  swap2\n  pop\n    /* \"#utility.yul\":4715:4717   */\n  0x20\n    /* \"#utility.yul\":4704:4713   */\n  dup6\n    /* \"#utility.yul\":4700:4718   */\n  add\n    /* \"#utility.yul\":4687:4718   */\n  swap5\n  pop\n    /* \"#utility.yul\":4561:4565   */\n  0x20\n    /* \"#utility.yul\":4558:4559   */\n  dup2\n    /* \"#utility.yul\":4554:4566   */\n  add\n    /* \"#utility.yul\":4549:4566   */\n  swap1\n  pop\n    /* \"#utility.yul\":4524:4732   */\n  jump(tag_92)\ntag_94:\n    /* \"#utility.yul\":4760:4766   */\n  dup7\n    /* \"#utility.yul\":4751:4758   */\n  dup4\n    /* \"#utility.yul\":4748:4767   */\n  lt\n    /* \"#utility.yul\":4745:4924   */\n  iszero\n  tag_95\n  jumpi\n    /* \"#utility.yul\":4818:4827   */\n  dup5\n    /* \"#utility.yul\":4813:4816   */\n  dup10\n    /* \"#utility.yul\":4809:4828   */\n  add\n    /* \"#utility.yul\":4803:4829   */\n  mload\n    /* \"#utility.yul\":4861:4909   */\n  tag_96\n    /* \"#utility.yul\":4903:4907   */\n  0x1f\n    /* \"#utility.yul\":4895:4901   */\n  dup10\n    /* \"#utility.yul\":4891:4908   */\n  and\n    /* \"#utility.yul\":4880:4889   */\n  dup3\n    /* \"#utility.yul\":4861:4909   */\n  tag_28\n  jump\t// in\ntag_96:\n    /* \"#utility.yul\":4853:4859   */\n  dup4\n    /* \"#utility.yul\":4846:4910   */\n  sstore\n    /* \"#utility.yul\":4768:4924   */\n  pop\n    /* \"#utility.yul\":4745:4924   */\ntag_95:\n    /* \"#utility.yul\":4970:4971   */\n  0x01\n    /* \"#utility.yul\":4966:4967   */\n  0x02\n    /* \"#utility.yul\":4958:4964   */\n  dup9\n    /* \"#utility.yul\":4954:4968   */\n  mul\n    /* \"#utility.yul\":4950:4972   */\n  add\n    /* \"#utility.yul\":4944:4948   */\n  dup9\n    /* \"#utility.yul\":4937:4973   */\n  sstore\n    /* \"#utility.yul\":4372:4983   */\n  pop\n  pop\n  pop\n    /* \"#utility.yul\":4335:5222   */\ntag_87:\n  pop\n    /* \"#utility.yul\":3925:5228   */\n  pop\n  pop\n  pop\n    /* \"#utility.yul\":3833:5228   */\n  pop\n  pop\n  jump\t// out\n    /* \"#utility.yul\":5315:5432   */\ntag_31:\n    /* \"#utility.yul\":5424:5425   */\n  0x00\n    /* \"#utility.yul\":5421:5422   */\n  dup1\n    /* \"#utility.yul\":5414:5426   */\n  revert\n    /* \"#utility.yul\":5561:5683   */\ntag_33:\n    /* \"#utility.yul\":5634:5658   */\n  tag_101\n    /* \"#utility.yul\":5652:5657   */\n  dup2\n    /* \"#utility.yul\":5634:5658   */\n  tag_18\n  jump\t// in\ntag_101:\n    /* \"#utility.yul\":5627:5632   */\n  dup2\n    /* \"#utility.yul\":5624:5659   */\n  eq\n    /* \"#utility.yul\":5614:5677   */\n  tag_102\n  jumpi\n    /* \"#utility.yul\":5673:5674   */\n  0x00\n    /* \"#utility.yul\":5670:5671   */\n  dup1\n    /* \"#utility.yul\":5663:5675   */\n  revert\n    /* \"#utility.yul\":5614:5677   */\ntag_102:\n    /* \"#utility.yul\":5561:5683   */\n  pop\n  jump\t// out\n    /* \"#utility.yul\":5689:5832   */\ntag_34:\n    /* \"#utility.yul\":5746:5751   */\n  0x00\n    /* \"#utility.yul\":5777:5783   */\n  dup2\n    /* \"#utility.yul\":5771:5784   */\n  mload\n    /* \"#utility.yul\":5762:5784   */\n  swap1\n  pop\n    /* \"#utility.yul\":5793:5826   */\n  tag_104\n    /* \"#utility.yul\":5820:5825   */\n  dup2\n    /* \"#utility.yul\":5793:5826   */\n  tag_33\n  jump\t// in\ntag_104:\n    /* \"#utility.yul\":5689:5832   */\n  swap3\n  swap2\n  pop\n  pop\n  jump\t// out\n    /* \"#utility.yul\":5838:6189   */\ntag_6:\n    /* \"#utility.yul\":5908:5914   */\n  0x00\n    /* \"#utility.yul\":5957:5959   */\n  0x20\n    /* \"#utility.yul\":5945:5954   */\n  dup3\n    /* \"#utility.yul\":5936:5943   */\n  dup5\n    /* \"#utility.yul\":5932:5955   */\n  sub\n    /* \"#utility.yul\":5928:5960   */\n  slt\n    /* \"#utility.yul\":5925:6044   */\n  iszero\n  tag_106\n  jumpi\n    /* \"#utility.yul\":5963:6042   */\n  tag_107\n  tag_31\n  jump\t// in\ntag_107:\n    /* \"#utility.yul\":5925:6044   */\ntag_106:\n    /* \"#utility.yul\":6083:6084   */\n  0x00\n    /* \"#utility.yul\":6108:6172   */\n  tag_108\n    /* \"#utility.yul\":6164:6171   */\n  dup5\n    /* \"#utility.yul\":6155:6161   */\n  dup3\n    /* \"#utility.yul\":6144:6153   */\n  dup6\n    /* \"#utility.yul\":6140:6162   */\n  add\n    /* \"#utility.yul\":6108:6172   */\n  tag_34\n  jump\t// in\ntag_108:\n    /* \"#utility.yul\":6098:6172   */\n  swap2\n  pop\n    /* \"#utility.yul\":6054:6182   */\n  pop\n    /* \"#utility.yul\":5838:6189   */\n  swap3\n  swap2\n  pop\n  pop\n  jump\t// out\n    /* \"contracts/project.sol\":62:3874  contract StakingContract {... */\ntag_9:\n  dataSize(sub_0)\n  dup1\n  dataOffset(sub_0)\n  0x00\n  codecopy\n  0x00\n  return\nstop\n\nsub_0: assembly {\n        /* \"contracts/project.sol\":62:3874  contract StakingContract {... */\n      mstore(0x40, 0x80)\n      jumpi(tag_1, lt(calldatasize, 0x04))\n      shr(0xe0, calldataload(0x00))\n      dup1\n      0x60217267\n      gt\n      tag_16\n      jumpi\n      dup1\n      0x70a08231\n      gt\n      tag_17\n      jumpi\n      dup1\n      0x70a08231\n      eq\n      tag_12\n      jumpi\n      dup1\n      0x8bfea439\n      eq\n      tag_13\n      jumpi\n      dup1\n      0x95d89b41\n      eq\n      tag_14\n      jumpi\n      dup1\n      0xa694fc3a\n      eq\n      tag_15\n      jumpi\n      jump(tag_2)\n    tag_17:\n      dup1\n      0x60217267\n      eq\n      tag_9\n      jumpi\n      dup1\n      0x64ab8675\n      eq\n      tag_10\n      jumpi\n      dup1\n      0x6985e6d8\n      eq\n      tag_11\n      jumpi\n      jump(tag_2)\n    tag_16:\n      dup1\n      0x06fdde03\n      eq\n      tag_3\n      jumpi\n      dup1\n      0x18160ddd\n      eq\n      tag_4\n      jumpi\n      dup1\n      0x2e1a7d4d\n      eq\n      tag_5\n      jumpi\n      dup1\n      0x313ce567\n      eq\n      tag_6\n      jumpi\n      dup1\n      0x372500ab\n      eq\n      tag_7\n      jumpi\n      dup1\n      0x5d773b2c\n      eq\n      tag_8\n      jumpi\n      jump(tag_2)\n    tag_1:\n      jumpi(tag_2, calldatasize)\n        /* \"contracts/project.sol\":3736:3746  msg.sender */\n      caller\n        /* \"contracts/project.sol\":3722:3758  EtherReceived(msg.sender, msg.value) */\n      0xffffffffffffffffffffffffffffffffffffffff\n      and\n      0x1e57e3bb474320be3d2c77138f75b7c3941292d647f5f9634e33a8e94e0e069b\n        /* \"contracts/project.sol\":3748:3757  msg.value */\n      callvalue\n        /* \"contracts/project.sol\":3722:3758  EtherReceived(msg.sender, msg.value) */\n      mload(0x40)\n      tag_20\n      swap2\n      swap1\n      tag_21\n      jump\t// in\n    tag_20:\n      mload(0x40)\n      dup1\n      swap2\n      sub\n      swap1\n      log2\n        /* \"contracts/project.sol\":62:3874  contract StakingContract {... */\n      stop\n    tag_2:\n        /* \"contracts/project.sol\":3536:3546  msg.sender */\n      caller\n        /* \"contracts/project.sol\":3522:3558  EtherReceived(msg.sender, msg.value) */\n      0xffffffffffffffffffffffffffffffffffffffff\n      and\n      0x1e57e3bb474320be3d2c77138f75b7c3941292d647f5f9634e33a8e94e0e069b\n        /* \"contracts/project.sol\":3548:3557  msg.value */\n      callvalue\n        /* \"contracts/project.sol\":3522:3558  EtherReceived(msg.sender, msg.value) */\n      mload(0x40)\n      tag_24\n      swap2\n      swap1\n      tag_21\n      jump\t// in\n    tag_24:\n      mload(0x40)\n      dup1\n      swap2\n      sub\n      swap1\n      log2\n        /* \"contracts/project.sol\":62:3874  contract StakingContract {... */\n      stop\n        /* \"contracts/project.sol\":94:130  string public name = \"Staking Token\" */\n    tag_3:\n      callvalue\n      dup1\n      iszero\n      tag_25\n      jumpi\n      0x00\n      dup1\n      revert\n    tag_25:\n      pop\n      tag_26\n      tag_27\n      jump\t// in\n    tag_26:\n      mload(0x40)\n      tag_28\n      swap2\n      swap1\n      tag_29\n      jump\t// in\n    tag_28:\n      mload(0x40)\n      dup1\n      swap2\n      sub\n      swap1\n      return\n        /* \"contracts/project.sol\":207:233  uint256 public totalSupply */\n    tag_4:\n      callvalue\n      dup1\n      iszero\n      tag_30\n      jumpi\n      0x00\n      dup1\n      revert\n    tag_30:\n      pop\n      tag_31\n      tag_32\n      jump\t// in\n    tag_31:\n      mload(0x40)\n      tag_33\n      swap2\n      swap1\n      tag_21\n      jump\t// in\n    tag_33:\n      mload(0x40)\n      dup1\n      swap2\n      sub\n      swap1\n      return\n        /* \"contracts/project.sol\":1487:1839  function withdraw(uint256 amount) external {... */\n    tag_5:\n      callvalue\n      dup1\n      iszero\n      tag_34\n      jumpi\n      0x00\n      dup1\n      revert\n    tag_34:\n      pop\n      tag_35\n      0x04\n      dup1\n      calldatasize\n      sub\n      dup2\n      add\n      swap1\n      tag_36\n      swap2\n      swap1\n      tag_37\n      jump\t// in\n    tag_36:\n      tag_38\n      jump\t// in\n    tag_35:\n      stop\n        /* \"contracts/project.sol\":174:200  uint8 public decimals = 18 */\n    tag_6:\n      callvalue\n      dup1\n      iszero\n      tag_39\n      jumpi\n      0x00\n      dup1\n      revert\n    tag_39:\n      pop\n      tag_40\n      tag_41\n      jump\t// in\n    tag_40:\n      mload(0x40)\n      tag_42\n      swap2\n      swap1\n      tag_43\n      jump\t// in\n    tag_42:\n      mload(0x40)\n      dup1\n      swap2\n      sub\n      swap1\n      return\n        /* \"contracts/project.sol\":1886:2309  function claimRewards() external {... */\n    tag_7:\n      callvalue\n      dup1\n      iszero\n      tag_44\n      jumpi\n      0x00\n      dup1\n      revert\n    tag_44:\n      pop\n      tag_45\n      tag_46\n      jump\t// in\n    tag_45:\n      stop\n        /* \"contracts/project.sol\":580:618  uint256 public rewardRatePerSecond = 1 */\n    tag_8:\n      callvalue\n      dup1\n      iszero\n      tag_47\n      jumpi\n      0x00\n      dup1\n      revert\n    tag_47:\n      pop\n      tag_48\n      tag_49\n      jump\t// in\n    tag_48:\n      mload(0x40)\n      tag_50\n      swap2\n      swap1\n      tag_21\n      jump\t// in\n    tag_50:\n      mload(0x40)\n      dup1\n      swap2\n      sub\n      swap1\n      return\n        /* \"contracts/project.sol\":318:366  mapping(address => uint256) public stakedBalance */\n    tag_9:\n      callvalue\n      dup1\n      iszero\n      tag_51\n      jumpi\n      0x00\n      dup1\n      revert\n    tag_51:\n      pop\n      tag_52\n      0x04\n      dup1\n      calldatasize\n      sub\n      dup2\n      add\n      swap1\n      tag_53\n      swap2\n      swap1\n      tag_54\n      jump\t// in\n    tag_53:\n      tag_55\n      jump\t// in\n    tag_52:\n      mload(0x40)\n      tag_56\n      swap2\n      swap1\n      tag_21\n      jump\t// in\n    tag_56:\n      mload(0x40)\n      dup1\n      swap2\n      sub\n      swap1\n      return\n        /* \"contracts/project.sol\":2959:3345  function calculateRewards(address user) external view returns (uint256) {... */\n    tag_10:\n      callvalue\n      dup1\n      iszero\n      tag_57\n      jumpi\n      0x00\n      dup1\n      revert\n    tag_57:\n      pop\n      tag_58\n      0x04\n      dup1\n      calldatasize\n      sub\n      dup2\n      add\n      swap1\n      tag_59\n      swap2\n      swap1\n      tag_54\n      jump\t// in\n    tag_59:\n      tag_60\n      jump\t// in\n    tag_58:\n      mload(0x40)\n      tag_61\n      swap2\n      swap1\n      tag_21\n      jump\t// in\n    tag_61:\n      mload(0x40)\n      dup1\n      swap2\n      sub\n      swap1\n      return\n        /* \"contracts/project.sol\":397:446  mapping(address => uint256) public stakeStartTime */\n    tag_11:\n      callvalue\n      dup1\n      iszero\n      tag_62\n      jumpi\n      0x00\n      dup1\n      revert\n    tag_62:\n      pop\n      tag_63\n      0x04\n      dup1\n      calldatasize\n      sub\n      dup2\n      add\n      swap1\n      tag_64\n      swap2\n      swap1\n      tag_54\n      jump\t// in\n    tag_64:\n      tag_65\n      jump\t// in\n    tag_63:\n      mload(0x40)\n      tag_66\n      swap2\n      swap1\n      tag_21\n      jump\t// in\n    tag_66:\n      mload(0x40)\n      dup1\n      swap2\n      sub\n      swap1\n      return\n        /* \"contracts/project.sol\":242:286  mapping(address => uint256) public balanceOf */\n    tag_12:\n      callvalue\n      dup1\n      iszero\n      tag_67\n      jumpi\n      0x00\n      dup1\n      revert\n    tag_67:\n      pop\n      tag_68\n      0x04\n      dup1\n      calldatasize\n      sub\n      dup2\n      add\n      swap1\n      tag_69\n      swap2\n      swap1\n      tag_54\n      jump\t// in\n    tag_69:\n      tag_70\n      jump\t// in\n    tag_68:\n      mload(0x40)\n      tag_71\n      swap2\n      swap1\n      tag_21\n      jump\t// in\n    tag_71:\n      mload(0x40)\n      dup1\n      swap2\n      sub\n      swap1\n      return\n        /* \"contracts/project.sol\":491:539  mapping(address => uint256) public rewardsEarned */\n    tag_13:\n      callvalue\n      dup1\n      iszero\n      tag_72\n      jumpi\n      0x00\n      dup1\n      revert\n    tag_72:\n      pop\n      tag_73\n      0x04\n      dup1\n      calldatasize\n      sub\n      dup2\n      add\n      swap1\n      tag_74\n      swap2\n      swap1\n      tag_54\n      jump\t// in\n    tag_74:\n      tag_75\n      jump\t// in\n    tag_73:\n      mload(0x40)\n      tag_76\n      swap2\n      swap1\n      tag_21\n      jump\t// in\n    tag_76:\n      mload(0x40)\n      dup1\n      swap2\n      sub\n      swap1\n      return\n        /* \"contracts/project.sol\":137:167  string public symbol = \"STAKE\" */\n    tag_14:\n      callvalue\n      dup1\n      iszero\n      tag_77\n      jumpi\n      0x00\n      dup1\n      revert\n    tag_77:\n      pop\n      tag_78\n      tag_79\n      jump\t// in\n    tag_78:\n      mload(0x40)\n      tag_80\n      swap2\n      swap1\n      tag_29\n      jump\t// in\n    tag_80:\n      mload(0x40)\n      dup1\n      swap2\n      sub\n      swap1\n      return\n        /* \"contracts/project.sol\":977:1365  function stake(uint256 amount) external {... */\n    tag_15:\n      callvalue\n      dup1\n      iszero\n      tag_81\n      jumpi\n      0x00\n      dup1\n      revert\n    tag_81:\n      pop\n      tag_82\n      0x04\n      dup1\n      calldatasize\n      sub\n      dup2\n      add\n      swap1\n      tag_83\n      swap2\n      swap1\n      tag_37\n      jump\t// in\n    tag_83:\n      tag_84\n      jump\t// in\n    tag_82:\n      stop\n        /* \"contracts/project.sol\":94:130  string public name = \"Staking Token\" */\n    tag_27:\n      0x00\n      dup1\n      sload\n      tag_85\n      swap1\n      tag_86\n      jump\t// in\n    tag_85:\n      dup1\n      0x1f\n      add\n      0x20\n      dup1\n      swap2\n      div\n      mul\n      0x20\n      add\n      mload(0x40)\n      swap1\n      dup2\n      add\n      0x40\n      mstore\n      dup1\n      swap3\n      swap2\n      swap1\n      dup2\n      dup2\n      mstore\n      0x20\n      add\n      dup3\n      dup1\n      sload\n      tag_87\n      swap1\n      tag_86\n      jump\t// in\n    tag_87:\n      dup1\n      iszero\n      tag_88\n      jumpi\n      dup1\n      0x1f\n      lt\n      tag_89\n      jumpi\n      0x0100\n      dup1\n      dup4\n      sload\n      div\n      mul\n      dup4\n      mstore\n      swap2\n      0x20\n      add\n      swap2\n      jump(tag_88)\n    tag_89:\n      dup3\n      add\n      swap2\n      swap1\n      0x00\n      mstore\n      keccak256(0x00, 0x20)\n      swap1\n    tag_90:\n      dup2\n      sload\n      dup2\n      mstore\n      swap1\n      0x01\n      add\n      swap1\n      0x20\n      add\n      dup1\n      dup4\n      gt\n      tag_90\n      jumpi\n      dup3\n      swap1\n      sub\n      0x1f\n      and\n      dup3\n      add\n      swap2\n    tag_88:\n      pop\n      pop\n      pop\n      pop\n      pop\n      dup2\n      jump\t// out\n        /* \"contracts/project.sol\":207:233  uint256 public totalSupply */\n    tag_32:\n      sload(0x03)\n      dup2\n      jump\t// out\n        /* \"contracts/project.sol\":1487:1839  function withdraw(uint256 amount) external {... */\n    tag_38:\n        /* \"contracts/project.sol\":1578:1584  amount */\n      dup1\n        /* \"contracts/project.sol\":1549:1562  stakedBalance */\n      0x05\n        /* \"contracts/project.sol\":1549:1574  stakedBalance[msg.sender] */\n      0x00\n        /* \"contracts/project.sol\":1563:1573  msg.sender */\n      caller\n        /* \"contracts/project.sol\":1549:1574  stakedBalance[msg.sender] */\n      0xffffffffffffffffffffffffffffffffffffffff\n      and\n      0xffffffffffffffffffffffffffffffffffffffff\n      and\n      dup2\n      mstore\n      0x20\n      add\n      swap1\n      dup2\n      mstore\n      0x20\n      add\n      0x00\n      keccak256\n      sload\n        /* \"contracts/project.sol\":1549:1584  stakedBalance[msg.sender] >= amount */\n      lt\n      iszero\n        /* \"contracts/project.sol\":1541:1628  require(stakedBalance[msg.sender] >= amount, \"Insufficient staked balance to withdraw\") */\n      tag_92\n      jumpi\n      mload(0x40)\n      0x08c379a000000000000000000000000000000000000000000000000000000000\n      dup2\n      mstore\n      0x04\n      add\n      tag_93\n      swap1\n      tag_94\n      jump\t// in\n    tag_93:\n      mload(0x40)\n      dup1\n      swap2\n      sub\n      swap1\n      revert\n    tag_92:\n        /* \"contracts/project.sol\":1639:1665  _updateRewards(msg.sender) */\n      tag_95\n        /* \"contracts/project.sol\":1654:1664  msg.sender */\n      caller\n        /* \"contracts/project.sol\":1639:1653  _updateRewards */\n      tag_96\n        /* \"contracts/project.sol\":1639:1665  _updateRewards(msg.sender) */\n      jump\t// in\n    tag_95:\n        /* \"contracts/project.sol\":1783:1789  amount */\n      dup1\n        /* \"contracts/project.sol\":1754:1767  stakedBalance */\n      0x05\n        /* \"contracts/project.sol\":1754:1779  stakedBalance[msg.sender] */\n      0x00\n        /* \"contracts/project.sol\":1768:1778  msg.sender */\n      caller\n        /* \"contracts/project.sol\":1754:1779  stakedBalance[msg.sender] */\n      0xffffffffffffffffffffffffffffffffffffffff\n      and\n      0xffffffffffffffffffffffffffffffffffffffff\n      and\n      dup2\n      mstore\n      0x20\n      add\n      swap1\n      dup2\n      mstore\n      0x20\n      add\n      0x00\n      keccak256\n      0x00\n        /* \"contracts/project.sol\":1754:1789  stakedBalance[msg.sender] -= amount */\n      dup3\n      dup3\n      sload\n      tag_97\n      swap2\n      swap1\n      tag_98\n      jump\t// in\n    tag_97:\n      swap3\n      pop\n      pop\n      dup2\n      swap1\n      sstore\n      pop\n        /* \"contracts/project.sol\":1825:1831  amount */\n      dup1\n        /* \"contracts/project.sol\":1800:1809  balanceOf */\n      0x04\n        /* \"contracts/project.sol\":1800:1821  balanceOf[msg.sender] */\n      0x00\n        /* \"contracts/project.sol\":1810:1820  msg.sender */\n      caller\n        /* \"contracts/project.sol\":1800:1821  balanceOf[msg.sender] */\n      0xffffffffffffffffffffffffffffffffffffffff\n      and\n      0xffffffffffffffffffffffffffffffffffffffff\n      and\n      dup2\n      mstore\n      0x20\n      add\n      swap1\n      dup2\n      mstore\n      0x20\n      add\n      0x00\n      keccak256\n      0x00\n        /* \"contracts/project.sol\":1800:1831  balanceOf[msg.sender] += amount */\n      dup3\n      dup3\n      sload\n      tag_99\n      swap2\n      swap1\n      tag_100\n      jump\t// in\n    tag_99:\n      swap3\n      pop\n      pop\n      dup2\n      swap1\n      sstore\n      pop\n        /* \"contracts/project.sol\":1487:1839  function withdraw(uint256 amount) external {... */\n      pop\n      jump\t// out\n        /* \"contracts/project.sol\":174:200  uint8 public decimals = 18 */\n    tag_41:\n      0x02\n      0x00\n      swap1\n      sload\n      swap1\n      0x0100\n      exp\n      swap1\n      div\n      0xff\n      and\n      dup2\n      jump\t// out\n        /* \"contracts/project.sol\":1886:2309  function claimRewards() external {... */\n    tag_46:\n        /* \"contracts/project.sol\":1930:1956  _updateRewards(msg.sender) */\n      tag_102\n        /* \"contracts/project.sol\":1945:1955  msg.sender */\n      caller\n        /* \"contracts/project.sol\":1930:1944  _updateRewards */\n      tag_96\n        /* \"contracts/project.sol\":1930:1956  _updateRewards(msg.sender) */\n      jump\t// in\n    tag_102:\n        /* \"contracts/project.sol\":1969:1983  uint256 reward */\n      0x00\n        /* \"contracts/project.sol\":1986:1999  rewardsEarned */\n      0x07\n        /* \"contracts/project.sol\":1986:2011  rewardsEarned[msg.sender] */\n      0x00\n        /* \"contracts/project.sol\":2000:2010  msg.sender */\n      caller\n        /* \"contracts/project.sol\":1986:2011  rewardsEarned[msg.sender] */\n      0xffffffffffffffffffffffffffffffffffffffff\n      and\n      0xffffffffffffffffffffffffffffffffffffffff\n      and\n      dup2\n      mstore\n      0x20\n      add\n      swap1\n      dup2\n      mstore\n      0x20\n      add\n      0x00\n      keccak256\n      sload\n        /* \"contracts/project.sol\":1969:2011  uint256 reward = rewardsEarned[msg.sender] */\n      swap1\n      pop\n        /* \"contracts/project.sol\":2039:2040  0 */\n      0x00\n        /* \"contracts/project.sol\":2030:2036  reward */\n      dup2\n        /* \"contracts/project.sol\":2030:2040  reward > 0 */\n      gt\n        /* \"contracts/project.sol\":2022:2064  require(reward > 0, \"No rewards to claim\") */\n      tag_103\n      jumpi\n      mload(0x40)\n      0x08c379a000000000000000000000000000000000000000000000000000000000\n      dup2\n      mstore\n      0x04\n      add\n      tag_104\n      swap1\n      tag_105\n      jump\t// in\n    tag_104:\n      mload(0x40)\n      dup1\n      swap2\n      sub\n      swap1\n      revert\n    tag_103:\n        /* \"contracts/project.sol\":2146:2147  0 */\n      0x00\n        /* \"contracts/project.sol\":2118:2131  rewardsEarned */\n      0x07\n        /* \"contracts/project.sol\":2118:2143  rewardsEarned[msg.sender] */\n      0x00\n        /* \"contracts/project.sol\":2132:2142  msg.sender */\n      caller\n        /* \"contracts/project.sol\":2118:2143  rewardsEarned[msg.sender] */\n      0xffffffffffffffffffffffffffffffffffffffff\n      and\n      0xffffffffffffffffffffffffffffffffffffffff\n      and\n      dup2\n      mstore\n      0x20\n      add\n      swap1\n      dup2\n      mstore\n      0x20\n      add\n      0x00\n      keccak256\n        /* \"contracts/project.sol\":2118:2147  rewardsEarned[msg.sender] = 0 */\n      dup2\n      swap1\n      sstore\n      pop\n        /* \"contracts/project.sol\":2200:2206  reward */\n      dup1\n        /* \"contracts/project.sol\":2175:2184  balanceOf */\n      0x04\n        /* \"contracts/project.sol\":2175:2196  balanceOf[msg.sender] */\n      0x00\n        /* \"contracts/project.sol\":2185:2195  msg.sender */\n      caller\n        /* \"contracts/project.sol\":2175:2196  balanceOf[msg.sender] */\n      0xffffffffffffffffffffffffffffffffffffffff\n      and\n      0xffffffffffffffffffffffffffffffffffffffff\n      and\n      dup2\n      mstore\n      0x20\n      add\n      swap1\n      dup2\n      mstore\n      0x20\n      add\n      0x00\n      keccak256\n      0x00\n        /* \"contracts/project.sol\":2175:2206  balanceOf[msg.sender] += reward */\n      dup3\n      dup3\n      sload\n      tag_106\n      swap2\n      swap1\n      tag_100\n      jump\t// in\n    tag_106:\n      swap3\n      pop\n      pop\n      dup2\n      swap1\n      sstore\n      pop\n        /* \"contracts/project.sol\":2265:2271  reward */\n      dup1\n        /* \"contracts/project.sol\":2250:2261  totalSupply */\n      0x03\n      0x00\n        /* \"contracts/project.sol\":2250:2271  totalSupply += reward */\n      dup3\n      dup3\n      sload\n      tag_107\n      swap2\n      swap1\n      tag_100\n      jump\t// in\n    tag_107:\n      swap3\n      pop\n      pop\n      dup2\n      swap1\n      sstore\n      pop\n        /* \"contracts/project.sol\":1919:2309  {... */\n      pop\n        /* \"contracts/project.sol\":1886:2309  function claimRewards() external {... */\n      jump\t// out\n        /* \"contracts/project.sol\":580:618  uint256 public rewardRatePerSecond = 1 */\n    tag_49:\n      sload(0x08)\n      dup2\n      jump\t// out\n        /* \"contracts/project.sol\":318:366  mapping(address => uint256) public stakedBalance */\n    tag_55:\n      mstore(0x20, 0x05)\n      dup1\n      0x00\n      mstore\n      keccak256(0x00, 0x40)\n      0x00\n      swap2\n      pop\n      swap1\n      pop\n      sload\n      dup2\n      jump\t// out\n        /* \"contracts/project.sol\":2959:3345  function calculateRewards(address user) external view returns (uint256) {... */\n    tag_60:\n        /* \"contracts/project.sol\":3022:3029  uint256 */\n      0x00\n        /* \"contracts/project.sol\":3069:3070  0 */\n      dup1\n        /* \"contracts/project.sol\":3046:3059  stakedBalance */\n      0x05\n        /* \"contracts/project.sol\":3046:3065  stakedBalance[user] */\n      0x00\n        /* \"contracts/project.sol\":3060:3064  user */\n      dup5\n        /* \"contracts/project.sol\":3046:3065  stakedBalance[user] */\n      0xffffffffffffffffffffffffffffffffffffffff\n      and\n      0xffffffffffffffffffffffffffffffffffffffff\n      and\n      dup2\n      mstore\n      0x20\n      add\n      swap1\n      dup2\n      mstore\n      0x20\n      add\n      0x00\n      keccak256\n      sload\n        /* \"contracts/project.sol\":3046:3070  stakedBalance[user] == 0 */\n      sub\n        /* \"contracts/project.sol\":3042:3098  if (stakedBalance[user] == 0) return rewardsEarned[user] */\n      tag_109\n      jumpi\n        /* \"contracts/project.sol\":3079:3092  rewardsEarned */\n      0x07\n        /* \"contracts/project.sol\":3079:3098  rewardsEarned[user] */\n      0x00\n        /* \"contracts/project.sol\":3093:3097  user */\n      dup4\n        /* \"contracts/project.sol\":3079:3098  rewardsEarned[user] */\n      0xffffffffffffffffffffffffffffffffffffffff\n      and\n      0xffffffffffffffffffffffffffffffffffffffff\n      and\n      dup2\n      mstore\n      0x20\n      add\n      swap1\n      dup2\n      mstore\n      0x20\n      add\n      0x00\n      keccak256\n      sload\n        /* \"contracts/project.sol\":3072:3098  return rewardsEarned[user] */\n      swap1\n      pop\n      jump(tag_108)\n        /* \"contracts/project.sol\":3042:3098  if (stakedBalance[user] == 0) return rewardsEarned[user] */\n    tag_109:\n        /* \"contracts/project.sol\":3111:3134  uint256 stakingDuration */\n      0x00\n        /* \"contracts/project.sol\":3155:3169  stakeStartTime */\n      0x06\n        /* \"contracts/project.sol\":3155:3175  stakeStartTime[user] */\n      0x00\n        /* \"contracts/project.sol\":3170:3174  user */\n      dup5\n        /* \"contracts/project.sol\":3155:3175  stakeStartTime[user] */\n      0xffffffffffffffffffffffffffffffffffffffff\n      and\n      0xffffffffffffffffffffffffffffffffffffffff\n      and\n      dup2\n      mstore\n      0x20\n      add\n      swap1\n      dup2\n      mstore\n      0x20\n      add\n      0x00\n      keccak256\n      sload\n        /* \"contracts/project.sol\":3137:3152  block.timestamp */\n      timestamp\n        /* \"contracts/project.sol\":3137:3175  block.timestamp - stakeStartTime[user] */\n      tag_110\n      swap2\n      swap1\n      tag_98\n      jump\t// in\n    tag_110:\n        /* \"contracts/project.sol\":3111:3175  uint256 stakingDuration = block.timestamp - stakeStartTime[user] */\n      swap1\n      pop\n        /* \"contracts/project.sol\":3186:3204  uint256 newRewards */\n      0x00\n        /* \"contracts/project.sol\":3276:3284  decimals */\n      0x02\n      0x00\n      swap1\n      sload\n      swap1\n      0x0100\n      exp\n      swap1\n      div\n      0xff\n      and\n        /* \"contracts/project.sol\":3270:3272  10 */\n      0x0a\n        /* \"contracts/project.sol\":3270:3284  10 ** decimals */\n      tag_111\n      swap2\n      swap1\n      tag_112\n      jump\t// in\n    tag_111:\n        /* \"contracts/project.sol\":3247:3260  stakedBalance */\n      0x05\n        /* \"contracts/project.sol\":3247:3266  stakedBalance[user] */\n      0x00\n        /* \"contracts/project.sol\":3261:3265  user */\n      dup7\n        /* \"contracts/project.sol\":3247:3266  stakedBalance[user] */\n      0xffffffffffffffffffffffffffffffffffffffff\n      and\n      0xffffffffffffffffffffffffffffffffffffffff\n      and\n      dup2\n      mstore\n      0x20\n      add\n      swap1\n      dup2\n      mstore\n      0x20\n      add\n      0x00\n      keccak256\n      sload\n        /* \"contracts/project.sol\":3225:3244  rewardRatePerSecond */\n      sload(0x08)\n        /* \"contracts/project.sol\":3207:3222  stakingDuration */\n      dup5\n        /* \"contracts/project.sol\":3207:3244  stakingDuration * rewardRatePerSecond */\n      tag_113\n      swap2\n      swap1\n      tag_114\n      jump\t// in\n    tag_113:\n        /* \"contracts/project.sol\":3207:3266  stakingDuration * rewardRatePerSecond * stakedBalance[user] */\n      tag_115\n      swap2\n      swap1\n      tag_114\n      jump\t// in\n    tag_115:\n        /* \"contracts/project.sol\":3207:3285  stakingDuration * rewardRatePerSecond * stakedBalance[user] / (10 ** decimals) */\n      tag_116\n      swap2\n      swap1\n      tag_117\n      jump\t// in\n    tag_116:\n        /* \"contracts/project.sol\":3186:3285  uint256 newRewards = stakingDuration * rewardRatePerSecond * stakedBalance[user] / (10 ** decimals) */\n      swap1\n      pop\n        /* \"contracts/project.sol\":3327:3337  newRewards */\n      dup1\n        /* \"contracts/project.sol\":3305:3318  rewardsEarned */\n      0x07\n        /* \"contracts/project.sol\":3305:3324  rewardsEarned[user] */\n      0x00\n        /* \"contracts/project.sol\":3319:3323  user */\n      dup7\n        /* \"contracts/project.sol\":3305:3324  rewardsEarned[user] */\n      0xffffffffffffffffffffffffffffffffffffffff\n      and\n      0xffffffffffffffffffffffffffffffffffffffff\n      and\n      dup2\n      mstore\n      0x20\n      add\n      swap1\n      dup2\n      mstore\n      0x20\n      add\n      0x00\n      keccak256\n      sload\n        /* \"contracts/project.sol\":3305:3337  rewardsEarned[user] + newRewards */\n      tag_118\n      swap2\n      swap1\n      tag_100\n      jump\t// in\n    tag_118:\n        /* \"contracts/project.sol\":3298:3337  return rewardsEarned[user] + newRewards */\n      swap3\n      pop\n      pop\n      pop\n        /* \"contracts/project.sol\":2959:3345  function calculateRewards(address user) external view returns (uint256) {... */\n    tag_108:\n      swap2\n      swap1\n      pop\n      jump\t// out\n        /* \"contracts/project.sol\":397:446  mapping(address => uint256) public stakeStartTime */\n    tag_65:\n      mstore(0x20, 0x06)\n      dup1\n      0x00\n      mstore\n      keccak256(0x00, 0x40)\n      0x00\n      swap2\n      pop\n      swap1\n      pop\n      sload\n      dup2\n      jump\t// out\n        /* \"contracts/project.sol\":242:286  mapping(address => uint256) public balanceOf */\n    tag_70:\n      mstore(0x20, 0x04)\n      dup1\n      0x00\n      mstore\n      keccak256(0x00, 0x40)\n      0x00\n      swap2\n      pop\n      swap1\n      pop\n      sload\n      dup2\n      jump\t// out\n        /* \"contracts/project.sol\":491:539  mapping(address => uint256) public rewardsEarned */\n    tag_75:\n      mstore(0x20, 0x07)\n      dup1\n      0x00\n      mstore\n      keccak256(0x00, 0x40)\n      0x00\n      swap2\n      pop\n      swap1\n      pop\n      sload\n      dup2\n      jump\t// out\n        /* \"contracts/project.sol\":137:167  string public symbol = \"STAKE\" */\n    tag_79:\n      0x01\n      dup1\n      sload\n      tag_119\n      swap1\n      tag_86\n      jump\t// in\n    tag_119:\n      dup1\n      0x1f\n      add\n      0x20\n      dup1\n      swap2\n      div\n      mul\n      0x20\n      add\n      mload(0x40)\n      swap1\n      dup2\n      add\n      0x40\n      mstore\n      dup1\n      swap3\n      swap2\n      swap1\n      dup2\n      dup2\n      mstore\n      0x20\n      add\n      dup3\n      dup1\n      sload\n      tag_120\n      swap1\n      tag_86\n      jump\t// in\n    tag_120:\n      dup1\n      iszero\n      tag_121\n      jumpi\n      dup1\n      0x1f\n      lt\n      tag_122\n      jumpi\n      0x0100\n      dup1\n      dup4\n      sload\n      div\n      mul\n      dup4\n      mstore\n      swap2\n      0x20\n      add\n      swap2\n      jump(tag_121)\n    tag_122:\n      dup3\n      add\n      swap2\n      swap1\n      0x00\n      mstore\n      keccak256(0x00, 0x20)\n      swap1\n    tag_123:\n      dup2\n      sload\n      dup2\n      mstore\n      swap1\n      0x01\n      add\n      swap1\n      0x20\n      add\n      dup1\n      dup4\n      gt\n      tag_123\n      jumpi\n      dup3\n      swap1\n      sub\n      0x1f\n      and\n      dup3\n      add\n      swap2\n    tag_121:\n      pop\n      pop\n      pop\n      pop\n      pop\n      dup2\n      jump\t// out\n        /* \"contracts/project.sol\":977:1365  function stake(uint256 amount) external {... */\n    tag_84:\n        /* \"contracts/project.sol\":1061:1067  amount */\n      dup1\n        /* \"contracts/project.sol\":1036:1045  balanceOf */\n      0x04\n        /* \"contracts/project.sol\":1036:1057  balanceOf[msg.sender] */\n      0x00\n        /* \"contracts/project.sol\":1046:1056  msg.sender */\n      caller\n        /* \"contracts/project.sol\":1036:1057  balanceOf[msg.sender] */\n      0xffffffffffffffffffffffffffffffffffffffff\n      and\n      0xffffffffffffffffffffffffffffffffffffffff\n      and\n      dup2\n      mstore\n      0x20\n      add\n      swap1\n      dup2\n      mstore\n      0x20\n      add\n      0x00\n      keccak256\n      sload\n        /* \"contracts/project.sol\":1036:1067  balanceOf[msg.sender] >= amount */\n      lt\n      iszero\n        /* \"contracts/project.sol\":1028:1101  require(balanceOf[msg.sender] >= amount, \"Insufficient balance to stake\") */\n      tag_125\n      jumpi\n      mload(0x40)\n      0x08c379a000000000000000000000000000000000000000000000000000000000\n      dup2\n      mstore\n      0x04\n      add\n      tag_126\n      swap1\n      tag_127\n      jump\t// in\n    tag_126:\n      mload(0x40)\n      dup1\n      swap2\n      sub\n      swap1\n      revert\n    tag_125:\n        /* \"contracts/project.sol\":1112:1138  _updateRewards(msg.sender) */\n      tag_128\n        /* \"contracts/project.sol\":1127:1137  msg.sender */\n      caller\n        /* \"contracts/project.sol\":1112:1126  _updateRewards */\n      tag_96\n        /* \"contracts/project.sol\":1112:1138  _updateRewards(msg.sender) */\n      jump\t// in\n    tag_128:\n        /* \"contracts/project.sol\":1227:1233  amount */\n      dup1\n        /* \"contracts/project.sol\":1202:1211  balanceOf */\n      0x04\n        /* \"contracts/project.sol\":1202:1223  balanceOf[msg.sender] */\n      0x00\n        /* \"contracts/project.sol\":1212:1222  msg.sender */\n      caller\n        /* \"contracts/project.sol\":1202:1223  balanceOf[msg.sender] */\n      0xffffffffffffffffffffffffffffffffffffffff\n      and\n      0xffffffffffffffffffffffffffffffffffffffff\n      and\n      dup2\n      mstore\n      0x20\n      add\n      swap1\n      dup2\n      mstore\n      0x20\n      add\n      0x00\n      keccak256\n      0x00\n        /* \"contracts/project.sol\":1202:1233  balanceOf[msg.sender] -= amount */\n      dup3\n      dup3\n      sload\n      tag_129\n      swap2\n      swap1\n      tag_98\n      jump\t// in\n    tag_129:\n      swap3\n      pop\n      pop\n      dup2\n      swap1\n      sstore\n      pop\n        /* \"contracts/project.sol\":1273:1279  amount */\n      dup1\n        /* \"contracts/project.sol\":1244:1257  stakedBalance */\n      0x05\n        /* \"contracts/project.sol\":1244:1269  stakedBalance[msg.sender] */\n      0x00\n        /* \"contracts/project.sol\":1258:1268  msg.sender */\n      caller\n        /* \"contracts/project.sol\":1244:1269  stakedBalance[msg.sender] */\n      0xffffffffffffffffffffffffffffffffffffffff\n      and\n      0xffffffffffffffffffffffffffffffffffffffff\n      and\n      dup2\n      mstore\n      0x20\n      add\n      swap1\n      dup2\n      mstore\n      0x20\n      add\n      0x00\n      keccak256\n      0x00\n        /* \"contracts/project.sol\":1244:1279  stakedBalance[msg.sender] += amount */\n      dup3\n      dup3\n      sload\n      tag_130\n      swap2\n      swap1\n      tag_100\n      jump\t// in\n    tag_130:\n      swap3\n      pop\n      pop\n      dup2\n      swap1\n      sstore\n      pop\n        /* \"contracts/project.sol\":1319:1334  block.timestamp */\n      timestamp\n        /* \"contracts/project.sol\":1290:1304  stakeStartTime */\n      0x06\n        /* \"contracts/project.sol\":1290:1316  stakeStartTime[msg.sender] */\n      0x00\n        /* \"contracts/project.sol\":1305:1315  msg.sender */\n      caller\n        /* \"contracts/project.sol\":1290:1316  stakeStartTime[msg.sender] */\n      0xffffffffffffffffffffffffffffffffffffffff\n      and\n      0xffffffffffffffffffffffffffffffffffffffff\n      and\n      dup2\n      mstore\n      0x20\n      add\n      swap1\n      dup2\n      mstore\n      0x20\n      add\n      0x00\n      keccak256\n        /* \"contracts/project.sol\":1290:1334  stakeStartTime[msg.sender] = block.timestamp */\n      dup2\n      swap1\n      sstore\n      pop\n        /* \"contracts/project.sol\":977:1365  function stake(uint256 amount) external {... */\n      pop\n      jump\t// out\n        /* \"contracts/project.sol\":2426:2850  function _updateRewards(address user) internal {... */\n    tag_96:\n        /* \"contracts/project.sol\":2510:2511  0 */\n      0x00\n        /* \"contracts/project.sol\":2488:2501  stakedBalance */\n      0x05\n        /* \"contracts/project.sol\":2488:2507  stakedBalance[user] */\n      0x00\n        /* \"contracts/project.sol\":2502:2506  user */\n      dup4\n        /* \"contracts/project.sol\":2488:2507  stakedBalance[user] */\n      0xffffffffffffffffffffffffffffffffffffffff\n      and\n      0xffffffffffffffffffffffffffffffffffffffff\n      and\n      dup2\n      mstore\n      0x20\n      add\n      swap1\n      dup2\n      mstore\n      0x20\n      add\n      0x00\n      keccak256\n      sload\n        /* \"contracts/project.sol\":2488:2511  stakedBalance[user] > 0 */\n      gt\n        /* \"contracts/project.sol\":2484:2843  if (stakedBalance[user] > 0) {... */\n      iszero\n      tag_132\n      jumpi\n        /* \"contracts/project.sol\":2528:2551  uint256 stakingDuration */\n      0x00\n        /* \"contracts/project.sol\":2572:2586  stakeStartTime */\n      0x06\n        /* \"contracts/project.sol\":2572:2592  stakeStartTime[user] */\n      0x00\n        /* \"contracts/project.sol\":2587:2591  user */\n      dup4\n        /* \"contracts/project.sol\":2572:2592  stakeStartTime[user] */\n      0xffffffffffffffffffffffffffffffffffffffff\n      and\n      0xffffffffffffffffffffffffffffffffffffffff\n      and\n      dup2\n      mstore\n      0x20\n      add\n      swap1\n      dup2\n      mstore\n      0x20\n      add\n      0x00\n      keccak256\n      sload\n        /* \"contracts/project.sol\":2554:2569  block.timestamp */\n      timestamp\n        /* \"contracts/project.sol\":2554:2592  block.timestamp - stakeStartTime[user] */\n      tag_133\n      swap2\n      swap1\n      tag_98\n      jump\t// in\n    tag_133:\n        /* \"contracts/project.sol\":2528:2592  uint256 stakingDuration = block.timestamp - stakeStartTime[user] */\n      swap1\n      pop\n        /* \"contracts/project.sol\":2607:2625  uint256 newRewards */\n      0x00\n        /* \"contracts/project.sol\":2697:2705  decimals */\n      0x02\n      0x00\n      swap1\n      sload\n      swap1\n      0x0100\n      exp\n      swap1\n      div\n      0xff\n      and\n        /* \"contracts/project.sol\":2691:2693  10 */\n      0x0a\n        /* \"contracts/project.sol\":2691:2705  10 ** decimals */\n      tag_134\n      swap2\n      swap1\n      tag_112\n      jump\t// in\n    tag_134:\n        /* \"contracts/project.sol\":2668:2681  stakedBalance */\n      0x05\n        /* \"contracts/project.sol\":2668:2687  stakedBalance[user] */\n      0x00\n        /* \"contracts/project.sol\":2682:2686  user */\n      dup6\n        /* \"contracts/project.sol\":2668:2687  stakedBalance[user] */\n      0xffffffffffffffffffffffffffffffffffffffff\n      and\n      0xffffffffffffffffffffffffffffffffffffffff\n      and\n      dup2\n      mstore\n      0x20\n      add\n      swap1\n      dup2\n      mstore\n      0x20\n      add\n      0x00\n      keccak256\n      sload\n        /* \"contracts/project.sol\":2646:2665  rewardRatePerSecond */\n      sload(0x08)\n        /* \"contracts/project.sol\":2628:2643  stakingDuration */\n      dup5\n        /* \"contracts/project.sol\":2628:2665  stakingDuration * rewardRatePerSecond */\n      tag_135\n      swap2\n      swap1\n      tag_114\n      jump\t// in\n    tag_135:\n        /* \"contracts/project.sol\":2628:2687  stakingDuration * rewardRatePerSecond * stakedBalance[user] */\n      tag_136\n      swap2\n      swap1\n      tag_114\n      jump\t// in\n    tag_136:\n        /* \"contracts/project.sol\":2628:2706  stakingDuration * rewardRatePerSecond * stakedBalance[user] / (10 ** decimals) */\n      tag_137\n      swap2\n      swap1\n      tag_117\n      jump\t// in\n    tag_137:\n        /* \"contracts/project.sol\":2607:2706  uint256 newRewards = stakingDuration * rewardRatePerSecond * stakedBalance[user] / (10 ** decimals) */\n      swap1\n      pop\n        /* \"contracts/project.sol\":2746:2756  newRewards */\n      dup1\n        /* \"contracts/project.sol\":2723:2736  rewardsEarned */\n      0x07\n        /* \"contracts/project.sol\":2723:2742  rewardsEarned[user] */\n      0x00\n        /* \"contracts/project.sol\":2737:2741  user */\n      dup6\n        /* \"contracts/project.sol\":2723:2742  rewardsEarned[user] */\n      0xffffffffffffffffffffffffffffffffffffffff\n      and\n      0xffffffffffffffffffffffffffffffffffffffff\n      and\n      dup2\n      mstore\n      0x20\n      add\n      swap1\n      dup2\n      mstore\n      0x20\n      add\n      0x00\n      keccak256\n      0x00\n        /* \"contracts/project.sol\":2723:2756  rewardsEarned[user] += newRewards */\n      dup3\n      dup3\n      sload\n      tag_138\n      swap2\n      swap1\n      tag_100\n      jump\t// in\n    tag_138:\n      swap3\n      pop\n      pop\n      dup2\n      swap1\n      sstore\n      pop\n        /* \"contracts/project.sol\":2794:2809  block.timestamp */\n      timestamp\n        /* \"contracts/project.sol\":2771:2785  stakeStartTime */\n      0x06\n        /* \"contracts/project.sol\":2771:2791  stakeStartTime[user] */\n      0x00\n        /* \"contracts/project.sol\":2786:2790  user */\n      dup6\n        /* \"contracts/project.sol\":2771:2791  stakeStartTime[user] */\n      0xffffffffffffffffffffffffffffffffffffffff\n      and\n      0xffffffffffffffffffffffffffffffffffffffff\n      and\n      dup2\n      mstore\n      0x20\n      add\n      swap1\n      dup2\n      mstore\n      0x20\n      add\n      0x00\n      keccak256\n        /* \"contracts/project.sol\":2771:2809  stakeStartTime[user] = block.timestamp */\n      dup2\n      swap1\n      sstore\n      pop\n        /* \"contracts/project.sol\":2513:2843  {... */\n      pop\n      pop\n        /* \"contracts/project.sol\":2484:2843  if (stakedBalance[user] > 0) {... */\n    tag_132:\n        /* \"contracts/project.sol\":2426:2850  function _updateRewards(address user) internal {... */\n      pop\n      jump\t// out\n        /* \"#utility.yul\":7:84   */\n    tag_139:\n        /* \"#utility.yul\":44:51   */\n      0x00\n        /* \"#utility.yul\":73:78   */\n      dup2\n        /* \"#utility.yul\":62:78   */\n      swap1\n      pop\n        /* \"#utility.yul\":7:84   */\n      swap2\n      swap1\n      pop\n      jump\t// out\n        /* \"#utility.yul\":90:208   */\n    tag_140:\n        /* \"#utility.yul\":177:201   */\n      tag_172\n        /* \"#utility.yul\":195:200   */\n      dup2\n        /* \"#utility.yul\":177:201   */\n      tag_139\n      jump\t// in\n    tag_172:\n        /* \"#utility.yul\":172:175   */\n      dup3\n        /* \"#utility.yul\":165:202   */\n      mstore\n        /* \"#utility.yul\":90:208   */\n      pop\n      pop\n      jump\t// out\n        /* \"#utility.yul\":214:436   */\n    tag_21:\n        /* \"#utility.yul\":307:311   */\n      0x00\n        /* \"#utility.yul\":345:347   */\n      0x20\n        /* \"#utility.yul\":334:343   */\n      dup3\n        /* \"#utility.yul\":330:348   */\n      add\n        /* \"#utility.yul\":322:348   */\n      swap1\n      pop\n        /* \"#utility.yul\":358:429   */\n      tag_174\n        /* \"#utility.yul\":426:427   */\n      0x00\n        /* \"#utility.yul\":415:424   */\n      dup4\n        /* \"#utility.yul\":411:428   */\n      add\n        /* \"#utility.yul\":402:408   */\n      dup5\n        /* \"#utility.yul\":358:429   */\n      tag_140\n      jump\t// in\n    tag_174:\n        /* \"#utility.yul\":214:436   */\n      swap3\n      swap2\n      pop\n      pop\n      jump\t// out\n        /* \"#utility.yul\":442:541   */\n    tag_141:\n        /* \"#utility.yul\":494:500   */\n      0x00\n        /* \"#utility.yul\":528:533   */\n      dup2\n        /* \"#utility.yul\":522:534   */\n      mload\n        /* \"#utility.yul\":512:534   */\n      swap1\n      pop\n        /* \"#utility.yul\":442:541   */\n      swap2\n      swap1\n      pop\n      jump\t// out\n        /* \"#utility.yul\":547:716   */\n    tag_142:\n        /* \"#utility.yul\":631:642   */\n      0x00\n        /* \"#utility.yul\":665:671   */\n      dup3\n        /* \"#utility.yul\":660:663   */\n      dup3\n        /* \"#utility.yul\":653:672   */\n      mstore\n        /* \"#utility.yul\":705:709   */\n      0x20\n        /* \"#utility.yul\":700:703   */\n      dup3\n        /* \"#utility.yul\":696:710   */\n      add\n        /* \"#utility.yul\":681:710   */\n      swap1\n      pop\n        /* \"#utility.yul\":547:716   */\n      swap3\n      swap2\n      pop\n      pop\n      jump\t// out\n        /* \"#utility.yul\":722:861   */\n    tag_143:\n        /* \"#utility.yul\":811:817   */\n      dup3\n        /* \"#utility.yul\":806:809   */\n      dup2\n        /* \"#utility.yul\":801:804   */\n      dup4\n        /* \"#utility.yul\":795:818   */\n      mcopy\n        /* \"#utility.yul\":852:853   */\n      0x00\n        /* \"#utility.yul\":843:849   */\n      dup4\n        /* \"#utility.yul\":838:841   */\n      dup4\n        /* \"#utility.yul\":834:850   */\n      add\n        /* \"#utility.yul\":827:854   */\n      mstore\n        /* \"#utility.yul\":722:861   */\n      pop\n      pop\n      pop\n      jump\t// out\n        /* \"#utility.yul\":867:969   */\n    tag_144:\n        /* \"#utility.yul\":908:914   */\n      0x00\n        /* \"#utility.yul\":959:961   */\n      0x1f\n        /* \"#utility.yul\":955:962   */\n      not\n        /* \"#utility.yul\":950:952   */\n      0x1f\n        /* \"#utility.yul\":943:948   */\n      dup4\n        /* \"#utility.yul\":939:953   */\n      add\n        /* \"#utility.yul\":935:963   */\n      and\n        /* \"#utility.yul\":925:963   */\n      swap1\n      pop\n        /* \"#utility.yul\":867:969   */\n      swap2\n      swap1\n      pop\n      jump\t// out\n        /* \"#utility.yul\":975:1352   */\n    tag_145:\n        /* \"#utility.yul\":1063:1066   */\n      0x00\n        /* \"#utility.yul\":1091:1130   */\n      tag_180\n        /* \"#utility.yul\":1124:1129   */\n      dup3\n        /* \"#utility.yul\":1091:1130   */\n      tag_141\n      jump\t// in\n    tag_180:\n        /* \"#utility.yul\":1146:1217   */\n      tag_181\n        /* \"#utility.yul\":1210:1216   */\n      dup2\n        /* \"#utility.yul\":1205:1208   */\n      dup6\n        /* \"#utility.yul\":1146:1217   */\n      tag_142\n      jump\t// in\n    tag_181:\n        /* \"#utility.yul\":1139:1217   */\n      swap4\n      pop\n        /* \"#utility.yul\":1226:1291   */\n      tag_182\n        /* \"#utility.yul\":1284:1290   */\n      dup2\n        /* \"#utility.yul\":1279:1282   */\n      dup6\n        /* \"#utility.yul\":1272:1276   */\n      0x20\n        /* \"#utility.yul\":1265:1270   */\n      dup7\n        /* \"#utility.yul\":1261:1277   */\n      add\n        /* \"#utility.yul\":1226:1291   */\n      tag_143\n      jump\t// in\n    tag_182:\n        /* \"#utility.yul\":1316:1345   */\n      tag_183\n        /* \"#utility.yul\":1338:1344   */\n      dup2\n        /* \"#utility.yul\":1316:1345   */\n      tag_144\n      jump\t// in\n    tag_183:\n        /* \"#utility.yul\":1311:1314   */\n      dup5\n        /* \"#utility.yul\":1307:1346   */\n      add\n        /* \"#utility.yul\":1300:1346   */\n      swap2\n      pop\n        /* \"#utility.yul\":1067:1352   */\n      pop\n        /* \"#utility.yul\":975:1352   */\n      swap3\n      swap2\n      pop\n      pop\n      jump\t// out\n        /* \"#utility.yul\":1358:1671   */\n    tag_29:\n        /* \"#utility.yul\":1471:1475   */\n      0x00\n        /* \"#utility.yul\":1509:1511   */\n      0x20\n        /* \"#utility.yul\":1498:1507   */\n      dup3\n        /* \"#utility.yul\":1494:1512   */\n      add\n        /* \"#utility.yul\":1486:1512   */\n      swap1\n      pop\n        /* \"#utility.yul\":1558:1567   */\n      dup2\n        /* \"#utility.yul\":1552:1556   */\n      dup2\n        /* \"#utility.yul\":1548:1568   */\n      sub\n        /* \"#utility.yul\":1544:1545   */\n      0x00\n        /* \"#utility.yul\":1533:1542   */\n      dup4\n        /* \"#utility.yul\":1529:1546   */\n      add\n        /* \"#utility.yul\":1522:1569   */\n      mstore\n        /* \"#utility.yul\":1586:1664   */\n      tag_185\n        /* \"#utility.yul\":1659:1663   */\n      dup2\n        /* \"#utility.yul\":1650:1656   */\n      dup5\n        /* \"#utility.yul\":1586:1664   */\n      tag_145\n      jump\t// in\n    tag_185:\n        /* \"#utility.yul\":1578:1664   */\n      swap1\n      pop\n        /* \"#utility.yul\":1358:1671   */\n      swap3\n      swap2\n      pop\n      pop\n      jump\t// out\n        /* \"#utility.yul\":1758:1875   */\n    tag_147:\n        /* \"#utility.yul\":1867:1868   */\n      0x00\n        /* \"#utility.yul\":1864:1865   */\n      dup1\n        /* \"#utility.yul\":1857:1869   */\n      revert\n        /* \"#utility.yul\":2004:2126   */\n    tag_149:\n        /* \"#utility.yul\":2077:2101   */\n      tag_190\n        /* \"#utility.yul\":2095:2100   */\n      dup2\n        /* \"#utility.yul\":2077:2101   */\n      tag_139\n      jump\t// in\n    tag_190:\n        /* \"#utility.yul\":2070:2075   */\n      dup2\n        /* \"#utility.yul\":2067:2102   */\n      eq\n        /* \"#utility.yul\":2057:2120   */\n      tag_191\n      jumpi\n        /* \"#utility.yul\":2116:2117   */\n      0x00\n        /* \"#utility.yul\":2113:2114   */\n      dup1\n        /* \"#utility.yul\":2106:2118   */\n      revert\n        /* \"#utility.yul\":2057:2120   */\n    tag_191:\n        /* \"#utility.yul\":2004:2126   */\n      pop\n      jump\t// out\n        /* \"#utility.yul\":2132:2271   */\n    tag_150:\n        /* \"#utility.yul\":2178:2183   */\n      0x00\n        /* \"#utility.yul\":2216:2222   */\n      dup2\n        /* \"#utility.yul\":2203:2223   */\n      calldataload\n        /* \"#utility.yul\":2194:2223   */\n      swap1\n      pop\n        /* \"#utility.yul\":2232:2265   */\n      tag_193\n        /* \"#utility.yul\":2259:2264   */\n      dup2\n        /* \"#utility.yul\":2232:2265   */\n      tag_149\n      jump\t// in\n    tag_193:\n        /* \"#utility.yul\":2132:2271   */\n      swap3\n      swap2\n      pop\n      pop\n      jump\t// out\n        /* \"#utility.yul\":2277:2606   */\n    tag_37:\n        /* \"#utility.yul\":2336:2342   */\n      0x00\n        /* \"#utility.yul\":2385:2387   */\n      0x20\n        /* \"#utility.yul\":2373:2382   */\n      dup3\n        /* \"#utility.yul\":2364:2371   */\n      dup5\n        /* \"#utility.yul\":2360:2383   */\n      sub\n        /* \"#utility.yul\":2356:2388   */\n      slt\n        /* \"#utility.yul\":2353:2472   */\n      iszero\n      tag_195\n      jumpi\n        /* \"#utility.yul\":2391:2470   */\n      tag_196\n      tag_147\n      jump\t// in\n    tag_196:\n        /* \"#utility.yul\":2353:2472   */\n    tag_195:\n        /* \"#utility.yul\":2511:2512   */\n      0x00\n        /* \"#utility.yul\":2536:2589   */\n      tag_197\n        /* \"#utility.yul\":2581:2588   */\n      dup5\n        /* \"#utility.yul\":2572:2578   */\n      dup3\n        /* \"#utility.yul\":2561:2570   */\n      dup6\n        /* \"#utility.yul\":2557:2579   */\n      add\n        /* \"#utility.yul\":2536:2589   */\n      tag_150\n      jump\t// in\n    tag_197:\n        /* \"#utility.yul\":2526:2589   */\n      swap2\n      pop\n        /* \"#utility.yul\":2482:2599   */\n      pop\n        /* \"#utility.yul\":2277:2606   */\n      swap3\n      swap2\n      pop\n      pop\n      jump\t// out\n        /* \"#utility.yul\":2612:2698   */\n    tag_151:\n        /* \"#utility.yul\":2647:2654   */\n      0x00\n        /* \"#utility.yul\":2687:2691   */\n      0xff\n        /* \"#utility.yul\":2680:2685   */\n      dup3\n        /* \"#utility.yul\":2676:2692   */\n      and\n        /* \"#utility.yul\":2665:2692   */\n      swap1\n      pop\n        /* \"#utility.yul\":2612:2698   */\n      swap2\n      swap1\n      pop\n      jump\t// out\n        /* \"#utility.yul\":2704:2816   */\n    tag_152:\n        /* \"#utility.yul\":2787:2809   */\n      tag_200\n        /* \"#utility.yul\":2803:2808   */\n      dup2\n        /* \"#utility.yul\":2787:2809   */\n      tag_151\n      jump\t// in\n    tag_200:\n        /* \"#utility.yul\":2782:2785   */\n      dup3\n        /* \"#utility.yul\":2775:2810   */\n      mstore\n        /* \"#utility.yul\":2704:2816   */\n      pop\n      pop\n      jump\t// out\n        /* \"#utility.yul\":2822:3036   */\n    tag_43:\n        /* \"#utility.yul\":2911:2915   */\n      0x00\n        /* \"#utility.yul\":2949:2951   */\n      0x20\n        /* \"#utility.yul\":2938:2947   */\n      dup3\n        /* \"#utility.yul\":2934:2952   */\n      add\n        /* \"#utility.yul\":2926:2952   */\n      swap1\n      pop\n        /* \"#utility.yul\":2962:3029   */\n      tag_202\n        /* \"#utility.yul\":3026:3027   */\n      0x00\n        /* \"#utility.yul\":3015:3024   */\n      dup4\n        /* \"#utility.yul\":3011:3028   */\n      add\n        /* \"#utility.yul\":3002:3008   */\n      dup5\n        /* \"#utility.yul\":2962:3029   */\n      tag_152\n      jump\t// in\n    tag_202:\n        /* \"#utility.yul\":2822:3036   */\n      swap3\n      swap2\n      pop\n      pop\n      jump\t// out\n        /* \"#utility.yul\":3042:3168   */\n    tag_153:\n        /* \"#utility.yul\":3079:3086   */\n      0x00\n        /* \"#utility.yul\":3119:3161   */\n      0xffffffffffffffffffffffffffffffffffffffff\n        /* \"#utility.yul\":3112:3117   */\n      dup3\n        /* \"#utility.yul\":3108:3162   */\n      and\n        /* \"#utility.yul\":3097:3162   */\n      swap1\n      pop\n        /* \"#utility.yul\":3042:3168   */\n      swap2\n      swap1\n      pop\n      jump\t// out\n        /* \"#utility.yul\":3174:3270   */\n    tag_154:\n        /* \"#utility.yul\":3211:3218   */\n      0x00\n        /* \"#utility.yul\":3240:3264   */\n      tag_205\n        /* \"#utility.yul\":3258:3263   */\n      dup3\n        /* \"#utility.yul\":3240:3264   */\n      tag_153\n      jump\t// in\n    tag_205:\n        /* \"#utility.yul\":3229:3264   */\n      swap1\n      pop\n        /* \"#utility.yul\":3174:3270   */\n      swap2\n      swap1\n      pop\n      jump\t// out\n        /* \"#utility.yul\":3276:3398   */\n    tag_155:\n        /* \"#utility.yul\":3349:3373   */\n      tag_207\n        /* \"#utility.yul\":3367:3372   */\n      dup2\n        /* \"#utility.yul\":3349:3373   */\n      tag_154\n      jump\t// in\n    tag_207:\n        /* \"#utility.yul\":3342:3347   */\n      dup2\n        /* \"#utility.yul\":3339:3374   */\n      eq\n        /* \"#utility.yul\":3329:3392   */\n      tag_208\n      jumpi\n        /* \"#utility.yul\":3388:3389   */\n      0x00\n        /* \"#utility.yul\":3385:3386   */\n      dup1\n        /* \"#utility.yul\":3378:3390   */\n      revert\n        /* \"#utility.yul\":3329:3392   */\n    tag_208:\n        /* \"#utility.yul\":3276:3398   */\n      pop\n      jump\t// out\n        /* \"#utility.yul\":3404:3543   */\n    tag_156:\n        /* \"#utility.yul\":3450:3455   */\n      0x00\n        /* \"#utility.yul\":3488:3494   */\n      dup2\n        /* \"#utility.yul\":3475:3495   */\n      calldataload\n        /* \"#utility.yul\":3466:3495   */\n      swap1\n      pop\n        /* \"#utility.yul\":3504:3537   */\n      tag_210\n        /* \"#utility.yul\":3531:3536   */\n      dup2\n        /* \"#utility.yul\":3504:3537   */\n      tag_155\n      jump\t// in\n    tag_210:\n        /* \"#utility.yul\":3404:3543   */\n      swap3\n      swap2\n      pop\n      pop\n      jump\t// out\n        /* \"#utility.yul\":3549:3878   */\n    tag_54:\n        /* \"#utility.yul\":3608:3614   */\n      0x00\n        /* \"#utility.yul\":3657:3659   */\n      0x20\n        /* \"#utility.yul\":3645:3654   */\n      dup3\n        /* \"#utility.yul\":3636:3643   */\n      dup5\n        /* \"#utility.yul\":3632:3655   */\n      sub\n        /* \"#utility.yul\":3628:3660   */\n      slt\n        /* \"#utility.yul\":3625:3744   */\n      iszero\n      tag_212\n      jumpi\n        /* \"#utility.yul\":3663:3742   */\n      tag_213\n      tag_147\n      jump\t// in\n    tag_213:\n        /* \"#utility.yul\":3625:3744   */\n    tag_212:\n        /* \"#utility.yul\":3783:3784   */\n      0x00\n        /* \"#utility.yul\":3808:3861   */\n      tag_214\n        /* \"#utility.yul\":3853:3860   */\n      dup5\n        /* \"#utility.yul\":3844:3850   */\n      dup3\n        /* \"#utility.yul\":3833:3842   */\n      dup6\n        /* \"#utility.yul\":3829:3851   */\n      add\n        /* \"#utility.yul\":3808:3861   */\n      tag_156\n      jump\t// in\n    tag_214:\n        /* \"#utility.yul\":3798:3861   */\n      swap2\n      pop\n        /* \"#utility.yul\":3754:3871   */\n      pop\n        /* \"#utility.yul\":3549:3878   */\n      swap3\n      swap2\n      pop\n      pop\n      jump\t// out\n        /* \"#utility.yul\":3884:4064   */\n    tag_157:\n        /* \"#utility.yul\":3932:4009   */\n      0x4e487b7100000000000000000000000000000000000000000000000000000000\n        /* \"#utility.yul\":3929:3930   */\n      0x00\n        /* \"#utility.yul\":3922:4010   */\n      mstore\n        /* \"#utility.yul\":4029:4033   */\n      0x22\n        /* \"#utility.yul\":4026:4027   */\n      0x04\n        /* \"#utility.yul\":4019:4034   */\n      mstore\n        /* \"#utility.yul\":4053:4057   */\n      0x24\n        /* \"#utility.yul\":4050:4051   */\n      0x00\n        /* \"#utility.yul\":4043:4058   */\n      revert\n        /* \"#utility.yul\":4070:4390   */\n    tag_86:\n        /* \"#utility.yul\":4114:4120   */\n      0x00\n        /* \"#utility.yul\":4151:4152   */\n      0x02\n        /* \"#utility.yul\":4145:4149   */\n      dup3\n        /* \"#utility.yul\":4141:4153   */\n      div\n        /* \"#utility.yul\":4131:4153   */\n      swap1\n      pop\n        /* \"#utility.yul\":4198:4199   */\n      0x01\n        /* \"#utility.yul\":4192:4196   */\n      dup3\n        /* \"#utility.yul\":4188:4200   */\n      and\n        /* \"#utility.yul\":4219:4237   */\n      dup1\n        /* \"#utility.yul\":4209:4290   */\n      tag_217\n      jumpi\n        /* \"#utility.yul\":4275:4279   */\n      0x7f\n        /* \"#utility.yul\":4267:4273   */\n      dup3\n        /* \"#utility.yul\":4263:4280   */\n      and\n        /* \"#utility.yul\":4253:4280   */\n      swap2\n      pop\n        /* \"#utility.yul\":4209:4290   */\n    tag_217:\n        /* \"#utility.yul\":4337:4339   */\n      0x20\n        /* \"#utility.yul\":4329:4335   */\n      dup3\n        /* \"#utility.yul\":4326:4340   */\n      lt\n        /* \"#utility.yul\":4306:4324   */\n      dup2\n        /* \"#utility.yul\":4303:4341   */\n      sub\n        /* \"#utility.yul\":4300:4384   */\n      tag_218\n      jumpi\n        /* \"#utility.yul\":4356:4374   */\n      tag_219\n      tag_157\n      jump\t// in\n    tag_219:\n        /* \"#utility.yul\":4300:4384   */\n    tag_218:\n        /* \"#utility.yul\":4121:4390   */\n      pop\n        /* \"#utility.yul\":4070:4390   */\n      swap2\n      swap1\n      pop\n      jump\t// out\n        /* \"#utility.yul\":4396:4622   */\n    tag_158:\n        /* \"#utility.yul\":4536:4570   */\n      0x496e73756666696369656e74207374616b65642062616c616e636520746f2077\n        /* \"#utility.yul\":4532:4533   */\n      0x00\n        /* \"#utility.yul\":4524:4530   */\n      dup3\n        /* \"#utility.yul\":4520:4534   */\n      add\n        /* \"#utility.yul\":4513:4571   */\n      mstore\n        /* \"#utility.yul\":4605:4614   */\n      0x6974686472617700000000000000000000000000000000000000000000000000\n        /* \"#utility.yul\":4600:4602   */\n      0x20\n        /* \"#utility.yul\":4592:4598   */\n      dup3\n        /* \"#utility.yul\":4588:4603   */\n      add\n        /* \"#utility.yul\":4581:4615   */\n      mstore\n        /* \"#utility.yul\":4396:4622   */\n      pop\n      jump\t// out\n        /* \"#utility.yul\":4628:4994   */\n    tag_159:\n        /* \"#utility.yul\":4770:4773   */\n      0x00\n        /* \"#utility.yul\":4791:4858   */\n      tag_222\n        /* \"#utility.yul\":4855:4857   */\n      0x27\n        /* \"#utility.yul\":4850:4853   */\n      dup4\n        /* \"#utility.yul\":4791:4858   */\n      tag_142\n      jump\t// in\n    tag_222:\n        /* \"#utility.yul\":4784:4858   */\n      swap2\n      pop\n        /* \"#utility.yul\":4867:4960   */\n      tag_223\n        /* \"#utility.yul\":4956:4959   */\n      dup3\n        /* \"#utility.yul\":4867:4960   */\n      tag_158\n      jump\t// in\n    tag_223:\n        /* \"#utility.yul\":4985:4987   */\n      0x40\n        /* \"#utility.yul\":4980:4983   */\n      dup3\n        /* \"#utility.yul\":4976:4988   */\n      add\n        /* \"#utility.yul\":4969:4988   */\n      swap1\n      pop\n        /* \"#utility.yul\":4628:4994   */\n      swap2\n      swap1\n      pop\n      jump\t// out\n        /* \"#utility.yul\":5000:5419   */\n    tag_94:\n        /* \"#utility.yul\":5166:5170   */\n      0x00\n        /* \"#utility.yul\":5204:5206   */\n      0x20\n        /* \"#utility.yul\":5193:5202   */\n      dup3\n        /* \"#utility.yul\":5189:5207   */\n      add\n        /* \"#utility.yul\":5181:5207   */\n      swap1\n      pop\n        /* \"#utility.yul\":5253:5262   */\n      dup2\n        /* \"#utility.yul\":5247:5251   */\n      dup2\n        /* \"#utility.yul\":5243:5263   */\n      sub\n        /* \"#utility.yul\":5239:5240   */\n      0x00\n        /* \"#utility.yul\":5228:5237   */\n      dup4\n        /* \"#utility.yul\":5224:5241   */\n      add\n        /* \"#utility.yul\":5217:5264   */\n      mstore\n        /* \"#utility.yul\":5281:5412   */\n      tag_225\n        /* \"#utility.yul\":5407:5411   */\n      dup2\n        /* \"#utility.yul\":5281:5412   */\n      tag_159\n      jump\t// in\n    tag_225:\n        /* \"#utility.yul\":5273:5412   */\n      swap1\n      pop\n        /* \"#utility.yul\":5000:5419   */\n      swap2\n      swap1\n      pop\n      jump\t// out\n        /* \"#utility.yul\":5425:5605   */\n    tag_160:\n        /* \"#utility.yul\":5473:5550   */\n      0x4e487b7100000000000000000000000000000000000000000000000000000000\n        /* \"#utility.yul\":5470:5471   */\n      0x00\n        /* \"#utility.yul\":5463:5551   */\n      mstore\n        /* \"#utility.yul\":5570:5574   */\n      0x11\n        /* \"#utility.yul\":5567:5568   */\n      0x04\n        /* \"#utility.yul\":5560:5575   */\n      mstore\n        /* \"#utility.yul\":5594:5598   */\n      0x24\n        /* \"#utility.yul\":5591:5592   */\n      0x00\n        /* \"#utility.yul\":5584:5599   */\n      revert\n        /* \"#utility.yul\":5611:5805   */\n    tag_98:\n        /* \"#utility.yul\":5651:5655   */\n      0x00\n        /* \"#utility.yul\":5671:5691   */\n      tag_228\n        /* \"#utility.yul\":5689:5690   */\n      dup3\n        /* \"#utility.yul\":5671:5691   */\n      tag_139\n      jump\t// in\n    tag_228:\n        /* \"#utility.yul\":5666:5691   */\n      swap2\n      pop\n        /* \"#utility.yul\":5705:5725   */\n      tag_229\n        /* \"#utility.yul\":5723:5724   */\n      dup4\n        /* \"#utility.yul\":5705:5725   */\n      tag_139\n      jump\t// in\n    tag_229:\n        /* \"#utility.yul\":5700:5725   */\n      swap3\n      pop\n        /* \"#utility.yul\":5749:5750   */\n      dup3\n        /* \"#utility.yul\":5746:5747   */\n      dup3\n        /* \"#utility.yul\":5742:5751   */\n      sub\n        /* \"#utility.yul\":5734:5751   */\n      swap1\n      pop\n        /* \"#utility.yul\":5773:5774   */\n      dup2\n        /* \"#utility.yul\":5767:5771   */\n      dup2\n        /* \"#utility.yul\":5764:5775   */\n      gt\n        /* \"#utility.yul\":5761:5798   */\n      iszero\n      tag_230\n      jumpi\n        /* \"#utility.yul\":5778:5796   */\n      tag_231\n      tag_160\n      jump\t// in\n    tag_231:\n        /* \"#utility.yul\":5761:5798   */\n    tag_230:\n        /* \"#utility.yul\":5611:5805   */\n      swap3\n      swap2\n      pop\n      pop\n      jump\t// out\n        /* \"#utility.yul\":5811:6002   */\n    tag_100:\n        /* \"#utility.yul\":5851:5854   */\n      0x00\n        /* \"#utility.yul\":5870:5890   */\n      tag_233\n        /* \"#utility.yul\":5888:5889   */\n      dup3\n        /* \"#utility.yul\":5870:5890   */\n      tag_139\n      jump\t// in\n    tag_233:\n        /* \"#utility.yul\":5865:5890   */\n      swap2\n      pop\n        /* \"#utility.yul\":5904:5924   */\n      tag_234\n        /* \"#utility.yul\":5922:5923   */\n      dup4\n        /* \"#utility.yul\":5904:5924   */\n      tag_139\n      jump\t// in\n    tag_234:\n        /* \"#utility.yul\":5899:5924   */\n      swap3\n      pop\n        /* \"#utility.yul\":5947:5948   */\n      dup3\n        /* \"#utility.yul\":5944:5945   */\n      dup3\n        /* \"#utility.yul\":5940:5949   */\n      add\n        /* \"#utility.yul\":5933:5949   */\n      swap1\n      pop\n        /* \"#utility.yul\":5968:5971   */\n      dup1\n        /* \"#utility.yul\":5965:5966   */\n      dup3\n        /* \"#utility.yul\":5962:5972   */\n      gt\n        /* \"#utility.yul\":5959:5995   */\n      iszero\n      tag_235\n      jumpi\n        /* \"#utility.yul\":5975:5993   */\n      tag_236\n      tag_160\n      jump\t// in\n    tag_236:\n        /* \"#utility.yul\":5959:5995   */\n    tag_235:\n        /* \"#utility.yul\":5811:6002   */\n      swap3\n      swap2\n      pop\n      pop\n      jump\t// out\n        /* \"#utility.yul\":6008:6177   */\n    tag_161:\n        /* \"#utility.yul\":6148:6169   */\n      0x4e6f207265776172647320746f20636c61696d00000000000000000000000000\n        /* \"#utility.yul\":6144:6145   */\n      0x00\n        /* \"#utility.yul\":6136:6142   */\n      dup3\n        /* \"#utility.yul\":6132:6146   */\n      add\n        /* \"#utility.yul\":6125:6170   */\n      mstore\n        /* \"#utility.yul\":6008:6177   */\n      pop\n      jump\t// out\n        /* \"#utility.yul\":6183:6549   */\n    tag_162:\n        /* \"#utility.yul\":6325:6328   */\n      0x00\n        /* \"#utility.yul\":6346:6413   */\n      tag_239\n        /* \"#utility.yul\":6410:6412   */\n      0x13\n        /* \"#utility.yul\":6405:6408   */\n      dup4\n        /* \"#utility.yul\":6346:6413   */\n      tag_142\n      jump\t// in\n    tag_239:\n        /* \"#utility.yul\":6339:6413   */\n      swap2\n      pop\n        /* \"#utility.yul\":6422:6515   */\n      tag_240\n        /* \"#utility.yul\":6511:6514   */\n      dup3\n        /* \"#utility.yul\":6422:6515   */\n      tag_161\n      jump\t// in\n    tag_240:\n        /* \"#utility.yul\":6540:6542   */\n      0x20\n        /* \"#utility.yul\":6535:6538   */\n      dup3\n        /* \"#utility.yul\":6531:6543   */\n      add\n        /* \"#utility.yul\":6524:6543   */\n      swap1\n      pop\n        /* \"#utility.yul\":6183:6549   */\n      swap2\n      swap1\n      pop\n      jump\t// out\n        /* \"#utility.yul\":6555:6974   */\n    tag_105:\n        /* \"#utility.yul\":6721:6725   */\n      0x00\n        /* \"#utility.yul\":6759:6761   */\n      0x20\n        /* \"#utility.yul\":6748:6757   */\n      dup3\n        /* \"#utility.yul\":6744:6762   */\n      add\n        /* \"#utility.yul\":6736:6762   */\n      swap1\n      pop\n        /* \"#utility.yul\":6808:6817   */\n      dup2\n        /* \"#utility.yul\":6802:6806   */\n      dup2\n        /* \"#utility.yul\":6798:6818   */\n      sub\n        /* \"#utility.yul\":6794:6795   */\n      0x00\n        /* \"#utility.yul\":6783:6792   */\n      dup4\n        /* \"#utility.yul\":6779:6796   */\n      add\n        /* \"#utility.yul\":6772:6819   */\n      mstore\n        /* \"#utility.yul\":6836:6967   */\n      tag_242\n        /* \"#utility.yul\":6962:6966   */\n      dup2\n        /* \"#utility.yul\":6836:6967   */\n      tag_162\n      jump\t// in\n    tag_242:\n        /* \"#utility.yul\":6828:6967   */\n      swap1\n      pop\n        /* \"#utility.yul\":6555:6974   */\n      swap2\n      swap1\n      pop\n      jump\t// out\n        /* \"#utility.yul\":6980:7082   */\n    tag_163:\n        /* \"#utility.yul\":7022:7030   */\n      0x00\n        /* \"#utility.yul\":7069:7074   */\n      dup2\n        /* \"#utility.yul\":7066:7067   */\n      0x01\n        /* \"#utility.yul\":7062:7075   */\n      shr\n        /* \"#utility.yul\":7041:7075   */\n      swap1\n      pop\n        /* \"#utility.yul\":6980:7082   */\n      swap2\n      swap1\n      pop\n      jump\t// out\n        /* \"#utility.yul\":7088:7936   */\n    tag_164:\n        /* \"#utility.yul\":7149:7154   */\n      0x00\n        /* \"#utility.yul\":7156:7160   */\n      dup1\n        /* \"#utility.yul\":7180:7186   */\n      dup3\n        /* \"#utility.yul\":7171:7186   */\n      swap2\n      pop\n        /* \"#utility.yul\":7204:7209   */\n      dup4\n        /* \"#utility.yul\":7195:7209   */\n      swap1\n      pop\n        /* \"#utility.yul\":7218:7930   */\n    tag_245:\n        /* \"#utility.yul\":7239:7240   */\n      0x01\n        /* \"#utility.yul\":7229:7237   */\n      dup6\n        /* \"#utility.yul\":7226:7241   */\n      gt\n        /* \"#utility.yul\":7218:7930   */\n      iszero\n      tag_247\n      jumpi\n        /* \"#utility.yul\":7334:7338   */\n      dup1\n        /* \"#utility.yul\":7329:7332   */\n      dup7\n        /* \"#utility.yul\":7325:7339   */\n      div\n        /* \"#utility.yul\":7319:7323   */\n      dup2\n        /* \"#utility.yul\":7316:7340   */\n      gt\n        /* \"#utility.yul\":7313:7363   */\n      iszero\n      tag_248\n      jumpi\n        /* \"#utility.yul\":7343:7361   */\n      tag_249\n      tag_160\n      jump\t// in\n    tag_249:\n        /* \"#utility.yul\":7313:7363   */\n    tag_248:\n        /* \"#utility.yul\":7393:7394   */\n      0x01\n        /* \"#utility.yul\":7383:7391   */\n      dup6\n        /* \"#utility.yul\":7379:7395   */\n      and\n        /* \"#utility.yul\":7376:7827   */\n      iszero\n      tag_250\n      jumpi\n        /* \"#utility.yul\":7808:7812   */\n      dup1\n        /* \"#utility.yul\":7801:7806   */\n      dup3\n        /* \"#utility.yul\":7797:7813   */\n      mul\n        /* \"#utility.yul\":7788:7813   */\n      swap2\n      pop\n        /* \"#utility.yul\":7376:7827   */\n    tag_250:\n        /* \"#utility.yul\":7858:7862   */\n      dup1\n        /* \"#utility.yul\":7852:7856   */\n      dup2\n        /* \"#utility.yul\":7848:7863   */\n      mul\n        /* \"#utility.yul\":7840:7863   */\n      swap1\n      pop\n        /* \"#utility.yul\":7888:7920   */\n      tag_251\n        /* \"#utility.yul\":7911:7919   */\n      dup6\n        /* \"#utility.yul\":7888:7920   */\n      tag_163\n      jump\t// in\n    tag_251:\n        /* \"#utility.yul\":7876:7920   */\n      swap5\n      pop\n        /* \"#utility.yul\":7218:7930   */\n      jump(tag_245)\n    tag_247:\n        /* \"#utility.yul\":7088:7936   */\n      swap5\n      pop\n      swap5\n      swap3\n      pop\n      pop\n      pop\n      jump\t// out\n        /* \"#utility.yul\":7942:9015   */\n    tag_165:\n        /* \"#utility.yul\":7996:8001   */\n      0x00\n        /* \"#utility.yul\":8187:8195   */\n      dup3\n        /* \"#utility.yul\":8177:8217   */\n      tag_253\n      jumpi\n        /* \"#utility.yul\":8208:8209   */\n      0x01\n        /* \"#utility.yul\":8199:8209   */\n      swap1\n      pop\n        /* \"#utility.yul\":8210:8215   */\n      jump(tag_252)\n        /* \"#utility.yul\":8177:8217   */\n    tag_253:\n        /* \"#utility.yul\":8236:8240   */\n      dup2\n        /* \"#utility.yul\":8226:8262   */\n      tag_254\n      jumpi\n        /* \"#utility.yul\":8253:8254   */\n      0x00\n        /* \"#utility.yul\":8244:8254   */\n      swap1\n      pop\n        /* \"#utility.yul\":8255:8260   */\n      jump(tag_252)\n        /* \"#utility.yul\":8226:8262   */\n    tag_254:\n        /* \"#utility.yul\":8322:8326   */\n      dup2\n        /* \"#utility.yul\":8370:8371   */\n      0x01\n        /* \"#utility.yul\":8365:8392   */\n      dup2\n      eq\n      tag_256\n      jumpi\n        /* \"#utility.yul\":8406:8407   */\n      0x02\n        /* \"#utility.yul\":8401:8592   */\n      dup2\n      eq\n      tag_257\n      jumpi\n        /* \"#utility.yul\":8315:8592   */\n      jump(tag_255)\n        /* \"#utility.yul\":8365:8392   */\n    tag_256:\n        /* \"#utility.yul\":8383:8384   */\n      0x01\n        /* \"#utility.yul\":8374:8384   */\n      swap2\n      pop\n        /* \"#utility.yul\":8385:8390   */\n      pop\n      jump(tag_252)\n        /* \"#utility.yul\":8401:8592   */\n    tag_257:\n        /* \"#utility.yul\":8446:8449   */\n      0xff\n        /* \"#utility.yul\":8436:8444   */\n      dup5\n        /* \"#utility.yul\":8433:8450   */\n      gt\n        /* \"#utility.yul\":8430:8473   */\n      iszero\n      tag_258\n      jumpi\n        /* \"#utility.yul\":8453:8471   */\n      tag_259\n      tag_160\n      jump\t// in\n    tag_259:\n        /* \"#utility.yul\":8430:8473   */\n    tag_258:\n        /* \"#utility.yul\":8502:8510   */\n      dup4\n        /* \"#utility.yul\":8499:8500   */\n      0x02\n        /* \"#utility.yul\":8495:8511   */\n      exp\n        /* \"#utility.yul\":8486:8511   */\n      swap2\n      pop\n        /* \"#utility.yul\":8537:8540   */\n      dup5\n        /* \"#utility.yul\":8530:8535   */\n      dup3\n        /* \"#utility.yul\":8527:8541   */\n      gt\n        /* \"#utility.yul\":8524:8564   */\n      iszero\n      tag_260\n      jumpi\n        /* \"#utility.yul\":8544:8562   */\n      tag_261\n      tag_160\n      jump\t// in\n    tag_261:\n        /* \"#utility.yul\":8524:8564   */\n    tag_260:\n        /* \"#utility.yul\":8577:8582   */\n      pop\n      jump(tag_252)\n        /* \"#utility.yul\":8315:8592   */\n    tag_255:\n      pop\n        /* \"#utility.yul\":8701:8703   */\n      0x20\n        /* \"#utility.yul\":8691:8699   */\n      dup4\n        /* \"#utility.yul\":8688:8704   */\n      lt\n        /* \"#utility.yul\":8682:8685   */\n      0x0133\n        /* \"#utility.yul\":8676:8680   */\n      dup4\n        /* \"#utility.yul\":8673:8686   */\n      lt\n        /* \"#utility.yul\":8669:8705   */\n      and\n        /* \"#utility.yul\":8651:8653   */\n      0x4e\n        /* \"#utility.yul\":8641:8649   */\n      dup5\n        /* \"#utility.yul\":8638:8654   */\n      lt\n        /* \"#utility.yul\":8633:8635   */\n      0x0b\n        /* \"#utility.yul\":8627:8631   */\n      dup5\n        /* \"#utility.yul\":8624:8636   */\n      lt\n        /* \"#utility.yul\":8620:8655   */\n      and\n        /* \"#utility.yul\":8604:8715   */\n      or\n        /* \"#utility.yul\":8601:8847   */\n      iszero\n      tag_262\n      jumpi\n        /* \"#utility.yul\":8757:8765   */\n      dup3\n        /* \"#utility.yul\":8751:8755   */\n      dup3\n        /* \"#utility.yul\":8747:8766   */\n      exp\n        /* \"#utility.yul\":8738:8766   */\n      swap1\n      pop\n        /* \"#utility.yul\":8792:8795   */\n      dup4\n        /* \"#utility.yul\":8785:8790   */\n      dup2\n        /* \"#utility.yul\":8782:8796   */\n      gt\n        /* \"#utility.yul\":8779:8819   */\n      iszero\n      tag_263\n      jumpi\n        /* \"#utility.yul\":8799:8817   */\n      tag_264\n      tag_160\n      jump\t// in\n    tag_264:\n        /* \"#utility.yul\":8779:8819   */\n    tag_263:\n        /* \"#utility.yul\":8832:8837   */\n      jump(tag_252)\n        /* \"#utility.yul\":8601:8847   */\n    tag_262:\n        /* \"#utility.yul\":8872:8914   */\n      tag_265\n        /* \"#utility.yul\":8910:8913   */\n      dup5\n        /* \"#utility.yul\":8900:8908   */\n      dup5\n        /* \"#utility.yul\":8894:8898   */\n      dup5\n        /* \"#utility.yul\":8891:8892   */\n      0x01\n        /* \"#utility.yul\":8872:8914   */\n      tag_164\n      jump\t// in\n    tag_265:\n        /* \"#utility.yul\":8857:8914   */\n      swap3\n      pop\n      swap1\n      pop\n        /* \"#utility.yul\":8946:8950   */\n      dup2\n        /* \"#utility.yul\":8941:8944   */\n      dup5\n        /* \"#utility.yul\":8937:8951   */\n      div\n        /* \"#utility.yul\":8930:8935   */\n      dup2\n        /* \"#utility.yul\":8927:8952   */\n      gt\n        /* \"#utility.yul\":8924:8975   */\n      iszero\n      tag_266\n      jumpi\n        /* \"#utility.yul\":8955:8973   */\n      tag_267\n      tag_160\n      jump\t// in\n    tag_267:\n        /* \"#utility.yul\":8924:8975   */\n    tag_266:\n        /* \"#utility.yul\":9004:9008   */\n      dup2\n        /* \"#utility.yul\":8997:9002   */\n      dup2\n        /* \"#utility.yul\":8993:9009   */\n      mul\n        /* \"#utility.yul\":8984:9009   */\n      swap1\n      pop\n        /* \"#utility.yul\":7942:9015   */\n    tag_252:\n      swap4\n      swap3\n      pop\n      pop\n      pop\n      jump\t// out\n        /* \"#utility.yul\":9021:9302   */\n    tag_112:\n        /* \"#utility.yul\":9079:9084   */\n      0x00\n        /* \"#utility.yul\":9103:9126   */\n      tag_269\n        /* \"#utility.yul\":9121:9125   */\n      dup3\n        /* \"#utility.yul\":9103:9126   */\n      tag_139\n      jump\t// in\n    tag_269:\n        /* \"#utility.yul\":9095:9126   */\n      swap2\n      pop\n        /* \"#utility.yul\":9147:9172   */\n      tag_270\n        /* \"#utility.yul\":9163:9171   */\n      dup4\n        /* \"#utility.yul\":9147:9172   */\n      tag_151\n      jump\t// in\n    tag_270:\n        /* \"#utility.yul\":9135:9172   */\n      swap3\n      pop\n        /* \"#utility.yul\":9191:9295   */\n      tag_271\n        /* \"#utility.yul\":9228:9294   */\n      0xffffffffffffffffffffffffffffffffffffffffffffffffffffffffffffffff\n        /* \"#utility.yul\":9218:9226   */\n      dup5\n        /* \"#utility.yul\":9212:9216   */\n      dup5\n        /* \"#utility.yul\":9191:9295   */\n      tag_165\n      jump\t// in\n    tag_271:\n        /* \"#utility.yul\":9182:9295   */\n      swap1\n      pop\n        /* \"#utility.yul\":9021:9302   */\n      swap3\n      swap2\n      pop\n      pop\n      jump\t// out\n        /* \"#utility.yul\":9308:9718   */\n    tag_114:\n        /* \"#utility.yul\":9348:9355   */\n      0x00\n        /* \"#utility.yul\":9371:9391   */\n      tag_273\n        /* \"#utility.yul\":9389:9390   */\n      dup3\n        /* \"#utility.yul\":9371:9391   */\n      tag_139\n      jump\t// in\n    tag_273:\n        /* \"#utility.yul\":9366:9391   */\n      swap2\n      pop\n        /* \"#utility.yul\":9405:9425   */\n      tag_274\n        /* \"#utility.yul\":9423:9424   */\n      dup4\n        /* \"#utility.yul\":9405:9425   */\n      tag_139\n      jump\t// in\n    tag_274:\n        /* \"#utility.yul\":9400:9425   */\n      swap3\n      pop\n        /* \"#utility.yul\":9460:9461   */\n      dup3\n        /* \"#utility.yul\":9457:9458   */\n      dup3\n        /* \"#utility.yul\":9453:9462   */\n      mul\n        /* \"#utility.yul\":9482:9512   */\n      tag_275\n        /* \"#utility.yul\":9500:9511   */\n      dup2\n        /* \"#utility.yul\":9482:9512   */\n      tag_139\n      jump\t// in\n    tag_275:\n        /* \"#utility.yul\":9471:9512   */\n      swap2\n      pop\n        /* \"#utility.yul\":9661:9662   */\n      dup3\n        /* \"#utility.yul\":9652:9659   */\n      dup3\n        /* \"#utility.yul\":9648:9663   */\n      div\n        /* \"#utility.yul\":9645:9646   */\n      dup5\n        /* \"#utility.yul\":9642:9664   */\n      eq\n        /* \"#utility.yul\":9622:9623   */\n      dup4\n        /* \"#utility.yul\":9615:9624   */\n      iszero\n        /* \"#utility.yul\":9595:9678   */\n      or\n        /* \"#utility.yul\":9572:9711   */\n      tag_276\n      jumpi\n        /* \"#utility.yul\":9691:9709   */\n      tag_277\n      tag_160\n      jump\t// in\n    tag_277:\n        /* \"#utility.yul\":9572:9711   */\n    tag_276:\n        /* \"#utility.yul\":9356:9718   */\n      pop\n        /* \"#utility.yul\":9308:9718   */\n      swap3\n      swap2\n      pop\n      pop\n      jump\t// out\n        /* \"#utility.yul\":9724:9904   */\n    tag_166:\n        /* \"#utility.yul\":9772:9849   */\n      0x4e487b7100000000000000000000000000000000000000000000000000000000\n        /* \"#utility.yul\":9769:9770   */\n      0x00\n        /* \"#utility.yul\":9762:9850   */\n      mstore\n        /* \"#utility.yul\":9869:9873   */\n      0x12\n        /* \"#utility.yul\":9866:9867   */\n      0x04\n        /* \"#utility.yul\":9859:9874   */\n      mstore\n        /* \"#utility.yul\":9893:9897   */\n      0x24\n        /* \"#utility.yul\":9890:9891   */\n      0x00\n        /* \"#utility.yul\":9883:9898   */\n      revert\n        /* \"#utility.yul\":9910:10095   */\n    tag_117:\n        /* \"#utility.yul\":9950:9951   */\n      0x00\n        /* \"#utility.yul\":9967:9987   */\n      tag_280\n        /* \"#utility.yul\":9985:9986   */\n      dup3\n        /* \"#utility.yul\":9967:9987   */\n      tag_139\n      jump\t// in\n    tag_280:\n        /* \"#utility.yul\":9962:9987   */\n      swap2\n      pop\n        /* \"#utility.yul\":10001:10021   */\n      tag_281\n        /* \"#utility.yul\":10019:10020   */\n      dup4\n        /* \"#utility.yul\":10001:10021   */\n      tag_139\n      jump\t// in\n    tag_281:\n        /* \"#utility.yul\":9996:10021   */\n      swap3\n      pop\n        /* \"#utility.yul\":10040:10041   */\n      dup3\n        /* \"#utility.yul\":10030:10065   */\n      tag_282\n      jumpi\n        /* \"#utility.yul\":10045:10063   */\n      tag_283\n      tag_166\n      jump\t// in\n    tag_283:\n        /* \"#utility.yul\":10030:10065   */\n    tag_282:\n        /* \"#utility.yul\":10087:10088   */\n      dup3\n        /* \"#utility.yul\":10084:10085   */\n      dup3\n        /* \"#utility.yul\":10080:10089   */\n      div\n        /* \"#utility.yul\":10075:10089   */\n      swap1\n      pop\n        /* \"#utility.yul\":9910:10095   */\n      swap3\n      swap2\n      pop\n      pop\n      jump\t// out\n        /* \"#utility.yul\":10101:10280   */\n    tag_167:\n        /* \"#utility.yul\":10241:10272   */\n      0x496e73756666696369656e742062616c616e636520746f207374616b65000000\n        /* \"#utility.yul\":10237:10238   */\n      0x00\n        /* \"#utility.yul\":10229:10235   */\n      dup3\n        /* \"#utility.yul\":10225:10239   */\n      add\n        /* \"#utility.yul\":10218:10273   */\n      mstore\n        /* \"#utility.yul\":10101:10280   */\n      pop\n      jump\t// out\n        /* \"#utility.yul\":10286:10652   */\n    tag_168:\n        /* \"#utility.yul\":10428:10431   */\n      0x00\n        /* \"#utility.yul\":10449:10516   */\n      tag_286\n        /* \"#utility.yul\":10513:10515   */\n      0x1d\n        /* \"#utility.yul\":10508:10511   */\n      dup4\n        /* \"#utility.yul\":10449:10516   */\n      tag_142\n      jump\t// in\n    tag_286:\n        /* \"#utility.yul\":10442:10516   */\n      swap2\n      pop\n        /* \"#utility.yul\":10525:10618   */\n      tag_287\n        /* \"#utility.yul\":10614:10617   */\n      dup3\n        /* \"#utility.yul\":10525:10618   */\n      tag_167\n      jump\t// in\n    tag_287:\n        /* \"#utility.yul\":10643:10645   */\n      0x20\n        /* \"#utility.yul\":10638:10641   */\n      dup3\n        /* \"#utility.yul\":10634:10646   */\n      add\n        /* \"#utility.yul\":10627:10646   */\n      swap1\n      pop\n        /* \"#utility.yul\":10286:10652   */\n      swap2\n      swap1\n      pop\n      jump\t// out\n        /* \"#utility.yul\":10658:11077   */\n    tag_127:\n        /* \"#utility.yul\":10824:10828   */\n      0x00\n        /* \"#utility.yul\":10862:10864   */\n      0x20\n        /* \"#utility.yul\":10851:10860   */\n      dup3\n        /* \"#utility.yul\":10847:10865   */\n      add\n        /* \"#utility.yul\":10839:10865   */\n      swap1\n      pop\n        /* \"#utility.yul\":10911:10920   */\n      dup2\n        /* \"#utility.yul\":10905:10909   */\n      dup2\n        /* \"#utility.yul\":10901:10921   */\n      sub\n        /* \"#utility.yul\":10897:10898   */\n      0x00\n        /* \"#utility.yul\":10886:10895   */\n      dup4\n        /* \"#utility.yul\":10882:10899   */\n      add\n        /* \"#utility.yul\":10875:10922   */\n      mstore\n        /* \"#utility.yul\":10939:11070   */\n      tag_289\n        /* \"#utility.yul\":11065:11069   */\n      dup2\n        /* \"#utility.yul\":10939:11070   */\n      tag_168\n      jump\t// in\n    tag_289:\n        /* \"#utility.yul\":10931:11070   */\n      swap1\n      pop\n        /* \"#utility.yul\":10658:11077   */\n      swap2\n      swap1\n      pop\n      jump\t// out\n\n    auxdata: 0xa26469706673582212209a4dadbc6feb6687d7ff669d51eaf359f41ec87adfe749ce820892cc4680eb8d64736f6c634300081a0033\n}\n",
				"bytecode": {
					"linkReferences": {},
					"object": "60806040526040518060400160405280600d81526020017f5374616b696e6720546f6b656e000000000000000000000000000000000000008152505f90816100479190610363565b506040518060400160405280600581526020017f5354414b450000000000000000000000000000000000000000000000000000008152506001908161008c9190610363565b50601260025f6101000a81548160ff021916908360ff16021790555060016008553480156100b8575f80fd5b5060405161179038038061179083398181016040528101906100da9190610460565b806003819055508060045f3373ffffffffffffffffffffffffffffffffffffffff1673ffffffffffffffffffffffffffffffffffffffff1681526020019081526020015f20819055505061048b565b5f81519050919050565b7f4e487b71000000000000000000000000000000000000000000000000000000005f52604160045260245ffd5b7f4e487b71000000000000000000000000000000000000000000000000000000005f52602260045260245ffd5b5f60028204905060018216806101a457607f821691505b6020821081036101b7576101b6610160565b5b50919050565b5f819050815f5260205f209050919050565b5f6020601f8301049050919050565b5f82821b905092915050565b5f600883026102197fffffffffffffffffffffffffffffffffffffffffffffffffffffffffffffffff826101de565b61022386836101de565b95508019841693508086168417925050509392505050565b5f819050919050565b5f819050919050565b5f61026761026261025d8461023b565b610244565b61023b565b9050919050565b5f819050919050565b6102808361024d565b61029461028c8261026e565b8484546101ea565b825550505050565b5f90565b6102a861029c565b6102b3818484610277565b505050565b5b818110156102d6576102cb5f826102a0565b6001810190506102b9565b5050565b601f82111561031b576102ec816101bd565b6102f5846101cf565b81016020851015610304578190505b610318610310856101cf565b8301826102b8565b50505b505050565b5f82821c905092915050565b5f61033b5f1984600802610320565b1980831691505092915050565b5f610353838361032c565b9150826002028217905092915050565b61036c82610129565b67ffffffffffffffff81111561038557610384610133565b5b61038f825461018d565b61039a8282856102da565b5f60209050601f8311600181146103cb575f84156103b9578287015190505b6103c38582610348565b86555061042a565b601f1984166103d9866101bd565b5f5b82811015610400578489015182556001820191506020850194506020810190506103db565b8683101561041d5784890151610419601f89168261032c565b8355505b6001600288020188555050505b505050505050565b5f80fd5b61043f8161023b565b8114610449575f80fd5b50565b5f8151905061045a81610436565b92915050565b5f6020828403121561047557610474610432565b5b5f6104828482850161044c565b91505092915050565b6112f8806104985f395ff3fe6080604052600436106100c5575f3560e01c8063602172671161007e57806370a082311161005857806370a08231146103045780638bfea4391461034057806395d89b411461037c578063a694fc3a146103a65761011a565b8063602172671461025057806364ab86751461028c5780636985e6d8146102c85761011a565b806306fdde031461016a57806318160ddd146101945780632e1a7d4d146101be578063313ce567146101e6578063372500ab146102105780635d773b2c146102265761011a565b3661011a573373ffffffffffffffffffffffffffffffffffffffff167f1e57e3bb474320be3d2c77138f75b7c3941292d647f5f9634e33a8e94e0e069b346040516101109190610ca2565b60405180910390a2005b3373ffffffffffffffffffffffffffffffffffffffff167f1e57e3bb474320be3d2c77138f75b7c3941292d647f5f9634e33a8e94e0e069b346040516101609190610ca2565b60405180910390a2005b348015610175575f80fd5b5061017e6103ce565b60405161018b9190610d2b565b60405180910390f35b34801561019f575f80fd5b506101a8610459565b6040516101b59190610ca2565b60405180910390f35b3480156101c9575f80fd5b506101e460048036038101906101df9190610d79565b61045f565b005b3480156101f1575f80fd5b506101fa610591565b6040516102079190610dbf565b60405180910390f35b34801561021b575f80fd5b506102246105a3565b005b348015610231575f80fd5b5061023a6106df565b6040516102479190610ca2565b60405180910390f35b34801561025b575f80fd5b5061027660048036038101906102719190610e32565b6106e5565b6040516102839190610ca2565b60405180910390f35b348015610297575f80fd5b506102b260048036038101906102ad9190610e32565b6106fa565b6040516102bf9190610ca2565b60405180910390f35b3480156102d3575f80fd5b506102ee60048036038101906102e99190610e32565b6108a1565b6040516102fb9190610ca2565b60405180910390f35b34801561030f575f80fd5b5061032a60048036038101906103259190610e32565b6108b6565b6040516103379190610ca2565b60405180910390f35b34801561034b575f80fd5b5061036660048036038101906103619190610e32565b6108cb565b6040516103739190610ca2565b60405180910390f35b348015610387575f80fd5b506103906108e0565b60405161039d9190610d2b565b60405180910390f35b3480156103b1575f80fd5b506103cc60048036038101906103c79190610d79565b61096c565b005b5f80546103da90610e8a565b80601f016020809104026020016040519081016040528092919081815260200182805461040690610e8a565b80156104515780601f1061042857610100808354040283529160200191610451565b820191905f5260205f20905b81548152906001019060200180831161043457829003601f168201915b505050505081565b60035481565b8060055f3373ffffffffffffffffffffffffffffffffffffffff1673ffffffffffffffffffffffffffffffffffffffff1681526020019081526020015f205410156104df576040517f08c379a00000000000000000000000000000000000000000000000000000000081526004016104d690610f2a565b60405180910390fd5b6104e833610ae0565b8060055f3373ffffffffffffffffffffffffffffffffffffffff1673ffffffffffffffffffffffffffffffffffffffff1681526020019081526020015f205f8282546105349190610f75565b925050819055508060045f3373ffffffffffffffffffffffffffffffffffffffff1673ffffffffffffffffffffffffffffffffffffffff1681526020019081526020015f205f8282546105879190610fa8565b9250508190555050565b60025f9054906101000a900460ff1681565b6105ac33610ae0565b5f60075f3373ffffffffffffffffffffffffffffffffffffffff1673ffffffffffffffffffffffffffffffffffffffff1681526020019081526020015f205490505f811161062f576040517f08c379a000000000000000000000000000000000000000000000000000000000815260040161062690611025565b60405180910390fd5b5f60075f3373ffffffffffffffffffffffffffffffffffffffff1673ffffffffffffffffffffffffffffffffffffffff1681526020019081526020015f20819055508060045f3373ffffffffffffffffffffffffffffffffffffffff1673ffffffffffffffffffffffffffffffffffffffff1681526020019081526020015f205f8282546106bd9190610fa8565b925050819055508060035f8282546106d59190610fa8565b9250508190555050565b60085481565b6005602052805f5260405f205f915090505481565b5f8060055f8473ffffffffffffffffffffffffffffffffffffffff1673ffffffffffffffffffffffffffffffffffffffff1681526020019081526020015f2054036107845760075f8373ffffffffffffffffffffffffffffffffffffffff1673ffffffffffffffffffffffffffffffffffffffff1681526020019081526020015f2054905061089c565b5f60065f8473ffffffffffffffffffffffffffffffffffffffff1673ffffffffffffffffffffffffffffffffffffffff1681526020019081526020015f2054426107ce9190610f75565b90505f60025f9054906101000a900460ff16600a6107ec9190611172565b60055f8673ffffffffffffffffffffffffffffffffffffffff1673ffffffffffffffffffffffffffffffffffffffff1681526020019081526020015f20546008548461083891906111bc565b61084291906111bc565b61084c919061122a565b90508060075f8673ffffffffffffffffffffffffffffffffffffffff1673ffffffffffffffffffffffffffffffffffffffff1681526020019081526020015f20546108979190610fa8565b925050505b919050565b6006602052805f5260405f205f915090505481565b6004602052805f5260405f205f915090505481565b6007602052805f5260405f205f915090505481565b600180546108ed90610e8a565b80601f016020809104026020016040519081016040528092919081815260200182805461091990610e8a565b80156109645780601f1061093b57610100808354040283529160200191610964565b820191905f5260205f20905b81548152906001019060200180831161094757829003601f168201915b505050505081565b8060045f3373ffffffffffffffffffffffffffffffffffffffff1673ffffffffffffffffffffffffffffffffffffffff1681526020019081526020015f205410156109ec576040517f08c379a00000000000000000000000000000000000000000000000000000000081526004016109e3906112a4565b60405180910390fd5b6109f533610ae0565b8060045f3373ffffffffffffffffffffffffffffffffffffffff1673ffffffffffffffffffffffffffffffffffffffff1681526020019081526020015f205f828254610a419190610f75565b925050819055508060055f3373ffffffffffffffffffffffffffffffffffffffff1673ffffffffffffffffffffffffffffffffffffffff1681526020019081526020015f205f828254610a949190610fa8565b925050819055504260065f3373ffffffffffffffffffffffffffffffffffffffff1673ffffffffffffffffffffffffffffffffffffffff1681526020019081526020015f208190555050565b5f60055f8373ffffffffffffffffffffffffffffffffffffffff1673ffffffffffffffffffffffffffffffffffffffff1681526020019081526020015f20541115610c87575f60065f8373ffffffffffffffffffffffffffffffffffffffff1673ffffffffffffffffffffffffffffffffffffffff1681526020019081526020015f205442610b6f9190610f75565b90505f60025f9054906101000a900460ff16600a610b8d9190611172565b60055f8573ffffffffffffffffffffffffffffffffffffffff1673ffffffffffffffffffffffffffffffffffffffff1681526020019081526020015f205460085484610bd991906111bc565b610be391906111bc565b610bed919061122a565b90508060075f8573ffffffffffffffffffffffffffffffffffffffff1673ffffffffffffffffffffffffffffffffffffffff1681526020019081526020015f205f828254610c3b9190610fa8565b925050819055504260065f8573ffffffffffffffffffffffffffffffffffffffff1673ffffffffffffffffffffffffffffffffffffffff1681526020019081526020015f208190555050505b50565b5f819050919050565b610c9c81610c8a565b82525050565b5f602082019050610cb55f830184610c93565b92915050565b5f81519050919050565b5f82825260208201905092915050565b8281835e5f83830152505050565b5f601f19601f8301169050919050565b5f610cfd82610cbb565b610d078185610cc5565b9350610d17818560208601610cd5565b610d2081610ce3565b840191505092915050565b5f6020820190508181035f830152610d438184610cf3565b905092915050565b5f80fd5b610d5881610c8a565b8114610d62575f80fd5b50565b5f81359050610d7381610d4f565b92915050565b5f60208284031215610d8e57610d8d610d4b565b5b5f610d9b84828501610d65565b91505092915050565b5f60ff82169050919050565b610db981610da4565b82525050565b5f602082019050610dd25f830184610db0565b92915050565b5f73ffffffffffffffffffffffffffffffffffffffff82169050919050565b5f610e0182610dd8565b9050919050565b610e1181610df7565b8114610e1b575f80fd5b50565b5f81359050610e2c81610e08565b92915050565b5f60208284031215610e4757610e46610d4b565b5b5f610e5484828501610e1e565b91505092915050565b7f4e487b71000000000000000000000000000000000000000000000000000000005f52602260045260245ffd5b5f6002820490506001821680610ea157607f821691505b602082108103610eb457610eb3610e5d565b5b50919050565b7f496e73756666696369656e74207374616b65642062616c616e636520746f20775f8201527f6974686472617700000000000000000000000000000000000000000000000000602082015250565b5f610f14602783610cc5565b9150610f1f82610eba565b604082019050919050565b5f6020820190508181035f830152610f4181610f08565b9050919050565b7f4e487b71000000000000000000000000000000000000000000000000000000005f52601160045260245ffd5b5f610f7f82610c8a565b9150610f8a83610c8a565b9250828203905081811115610fa257610fa1610f48565b5b92915050565b5f610fb282610c8a565b9150610fbd83610c8a565b9250828201905080821115610fd557610fd4610f48565b5b92915050565b7f4e6f207265776172647320746f20636c61696d000000000000000000000000005f82015250565b5f61100f601383610cc5565b915061101a82610fdb565b602082019050919050565b5f6020820190508181035f83015261103c81611003565b9050919050565b5f8160011c9050919050565b5f808291508390505b60018511156110985780860481111561107457611073610f48565b5b60018516156110835780820291505b808102905061109185611043565b9450611058565b94509492505050565b5f826110b0576001905061116b565b816110bd575f905061116b565b81600181146110d357600281146110dd5761110c565b600191505061116b565b60ff8411156110ef576110ee610f48565b5b8360020a91508482111561110657611105610f48565b5b5061116b565b5060208310610133831016604e8410600b84101617156111415782820a90508381111561113c5761113b610f48565b5b61116b565b61114e848484600161104f565b9250905081840481111561116557611164610f48565b5b81810290505b9392505050565b5f61117c82610c8a565b915061118783610da4565b92506111b47fffffffffffffffffffffffffffffffffffffffffffffffffffffffffffffffff84846110a1565b905092915050565b5f6111c682610c8a565b91506111d183610c8a565b92508282026111df81610c8a565b915082820484148315176111f6576111f5610f48565b5b5092915050565b7f4e487b71000000000000000000000000000000000000000000000000000000005f52601260045260245ffd5b5f61123482610c8a565b915061123f83610c8a565b92508261124f5761124e6111fd565b5b828204905092915050565b7f496e73756666696369656e742062616c616e636520746f207374616b650000005f82015250565b5f61128e601d83610cc5565b91506112998261125a565b602082019050919050565b5f6020820190508181035f8301526112bb81611282565b905091905056fea26469706673582212209a4dadbc6feb6687d7ff669d51eaf359f41ec87adfe749ce820892cc4680eb8d64736f6c634300081a0033",
					"opcodes": "PUSH1 0x80 PUSH1 0x40 MSTORE PUSH1 0x40 MLOAD DUP1 PUSH1 0x40 ADD PUSH1 0x40 MSTORE DUP1 PUSH1 0xD DUP2 MSTORE PUSH1 0x20 ADD PUSH32 0x5374616B696E6720546F6B656E00000000000000000000000000000000000000 DUP2 MSTORE POP PUSH0 SWAP1 DUP2 PUSH2 0x47 SWAP2 SWAP1 PUSH2 0x363 JUMP JUMPDEST POP PUSH1 0x40 MLOAD DUP1 PUSH1 0x40 ADD PUSH1 0x40 MSTORE DUP1 PUSH1 0x5 DUP2 MSTORE PUSH1 0x20 ADD PUSH32 0x5354414B45000000000000000000000000000000000000000000000000000000 DUP2 MSTORE POP PUSH1 0x1 SWAP1 DUP2 PUSH2 0x8C SWAP2 SWAP1 PUSH2 0x363 JUMP JUMPDEST POP PUSH1 0x12 PUSH1 0x2 PUSH0 PUSH2 0x100 EXP DUP2 SLOAD DUP2 PUSH1 0xFF MUL NOT AND SWAP1 DUP4 PUSH1 0xFF AND MUL OR SWAP1 SSTORE POP PUSH1 0x1 PUSH1 0x8 SSTORE CALLVALUE DUP1 ISZERO PUSH2 0xB8 JUMPI PUSH0 DUP1 REVERT JUMPDEST POP PUSH1 0x40 MLOAD PUSH2 0x1790 CODESIZE SUB DUP1 PUSH2 0x1790 DUP4 CODECOPY DUP2 DUP2 ADD PUSH1 0x40 MSTORE DUP2 ADD SWAP1 PUSH2 0xDA SWAP2 SWAP1 PUSH2 0x460 JUMP JUMPDEST DUP1 PUSH1 0x3 DUP2 SWAP1 SSTORE POP DUP1 PUSH1 0x4 PUSH0 CALLER PUSH20 0xFFFFFFFFFFFFFFFFFFFFFFFFFFFFFFFFFFFFFFFF AND PUSH20 0xFFFFFFFFFFFFFFFFFFFFFFFFFFFFFFFFFFFFFFFF AND DUP2 MSTORE PUSH1 0x20 ADD SWAP1 DUP2 MSTORE PUSH1 0x20 ADD PUSH0 KECCAK256 DUP2 SWAP1 SSTORE POP POP PUSH2 0x48B JUMP JUMPDEST PUSH0 DUP2 MLOAD SWAP1 POP SWAP2 SWAP1 POP JUMP JUMPDEST PUSH32 0x4E487B7100000000000000000000000000000000000000000000000000000000 PUSH0 MSTORE PUSH1 0x41 PUSH1 0x4 MSTORE PUSH1 0x24 PUSH0 REVERT JUMPDEST PUSH32 0x4E487B7100000000000000000000000000000000000000000000000000000000 PUSH0 MSTORE PUSH1 0x22 PUSH1 0x4 MSTORE PUSH1 0x24 PUSH0 REVERT JUMPDEST PUSH0 PUSH1 0x2 DUP3 DIV SWAP1 POP PUSH1 0x1 DUP3 AND DUP1 PUSH2 0x1A4 JUMPI PUSH1 0x7F DUP3 AND SWAP2 POP JUMPDEST PUSH1 0x20 DUP3 LT DUP2 SUB PUSH2 0x1B7 JUMPI PUSH2 0x1B6 PUSH2 0x160 JUMP JUMPDEST JUMPDEST POP SWAP2 SWAP1 POP JUMP JUMPDEST PUSH0 DUP2 SWAP1 POP DUP2 PUSH0 MSTORE PUSH1 0x20 PUSH0 KECCAK256 SWAP1 POP SWAP2 SWAP1 POP JUMP JUMPDEST PUSH0 PUSH1 0x20 PUSH1 0x1F DUP4 ADD DIV SWAP1 POP SWAP2 SWAP1 POP JUMP JUMPDEST PUSH0 DUP3 DUP3 SHL SWAP1 POP SWAP3 SWAP2 POP POP JUMP JUMPDEST PUSH0 PUSH1 0x8 DUP4 MUL PUSH2 0x219 PUSH32 0xFFFFFFFFFFFFFFFFFFFFFFFFFFFFFFFFFFFFFFFFFFFFFFFFFFFFFFFFFFFFFFFF DUP3 PUSH2 0x1DE JUMP JUMPDEST PUSH2 0x223 DUP7 DUP4 PUSH2 0x1DE JUMP JUMPDEST SWAP6 POP DUP1 NOT DUP5 AND SWAP4 POP DUP1 DUP7 AND DUP5 OR SWAP3 POP POP POP SWAP4 SWAP3 POP POP POP JUMP JUMPDEST PUSH0 DUP2 SWAP1 POP SWAP2 SWAP1 POP JUMP JUMPDEST PUSH0 DUP2 SWAP1 POP SWAP2 SWAP1 POP JUMP JUMPDEST PUSH0 PUSH2 0x267 PUSH2 0x262 PUSH2 0x25D DUP5 PUSH2 0x23B JUMP JUMPDEST PUSH2 0x244 JUMP JUMPDEST PUSH2 0x23B JUMP JUMPDEST SWAP1 POP SWAP2 SWAP1 POP JUMP JUMPDEST PUSH0 DUP2 SWAP1 POP SWAP2 SWAP1 POP JUMP JUMPDEST PUSH2 0x280 DUP4 PUSH2 0x24D JUMP JUMPDEST PUSH2 0x294 PUSH2 0x28C DUP3 PUSH2 0x26E JUMP JUMPDEST DUP5 DUP5 SLOAD PUSH2 0x1EA JUMP JUMPDEST DUP3 SSTORE POP POP POP POP JUMP JUMPDEST PUSH0 SWAP1 JUMP JUMPDEST PUSH2 0x2A8 PUSH2 0x29C JUMP JUMPDEST PUSH2 0x2B3 DUP2 DUP5 DUP5 PUSH2 0x277 JUMP JUMPDEST POP POP POP JUMP JUMPDEST JUMPDEST DUP2 DUP2 LT ISZERO PUSH2 0x2D6 JUMPI PUSH2 0x2CB PUSH0 DUP3 PUSH2 0x2A0 JUMP JUMPDEST PUSH1 0x1 DUP2 ADD SWAP1 POP PUSH2 0x2B9 JUMP JUMPDEST POP POP JUMP JUMPDEST PUSH1 0x1F DUP3 GT ISZERO PUSH2 0x31B JUMPI PUSH2 0x2EC DUP2 PUSH2 0x1BD JUMP JUMPDEST PUSH2 0x2F5 DUP5 PUSH2 0x1CF JUMP JUMPDEST DUP2 ADD PUSH1 0x20 DUP6 LT ISZERO PUSH2 0x304 JUMPI DUP2 SWAP1 POP JUMPDEST PUSH2 0x318 PUSH2 0x310 DUP6 PUSH2 0x1CF JUMP JUMPDEST DUP4 ADD DUP3 PUSH2 0x2B8 JUMP JUMPDEST POP POP JUMPDEST POP POP POP JUMP JUMPDEST PUSH0 DUP3 DUP3 SHR SWAP1 POP SWAP3 SWAP2 POP POP JUMP JUMPDEST PUSH0 PUSH2 0x33B PUSH0 NOT DUP5 PUSH1 0x8 MUL PUSH2 0x320 JUMP JUMPDEST NOT DUP1 DUP4 AND SWAP2 POP POP SWAP3 SWAP2 POP POP JUMP JUMPDEST PUSH0 PUSH2 0x353 DUP4 DUP4 PUSH2 0x32C JUMP JUMPDEST SWAP2 POP DUP3 PUSH1 0x2 MUL DUP3 OR SWAP1 POP SWAP3 SWAP2 POP POP JUMP JUMPDEST PUSH2 0x36C DUP3 PUSH2 0x129 JUMP JUMPDEST PUSH8 0xFFFFFFFFFFFFFFFF DUP2 GT ISZERO PUSH2 0x385 JUMPI PUSH2 0x384 PUSH2 0x133 JUMP JUMPDEST JUMPDEST PUSH2 0x38F DUP3 SLOAD PUSH2 0x18D JUMP JUMPDEST PUSH2 0x39A DUP3 DUP3 DUP6 PUSH2 0x2DA JUMP JUMPDEST PUSH0 PUSH1 0x20 SWAP1 POP PUSH1 0x1F DUP4 GT PUSH1 0x1 DUP2 EQ PUSH2 0x3CB JUMPI PUSH0 DUP5 ISZERO PUSH2 0x3B9 JUMPI DUP3 DUP8 ADD MLOAD SWAP1 POP JUMPDEST PUSH2 0x3C3 DUP6 DUP3 PUSH2 0x348 JUMP JUMPDEST DUP7 SSTORE POP PUSH2 0x42A JUMP JUMPDEST PUSH1 0x1F NOT DUP5 AND PUSH2 0x3D9 DUP7 PUSH2 0x1BD JUMP JUMPDEST PUSH0 JUMPDEST DUP3 DUP2 LT ISZERO PUSH2 0x400 JUMPI DUP5 DUP10 ADD MLOAD DUP3 SSTORE PUSH1 0x1 DUP3 ADD SWAP2 POP PUSH1 0x20 DUP6 ADD SWAP5 POP PUSH1 0x20 DUP2 ADD SWAP1 POP PUSH2 0x3DB JUMP JUMPDEST DUP7 DUP4 LT ISZERO PUSH2 0x41D JUMPI DUP5 DUP10 ADD MLOAD PUSH2 0x419 PUSH1 0x1F DUP10 AND DUP3 PUSH2 0x32C JUMP JUMPDEST DUP4 SSTORE POP JUMPDEST PUSH1 0x1 PUSH1 0x2 DUP9 MUL ADD DUP9 SSTORE POP POP POP JUMPDEST POP POP POP POP POP POP JUMP JUMPDEST PUSH0 DUP1 REVERT JUMPDEST PUSH2 0x43F DUP2 PUSH2 0x23B JUMP JUMPDEST DUP2 EQ PUSH2 0x449 JUMPI PUSH0 DUP1 REVERT JUMPDEST POP JUMP JUMPDEST PUSH0 DUP2 MLOAD SWAP1 POP PUSH2 0x45A DUP2 PUSH2 0x436 JUMP JUMPDEST SWAP3 SWAP2 POP POP JUMP JUMPDEST PUSH0 PUSH1 0x20 DUP3 DUP5 SUB SLT ISZERO PUSH2 0x475 JUMPI PUSH2 0x474 PUSH2 0x432 JUMP JUMPDEST JUMPDEST PUSH0 PUSH2 0x482 DUP5 DUP3 DUP6 ADD PUSH2 0x44C JUMP JUMPDEST SWAP2 POP POP SWAP3 SWAP2 POP POP JUMP JUMPDEST PUSH2 0x12F8 DUP1 PUSH2 0x498 PUSH0 CODECOPY PUSH0 RETURN INVALID PUSH1 0x80 PUSH1 0x40 MSTORE PUSH1 0x4 CALLDATASIZE LT PUSH2 0xC5 JUMPI PUSH0 CALLDATALOAD PUSH1 0xE0 SHR DUP1 PUSH4 0x60217267 GT PUSH2 0x7E JUMPI DUP1 PUSH4 0x70A08231 GT PUSH2 0x58 JUMPI DUP1 PUSH4 0x70A08231 EQ PUSH2 0x304 JUMPI DUP1 PUSH4 0x8BFEA439 EQ PUSH2 0x340 JUMPI DUP1 PUSH4 0x95D89B41 EQ PUSH2 0x37C JUMPI DUP1 PUSH4 0xA694FC3A EQ PUSH2 0x3A6 JUMPI PUSH2 0x11A JUMP JUMPDEST DUP1 PUSH4 0x60217267 EQ PUSH2 0x250 JUMPI DUP1 PUSH4 0x64AB8675 EQ PUSH2 0x28C JUMPI DUP1 PUSH4 0x6985E6D8 EQ PUSH2 0x2C8 JUMPI PUSH2 0x11A JUMP JUMPDEST DUP1 PUSH4 0x6FDDE03 EQ PUSH2 0x16A JUMPI DUP1 PUSH4 0x18160DDD EQ PUSH2 0x194 JUMPI DUP1 PUSH4 0x2E1A7D4D EQ PUSH2 0x1BE JUMPI DUP1 PUSH4 0x313CE567 EQ PUSH2 0x1E6 JUMPI DUP1 PUSH4 0x372500AB EQ PUSH2 0x210 JUMPI DUP1 PUSH4 0x5D773B2C EQ PUSH2 0x226 JUMPI PUSH2 0x11A JUMP JUMPDEST CALLDATASIZE PUSH2 0x11A JUMPI CALLER PUSH20 0xFFFFFFFFFFFFFFFFFFFFFFFFFFFFFFFFFFFFFFFF AND PUSH32 0x1E57E3BB474320BE3D2C77138F75B7C3941292D647F5F9634E33A8E94E0E069B CALLVALUE PUSH1 0x40 MLOAD PUSH2 0x110 SWAP2 SWAP1 PUSH2 0xCA2 JUMP JUMPDEST PUSH1 0x40 MLOAD DUP1 SWAP2 SUB SWAP1 LOG2 STOP JUMPDEST CALLER PUSH20 0xFFFFFFFFFFFFFFFFFFFFFFFFFFFFFFFFFFFFFFFF AND PUSH32 0x1E57E3BB474320BE3D2C77138F75B7C3941292D647F5F9634E33A8E94E0E069B CALLVALUE PUSH1 0x40 MLOAD PUSH2 0x160 SWAP2 SWAP1 PUSH2 0xCA2 JUMP JUMPDEST PUSH1 0x40 MLOAD DUP1 SWAP2 SUB SWAP1 LOG2 STOP JUMPDEST CALLVALUE DUP1 ISZERO PUSH2 0x175 JUMPI PUSH0 DUP1 REVERT JUMPDEST POP PUSH2 0x17E PUSH2 0x3CE JUMP JUMPDEST PUSH1 0x40 MLOAD PUSH2 0x18B SWAP2 SWAP1 PUSH2 0xD2B JUMP JUMPDEST PUSH1 0x40 MLOAD DUP1 SWAP2 SUB SWAP1 RETURN JUMPDEST CALLVALUE DUP1 ISZERO PUSH2 0x19F JUMPI PUSH0 DUP1 REVERT JUMPDEST POP PUSH2 0x1A8 PUSH2 0x459 JUMP JUMPDEST PUSH1 0x40 MLOAD PUSH2 0x1B5 SWAP2 SWAP1 PUSH2 0xCA2 JUMP JUMPDEST PUSH1 0x40 MLOAD DUP1 SWAP2 SUB SWAP1 RETURN JUMPDEST CALLVALUE DUP1 ISZERO PUSH2 0x1C9 JUMPI PUSH0 DUP1 REVERT JUMPDEST POP PUSH2 0x1E4 PUSH1 0x4 DUP1 CALLDATASIZE SUB DUP2 ADD SWAP1 PUSH2 0x1DF SWAP2 SWAP1 PUSH2 0xD79 JUMP JUMPDEST PUSH2 0x45F JUMP JUMPDEST STOP JUMPDEST CALLVALUE DUP1 ISZERO PUSH2 0x1F1 JUMPI PUSH0 DUP1 REVERT JUMPDEST POP PUSH2 0x1FA PUSH2 0x591 JUMP JUMPDEST PUSH1 0x40 MLOAD PUSH2 0x207 SWAP2 SWAP1 PUSH2 0xDBF JUMP JUMPDEST PUSH1 0x40 MLOAD DUP1 SWAP2 SUB SWAP1 RETURN JUMPDEST CALLVALUE DUP1 ISZERO PUSH2 0x21B JUMPI PUSH0 DUP1 REVERT JUMPDEST POP PUSH2 0x224 PUSH2 0x5A3 JUMP JUMPDEST STOP JUMPDEST CALLVALUE DUP1 ISZERO PUSH2 0x231 JUMPI PUSH0 DUP1 REVERT JUMPDEST POP PUSH2 0x23A PUSH2 0x6DF JUMP JUMPDEST PUSH1 0x40 MLOAD PUSH2 0x247 SWAP2 SWAP1 PUSH2 0xCA2 JUMP JUMPDEST PUSH1 0x40 MLOAD DUP1 SWAP2 SUB SWAP1 RETURN JUMPDEST CALLVALUE DUP1 ISZERO PUSH2 0x25B JUMPI PUSH0 DUP1 REVERT JUMPDEST POP PUSH2 0x276 PUSH1 0x4 DUP1 CALLDATASIZE SUB DUP2 ADD SWAP1 PUSH2 0x271 SWAP2 SWAP1 PUSH2 0xE32 JUMP JUMPDEST PUSH2 0x6E5 JUMP JUMPDEST PUSH1 0x40 MLOAD PUSH2 0x283 SWAP2 SWAP1 PUSH2 0xCA2 JUMP JUMPDEST PUSH1 0x40 MLOAD DUP1 SWAP2 SUB SWAP1 RETURN JUMPDEST CALLVALUE DUP1 ISZERO PUSH2 0x297 JUMPI PUSH0 DUP1 REVERT JUMPDEST POP PUSH2 0x2B2 PUSH1 0x4 DUP1 CALLDATASIZE SUB DUP2 ADD SWAP1 PUSH2 0x2AD SWAP2 SWAP1 PUSH2 0xE32 JUMP JUMPDEST PUSH2 0x6FA JUMP JUMPDEST PUSH1 0x40 MLOAD PUSH2 0x2BF SWAP2 SWAP1 PUSH2 0xCA2 JUMP JUMPDEST PUSH1 0x40 MLOAD DUP1 SWAP2 SUB SWAP1 RETURN JUMPDEST CALLVALUE DUP1 ISZERO PUSH2 0x2D3 JUMPI PUSH0 DUP1 REVERT JUMPDEST POP PUSH2 0x2EE PUSH1 0x4 DUP1 CALLDATASIZE SUB DUP2 ADD SWAP1 PUSH2 0x2E9 SWAP2 SWAP1 PUSH2 0xE32 JUMP JUMPDEST PUSH2 0x8A1 JUMP JUMPDEST PUSH1 0x40 MLOAD PUSH2 0x2FB SWAP2 SWAP1 PUSH2 0xCA2 JUMP JUMPDEST PUSH1 0x40 MLOAD DUP1 SWAP2 SUB SWAP1 RETURN JUMPDEST CALLVALUE DUP1 ISZERO PUSH2 0x30F JUMPI PUSH0 DUP1 REVERT JUMPDEST POP PUSH2 0x32A PUSH1 0x4 DUP1 CALLDATASIZE SUB DUP2 ADD SWAP1 PUSH2 0x325 SWAP2 SWAP1 PUSH2 0xE32 JUMP JUMPDEST PUSH2 0x8B6 JUMP JUMPDEST PUSH1 0x40 MLOAD PUSH2 0x337 SWAP2 SWAP1 PUSH2 0xCA2 JUMP JUMPDEST PUSH1 0x40 MLOAD DUP1 SWAP2 SUB SWAP1 RETURN JUMPDEST CALLVALUE DUP1 ISZERO PUSH2 0x34B JUMPI PUSH0 DUP1 REVERT JUMPDEST POP PUSH2 0x366 PUSH1 0x4 DUP1 CALLDATASIZE SUB DUP2 ADD SWAP1 PUSH2 0x361 SWAP2 SWAP1 PUSH2 0xE32 JUMP JUMPDEST PUSH2 0x8CB JUMP JUMPDEST PUSH1 0x40 MLOAD PUSH2 0x373 SWAP2 SWAP1 PUSH2 0xCA2 JUMP JUMPDEST PUSH1 0x40 MLOAD DUP1 SWAP2 SUB SWAP1 RETURN JUMPDEST CALLVALUE DUP1 ISZERO PUSH2 0x387 JUMPI PUSH0 DUP1 REVERT JUMPDEST POP PUSH2 0x390 PUSH2 0x8E0 JUMP JUMPDEST PUSH1 0x40 MLOAD PUSH2 0x39D SWAP2 SWAP1 PUSH2 0xD2B JUMP JUMPDEST PUSH1 0x40 MLOAD DUP1 SWAP2 SUB SWAP1 RETURN JUMPDEST CALLVALUE DUP1 ISZERO PUSH2 0x3B1 JUMPI PUSH0 DUP1 REVERT JUMPDEST POP PUSH2 0x3CC PUSH1 0x4 DUP1 CALLDATASIZE SUB DUP2 ADD SWAP1 PUSH2 0x3C7 SWAP2 SWAP1 PUSH2 0xD79 JUMP JUMPDEST PUSH2 0x96C JUMP JUMPDEST STOP JUMPDEST PUSH0 DUP1 SLOAD PUSH2 0x3DA SWAP1 PUSH2 0xE8A JUMP JUMPDEST DUP1 PUSH1 0x1F ADD PUSH1 0x20 DUP1 SWAP2 DIV MUL PUSH1 0x20 ADD PUSH1 0x40 MLOAD SWAP1 DUP2 ADD PUSH1 0x40 MSTORE DUP1 SWAP3 SWAP2 SWAP1 DUP2 DUP2 MSTORE PUSH1 0x20 ADD DUP3 DUP1 SLOAD PUSH2 0x406 SWAP1 PUSH2 0xE8A JUMP JUMPDEST DUP1 ISZERO PUSH2 0x451 JUMPI DUP1 PUSH1 0x1F LT PUSH2 0x428 JUMPI PUSH2 0x100 DUP1 DUP4 SLOAD DIV MUL DUP4 MSTORE SWAP2 PUSH1 0x20 ADD SWAP2 PUSH2 0x451 JUMP JUMPDEST DUP3 ADD SWAP2 SWAP1 PUSH0 MSTORE PUSH1 0x20 PUSH0 KECCAK256 SWAP1 JUMPDEST DUP2 SLOAD DUP2 MSTORE SWAP1 PUSH1 0x1 ADD SWAP1 PUSH1 0x20 ADD DUP1 DUP4 GT PUSH2 0x434 JUMPI DUP3 SWAP1 SUB PUSH1 0x1F AND DUP3 ADD SWAP2 JUMPDEST POP POP POP POP POP DUP2 JUMP JUMPDEST PUSH1 0x3 SLOAD DUP2 JUMP JUMPDEST DUP1 PUSH1 0x5 PUSH0 CALLER PUSH20 0xFFFFFFFFFFFFFFFFFFFFFFFFFFFFFFFFFFFFFFFF AND PUSH20 0xFFFFFFFFFFFFFFFFFFFFFFFFFFFFFFFFFFFFFFFF AND DUP2 MSTORE PUSH1 0x20 ADD SWAP1 DUP2 MSTORE PUSH1 0x20 ADD PUSH0 KECCAK256 SLOAD LT ISZERO PUSH2 0x4DF JUMPI PUSH1 0x40 MLOAD PUSH32 0x8C379A000000000000000000000000000000000000000000000000000000000 DUP2 MSTORE PUSH1 0x4 ADD PUSH2 0x4D6 SWAP1 PUSH2 0xF2A JUMP JUMPDEST PUSH1 0x40 MLOAD DUP1 SWAP2 SUB SWAP1 REVERT JUMPDEST PUSH2 0x4E8 CALLER PUSH2 0xAE0 JUMP JUMPDEST DUP1 PUSH1 0x5 PUSH0 CALLER PUSH20 0xFFFFFFFFFFFFFFFFFFFFFFFFFFFFFFFFFFFFFFFF AND PUSH20 0xFFFFFFFFFFFFFFFFFFFFFFFFFFFFFFFFFFFFFFFF AND DUP2 MSTORE PUSH1 0x20 ADD SWAP1 DUP2 MSTORE PUSH1 0x20 ADD PUSH0 KECCAK256 PUSH0 DUP3 DUP3 SLOAD PUSH2 0x534 SWAP2 SWAP1 PUSH2 0xF75 JUMP JUMPDEST SWAP3 POP POP DUP2 SWAP1 SSTORE POP DUP1 PUSH1 0x4 PUSH0 CALLER PUSH20 0xFFFFFFFFFFFFFFFFFFFFFFFFFFFFFFFFFFFFFFFF AND PUSH20 0xFFFFFFFFFFFFFFFFFFFFFFFFFFFFFFFFFFFFFFFF AND DUP2 MSTORE PUSH1 0x20 ADD SWAP1 DUP2 MSTORE PUSH1 0x20 ADD PUSH0 KECCAK256 PUSH0 DUP3 DUP3 SLOAD PUSH2 0x587 SWAP2 SWAP1 PUSH2 0xFA8 JUMP JUMPDEST SWAP3 POP POP DUP2 SWAP1 SSTORE POP POP JUMP JUMPDEST PUSH1 0x2 PUSH0 SWAP1 SLOAD SWAP1 PUSH2 0x100 EXP SWAP1 DIV PUSH1 0xFF AND DUP2 JUMP JUMPDEST PUSH2 0x5AC CALLER PUSH2 0xAE0 JUMP JUMPDEST PUSH0 PUSH1 0x7 PUSH0 CALLER PUSH20 0xFFFFFFFFFFFFFFFFFFFFFFFFFFFFFFFFFFFFFFFF AND PUSH20 0xFFFFFFFFFFFFFFFFFFFFFFFFFFFFFFFFFFFFFFFF AND DUP2 MSTORE PUSH1 0x20 ADD SWAP1 DUP2 MSTORE PUSH1 0x20 ADD PUSH0 KECCAK256 SLOAD SWAP1 POP PUSH0 DUP2 GT PUSH2 0x62F JUMPI PUSH1 0x40 MLOAD PUSH32 0x8C379A000000000000000000000000000000000000000000000000000000000 DUP2 MSTORE PUSH1 0x4 ADD PUSH2 0x626 SWAP1 PUSH2 0x1025 JUMP JUMPDEST PUSH1 0x40 MLOAD DUP1 SWAP2 SUB SWAP1 REVERT JUMPDEST PUSH0 PUSH1 0x7 PUSH0 CALLER PUSH20 0xFFFFFFFFFFFFFFFFFFFFFFFFFFFFFFFFFFFFFFFF AND PUSH20 0xFFFFFFFFFFFFFFFFFFFFFFFFFFFFFFFFFFFFFFFF AND DUP2 MSTORE PUSH1 0x20 ADD SWAP1 DUP2 MSTORE PUSH1 0x20 ADD PUSH0 KECCAK256 DUP2 SWAP1 SSTORE POP DUP1 PUSH1 0x4 PUSH0 CALLER PUSH20 0xFFFFFFFFFFFFFFFFFFFFFFFFFFFFFFFFFFFFFFFF AND PUSH20 0xFFFFFFFFFFFFFFFFFFFFFFFFFFFFFFFFFFFFFFFF AND DUP2 MSTORE PUSH1 0x20 ADD SWAP1 DUP2 MSTORE PUSH1 0x20 ADD PUSH0 KECCAK256 PUSH0 DUP3 DUP3 SLOAD PUSH2 0x6BD SWAP2 SWAP1 PUSH2 0xFA8 JUMP JUMPDEST SWAP3 POP POP DUP2 SWAP1 SSTORE POP DUP1 PUSH1 0x3 PUSH0 DUP3 DUP3 SLOAD PUSH2 0x6D5 SWAP2 SWAP1 PUSH2 0xFA8 JUMP JUMPDEST SWAP3 POP POP DUP2 SWAP1 SSTORE POP POP JUMP JUMPDEST PUSH1 0x8 SLOAD DUP2 JUMP JUMPDEST PUSH1 0x5 PUSH1 0x20 MSTORE DUP1 PUSH0 MSTORE PUSH1 0x40 PUSH0 KECCAK256 PUSH0 SWAP2 POP SWAP1 POP SLOAD DUP2 JUMP JUMPDEST PUSH0 DUP1 PUSH1 0x5 PUSH0 DUP5 PUSH20 0xFFFFFFFFFFFFFFFFFFFFFFFFFFFFFFFFFFFFFFFF AND PUSH20 0xFFFFFFFFFFFFFFFFFFFFFFFFFFFFFFFFFFFFFFFF AND DUP2 MSTORE PUSH1 0x20 ADD SWAP1 DUP2 MSTORE PUSH1 0x20 ADD PUSH0 KECCAK256 SLOAD SUB PUSH2 0x784 JUMPI PUSH1 0x7 PUSH0 DUP4 PUSH20 0xFFFFFFFFFFFFFFFFFFFFFFFFFFFFFFFFFFFFFFFF AND PUSH20 0xFFFFFFFFFFFFFFFFFFFFFFFFFFFFFFFFFFFFFFFF AND DUP2 MSTORE PUSH1 0x20 ADD SWAP1 DUP2 MSTORE PUSH1 0x20 ADD PUSH0 KECCAK256 SLOAD SWAP1 POP PUSH2 0x89C JUMP JUMPDEST PUSH0 PUSH1 0x6 PUSH0 DUP5 PUSH20 0xFFFFFFFFFFFFFFFFFFFFFFFFFFFFFFFFFFFFFFFF AND PUSH20 0xFFFFFFFFFFFFFFFFFFFFFFFFFFFFFFFFFFFFFFFF AND DUP2 MSTORE PUSH1 0x20 ADD SWAP1 DUP2 MSTORE PUSH1 0x20 ADD PUSH0 KECCAK256 SLOAD TIMESTAMP PUSH2 0x7CE SWAP2 SWAP1 PUSH2 0xF75 JUMP JUMPDEST SWAP1 POP PUSH0 PUSH1 0x2 PUSH0 SWAP1 SLOAD SWAP1 PUSH2 0x100 EXP SWAP1 DIV PUSH1 0xFF AND PUSH1 0xA PUSH2 0x7EC SWAP2 SWAP1 PUSH2 0x1172 JUMP JUMPDEST PUSH1 0x5 PUSH0 DUP7 PUSH20 0xFFFFFFFFFFFFFFFFFFFFFFFFFFFFFFFFFFFFFFFF AND PUSH20 0xFFFFFFFFFFFFFFFFFFFFFFFFFFFFFFFFFFFFFFFF AND DUP2 MSTORE PUSH1 0x20 ADD SWAP1 DUP2 MSTORE PUSH1 0x20 ADD PUSH0 KECCAK256 SLOAD PUSH1 0x8 SLOAD DUP5 PUSH2 0x838 SWAP2 SWAP1 PUSH2 0x11BC JUMP JUMPDEST PUSH2 0x842 SWAP2 SWAP1 PUSH2 0x11BC JUMP JUMPDEST PUSH2 0x84C SWAP2 SWAP1 PUSH2 0x122A JUMP JUMPDEST SWAP1 POP DUP1 PUSH1 0x7 PUSH0 DUP7 PUSH20 0xFFFFFFFFFFFFFFFFFFFFFFFFFFFFFFFFFFFFFFFF AND PUSH20 0xFFFFFFFFFFFFFFFFFFFFFFFFFFFFFFFFFFFFFFFF AND DUP2 MSTORE PUSH1 0x20 ADD SWAP1 DUP2 MSTORE PUSH1 0x20 ADD PUSH0 KECCAK256 SLOAD PUSH2 0x897 SWAP2 SWAP1 PUSH2 0xFA8 JUMP JUMPDEST SWAP3 POP POP POP JUMPDEST SWAP2 SWAP1 POP JUMP JUMPDEST PUSH1 0x6 PUSH1 0x20 MSTORE DUP1 PUSH0 MSTORE PUSH1 0x40 PUSH0 KECCAK256 PUSH0 SWAP2 POP SWAP1 POP SLOAD DUP2 JUMP JUMPDEST PUSH1 0x4 PUSH1 0x20 MSTORE DUP1 PUSH0 MSTORE PUSH1 0x40 PUSH0 KECCAK256 PUSH0 SWAP2 POP SWAP1 POP SLOAD DUP2 JUMP JUMPDEST PUSH1 0x7 PUSH1 0x20 MSTORE DUP1 PUSH0 MSTORE PUSH1 0x40 PUSH0 KECCAK256 PUSH0 SWAP2 POP SWAP1 POP SLOAD DUP2 JUMP JUMPDEST PUSH1 0x1 DUP1 SLOAD PUSH2 0x8ED SWAP1 PUSH2 0xE8A JUMP JUMPDEST DUP1 PUSH1 0x1F ADD PUSH1 0x20 DUP1 SWAP2 DIV MUL PUSH1 0x20 ADD PUSH1 0x40 MLOAD SWAP1 DUP2 ADD PUSH1 0x40 MSTORE DUP1 SWAP3 SWAP2 SWAP1 DUP2 DUP2 MSTORE PUSH1 0x20 ADD DUP3 DUP1 SLOAD PUSH2 0x919 SWAP1 PUSH2 0xE8A JUMP JUMPDEST DUP1 ISZERO PUSH2 0x964 JUMPI DUP1 PUSH1 0x1F LT PUSH2 0x93B JUMPI PUSH2 0x100 DUP1 DUP4 SLOAD DIV MUL DUP4 MSTORE SWAP2 PUSH1 0x20 ADD SWAP2 PUSH2 0x964 JUMP JUMPDEST DUP3 ADD SWAP2 SWAP1 PUSH0 MSTORE PUSH1 0x20 PUSH0 KECCAK256 SWAP1 JUMPDEST DUP2 SLOAD DUP2 MSTORE SWAP1 PUSH1 0x1 ADD SWAP1 PUSH1 0x20 ADD DUP1 DUP4 GT PUSH2 0x947 JUMPI DUP3 SWAP1 SUB PUSH1 0x1F AND DUP3 ADD SWAP2 JUMPDEST POP POP POP POP POP DUP2 JUMP JUMPDEST DUP1 PUSH1 0x4 PUSH0 CALLER PUSH20 0xFFFFFFFFFFFFFFFFFFFFFFFFFFFFFFFFFFFFFFFF AND PUSH20 0xFFFFFFFFFFFFFFFFFFFFFFFFFFFFFFFFFFFFFFFF AND DUP2 MSTORE PUSH1 0x20 ADD SWAP1 DUP2 MSTORE PUSH1 0x20 ADD PUSH0 KECCAK256 SLOAD LT ISZERO PUSH2 0x9EC JUMPI PUSH1 0x40 MLOAD PUSH32 0x8C379A000000000000000000000000000000000000000000000000000000000 DUP2 MSTORE PUSH1 0x4 ADD PUSH2 0x9E3 SWAP1 PUSH2 0x12A4 JUMP JUMPDEST PUSH1 0x40 MLOAD DUP1 SWAP2 SUB SWAP1 REVERT JUMPDEST PUSH2 0x9F5 CALLER PUSH2 0xAE0 JUMP JUMPDEST DUP1 PUSH1 0x4 PUSH0 CALLER PUSH20 0xFFFFFFFFFFFFFFFFFFFFFFFFFFFFFFFFFFFFFFFF AND PUSH20 0xFFFFFFFFFFFFFFFFFFFFFFFFFFFFFFFFFFFFFFFF AND DUP2 MSTORE PUSH1 0x20 ADD SWAP1 DUP2 MSTORE PUSH1 0x20 ADD PUSH0 KECCAK256 PUSH0 DUP3 DUP3 SLOAD PUSH2 0xA41 SWAP2 SWAP1 PUSH2 0xF75 JUMP JUMPDEST SWAP3 POP POP DUP2 SWAP1 SSTORE POP DUP1 PUSH1 0x5 PUSH0 CALLER PUSH20 0xFFFFFFFFFFFFFFFFFFFFFFFFFFFFFFFFFFFFFFFF AND PUSH20 0xFFFFFFFFFFFFFFFFFFFFFFFFFFFFFFFFFFFFFFFF AND DUP2 MSTORE PUSH1 0x20 ADD SWAP1 DUP2 MSTORE PUSH1 0x20 ADD PUSH0 KECCAK256 PUSH0 DUP3 DUP3 SLOAD PUSH2 0xA94 SWAP2 SWAP1 PUSH2 0xFA8 JUMP JUMPDEST SWAP3 POP POP DUP2 SWAP1 SSTORE POP TIMESTAMP PUSH1 0x6 PUSH0 CALLER PUSH20 0xFFFFFFFFFFFFFFFFFFFFFFFFFFFFFFFFFFFFFFFF AND PUSH20 0xFFFFFFFFFFFFFFFFFFFFFFFFFFFFFFFFFFFFFFFF AND DUP2 MSTORE PUSH1 0x20 ADD SWAP1 DUP2 MSTORE PUSH1 0x20 ADD PUSH0 KECCAK256 DUP2 SWAP1 SSTORE POP POP JUMP JUMPDEST PUSH0 PUSH1 0x5 PUSH0 DUP4 PUSH20 0xFFFFFFFFFFFFFFFFFFFFFFFFFFFFFFFFFFFFFFFF AND PUSH20 0xFFFFFFFFFFFFFFFFFFFFFFFFFFFFFFFFFFFFFFFF AND DUP2 MSTORE PUSH1 0x20 ADD SWAP1 DUP2 MSTORE PUSH1 0x20 ADD PUSH0 KECCAK256 SLOAD GT ISZERO PUSH2 0xC87 JUMPI PUSH0 PUSH1 0x6 PUSH0 DUP4 PUSH20 0xFFFFFFFFFFFFFFFFFFFFFFFFFFFFFFFFFFFFFFFF AND PUSH20 0xFFFFFFFFFFFFFFFFFFFFFFFFFFFFFFFFFFFFFFFF AND DUP2 MSTORE PUSH1 0x20 ADD SWAP1 DUP2 MSTORE PUSH1 0x20 ADD PUSH0 KECCAK256 SLOAD TIMESTAMP PUSH2 0xB6F SWAP2 SWAP1 PUSH2 0xF75 JUMP JUMPDEST SWAP1 POP PUSH0 PUSH1 0x2 PUSH0 SWAP1 SLOAD SWAP1 PUSH2 0x100 EXP SWAP1 DIV PUSH1 0xFF AND PUSH1 0xA PUSH2 0xB8D SWAP2 SWAP1 PUSH2 0x1172 JUMP JUMPDEST PUSH1 0x5 PUSH0 DUP6 PUSH20 0xFFFFFFFFFFFFFFFFFFFFFFFFFFFFFFFFFFFFFFFF AND PUSH20 0xFFFFFFFFFFFFFFFFFFFFFFFFFFFFFFFFFFFFFFFF AND DUP2 MSTORE PUSH1 0x20 ADD SWAP1 DUP2 MSTORE PUSH1 0x20 ADD PUSH0 KECCAK256 SLOAD PUSH1 0x8 SLOAD DUP5 PUSH2 0xBD9 SWAP2 SWAP1 PUSH2 0x11BC JUMP JUMPDEST PUSH2 0xBE3 SWAP2 SWAP1 PUSH2 0x11BC JUMP JUMPDEST PUSH2 0xBED SWAP2 SWAP1 PUSH2 0x122A JUMP JUMPDEST SWAP1 POP DUP1 PUSH1 0x7 PUSH0 DUP6 PUSH20 0xFFFFFFFFFFFFFFFFFFFFFFFFFFFFFFFFFFFFFFFF AND PUSH20 0xFFFFFFFFFFFFFFFFFFFFFFFFFFFFFFFFFFFFFFFF AND DUP2 MSTORE PUSH1 0x20 ADD SWAP1 DUP2 MSTORE PUSH1 0x20 ADD PUSH0 KECCAK256 PUSH0 DUP3 DUP3 SLOAD PUSH2 0xC3B SWAP2 SWAP1 PUSH2 0xFA8 JUMP JUMPDEST SWAP3 POP POP DUP2 SWAP1 SSTORE POP TIMESTAMP PUSH1 0x6 PUSH0 DUP6 PUSH20 0xFFFFFFFFFFFFFFFFFFFFFFFFFFFFFFFFFFFFFFFF AND PUSH20 0xFFFFFFFFFFFFFFFFFFFFFFFFFFFFFFFFFFFFFFFF AND DUP2 MSTORE PUSH1 0x20 ADD SWAP1 DUP2 MSTORE PUSH1 0x20 ADD PUSH0 KECCAK256 DUP2 SWAP1 SSTORE POP POP POP JUMPDEST POP JUMP JUMPDEST PUSH0 DUP2 SWAP1 POP SWAP2 SWAP1 POP JUMP JUMPDEST PUSH2 0xC9C DUP2 PUSH2 0xC8A JUMP JUMPDEST DUP3 MSTORE POP POP JUMP JUMPDEST PUSH0 PUSH1 0x20 DUP3 ADD SWAP1 POP PUSH2 0xCB5 PUSH0 DUP4 ADD DUP5 PUSH2 0xC93 JUMP JUMPDEST SWAP3 SWAP2 POP POP JUMP JUMPDEST PUSH0 DUP2 MLOAD SWAP1 POP SWAP2 SWAP1 POP JUMP JUMPDEST PUSH0 DUP3 DUP3 MSTORE PUSH1 0x20 DUP3 ADD SWAP1 POP SWAP3 SWAP2 POP POP JUMP JUMPDEST DUP3 DUP2 DUP4 MCOPY PUSH0 DUP4 DUP4 ADD MSTORE POP POP POP JUMP JUMPDEST PUSH0 PUSH1 0x1F NOT PUSH1 0x1F DUP4 ADD AND SWAP1 POP SWAP2 SWAP1 POP JUMP JUMPDEST PUSH0 PUSH2 0xCFD DUP3 PUSH2 0xCBB JUMP JUMPDEST PUSH2 0xD07 DUP2 DUP6 PUSH2 0xCC5 JUMP JUMPDEST SWAP4 POP PUSH2 0xD17 DUP2 DUP6 PUSH1 0x20 DUP7 ADD PUSH2 0xCD5 JUMP JUMPDEST PUSH2 0xD20 DUP2 PUSH2 0xCE3 JUMP JUMPDEST DUP5 ADD SWAP2 POP POP SWAP3 SWAP2 POP POP JUMP JUMPDEST PUSH0 PUSH1 0x20 DUP3 ADD SWAP1 POP DUP2 DUP2 SUB PUSH0 DUP4 ADD MSTORE PUSH2 0xD43 DUP2 DUP5 PUSH2 0xCF3 JUMP JUMPDEST SWAP1 POP SWAP3 SWAP2 POP POP JUMP JUMPDEST PUSH0 DUP1 REVERT JUMPDEST PUSH2 0xD58 DUP2 PUSH2 0xC8A JUMP JUMPDEST DUP2 EQ PUSH2 0xD62 JUMPI PUSH0 DUP1 REVERT JUMPDEST POP JUMP JUMPDEST PUSH0 DUP2 CALLDATALOAD SWAP1 POP PUSH2 0xD73 DUP2 PUSH2 0xD4F JUMP JUMPDEST SWAP3 SWAP2 POP POP JUMP JUMPDEST PUSH0 PUSH1 0x20 DUP3 DUP5 SUB SLT ISZERO PUSH2 0xD8E JUMPI PUSH2 0xD8D PUSH2 0xD4B JUMP JUMPDEST JUMPDEST PUSH0 PUSH2 0xD9B DUP5 DUP3 DUP6 ADD PUSH2 0xD65 JUMP JUMPDEST SWAP2 POP POP SWAP3 SWAP2 POP POP JUMP JUMPDEST PUSH0 PUSH1 0xFF DUP3 AND SWAP1 POP SWAP2 SWAP1 POP JUMP JUMPDEST PUSH2 0xDB9 DUP2 PUSH2 0xDA4 JUMP JUMPDEST DUP3 MSTORE POP POP JUMP JUMPDEST PUSH0 PUSH1 0x20 DUP3 ADD SWAP1 POP PUSH2 0xDD2 PUSH0 DUP4 ADD DUP5 PUSH2 0xDB0 JUMP JUMPDEST SWAP3 SWAP2 POP POP JUMP JUMPDEST PUSH0 PUSH20 0xFFFFFFFFFFFFFFFFFFFFFFFFFFFFFFFFFFFFFFFF DUP3 AND SWAP1 POP SWAP2 SWAP1 POP JUMP JUMPDEST PUSH0 PUSH2 0xE01 DUP3 PUSH2 0xDD8 JUMP JUMPDEST SWAP1 POP SWAP2 SWAP1 POP JUMP JUMPDEST PUSH2 0xE11 DUP2 PUSH2 0xDF7 JUMP JUMPDEST DUP2 EQ PUSH2 0xE1B JUMPI PUSH0 DUP1 REVERT JUMPDEST POP JUMP JUMPDEST PUSH0 DUP2 CALLDATALOAD SWAP1 POP PUSH2 0xE2C DUP2 PUSH2 0xE08 JUMP JUMPDEST SWAP3 SWAP2 POP POP JUMP JUMPDEST PUSH0 PUSH1 0x20 DUP3 DUP5 SUB SLT ISZERO PUSH2 0xE47 JUMPI PUSH2 0xE46 PUSH2 0xD4B JUMP JUMPDEST JUMPDEST PUSH0 PUSH2 0xE54 DUP5 DUP3 DUP6 ADD PUSH2 0xE1E JUMP JUMPDEST SWAP2 POP POP SWAP3 SWAP2 POP POP JUMP JUMPDEST PUSH32 0x4E487B7100000000000000000000000000000000000000000000000000000000 PUSH0 MSTORE PUSH1 0x22 PUSH1 0x4 MSTORE PUSH1 0x24 PUSH0 REVERT JUMPDEST PUSH0 PUSH1 0x2 DUP3 DIV SWAP1 POP PUSH1 0x1 DUP3 AND DUP1 PUSH2 0xEA1 JUMPI PUSH1 0x7F DUP3 AND SWAP2 POP JUMPDEST PUSH1 0x20 DUP3 LT DUP2 SUB PUSH2 0xEB4 JUMPI PUSH2 0xEB3 PUSH2 0xE5D JUMP JUMPDEST JUMPDEST POP SWAP2 SWAP1 POP JUMP JUMPDEST PUSH32 0x496E73756666696369656E74207374616B65642062616C616E636520746F2077 PUSH0 DUP3 ADD MSTORE PUSH32 0x6974686472617700000000000000000000000000000000000000000000000000 PUSH1 0x20 DUP3 ADD MSTORE POP JUMP JUMPDEST PUSH0 PUSH2 0xF14 PUSH1 0x27 DUP4 PUSH2 0xCC5 JUMP JUMPDEST SWAP2 POP PUSH2 0xF1F DUP3 PUSH2 0xEBA JUMP JUMPDEST PUSH1 0x40 DUP3 ADD SWAP1 POP SWAP2 SWAP1 POP JUMP JUMPDEST PUSH0 PUSH1 0x20 DUP3 ADD SWAP1 POP DUP2 DUP2 SUB PUSH0 DUP4 ADD MSTORE PUSH2 0xF41 DUP2 PUSH2 0xF08 JUMP JUMPDEST SWAP1 POP SWAP2 SWAP1 POP JUMP JUMPDEST PUSH32 0x4E487B7100000000000000000000000000000000000000000000000000000000 PUSH0 MSTORE PUSH1 0x11 PUSH1 0x4 MSTORE PUSH1 0x24 PUSH0 REVERT JUMPDEST PUSH0 PUSH2 0xF7F DUP3 PUSH2 0xC8A JUMP JUMPDEST SWAP2 POP PUSH2 0xF8A DUP4 PUSH2 0xC8A JUMP JUMPDEST SWAP3 POP DUP3 DUP3 SUB SWAP1 POP DUP2 DUP2 GT ISZERO PUSH2 0xFA2 JUMPI PUSH2 0xFA1 PUSH2 0xF48 JUMP JUMPDEST JUMPDEST SWAP3 SWAP2 POP POP JUMP JUMPDEST PUSH0 PUSH2 0xFB2 DUP3 PUSH2 0xC8A JUMP JUMPDEST SWAP2 POP PUSH2 0xFBD DUP4 PUSH2 0xC8A JUMP JUMPDEST SWAP3 POP DUP3 DUP3 ADD SWAP1 POP DUP1 DUP3 GT ISZERO PUSH2 0xFD5 JUMPI PUSH2 0xFD4 PUSH2 0xF48 JUMP JUMPDEST JUMPDEST SWAP3 SWAP2 POP POP JUMP JUMPDEST PUSH32 0x4E6F207265776172647320746F20636C61696D00000000000000000000000000 PUSH0 DUP3 ADD MSTORE POP JUMP JUMPDEST PUSH0 PUSH2 0x100F PUSH1 0x13 DUP4 PUSH2 0xCC5 JUMP JUMPDEST SWAP2 POP PUSH2 0x101A DUP3 PUSH2 0xFDB JUMP JUMPDEST PUSH1 0x20 DUP3 ADD SWAP1 POP SWAP2 SWAP1 POP JUMP JUMPDEST PUSH0 PUSH1 0x20 DUP3 ADD SWAP1 POP DUP2 DUP2 SUB PUSH0 DUP4 ADD MSTORE PUSH2 0x103C DUP2 PUSH2 0x1003 JUMP JUMPDEST SWAP1 POP SWAP2 SWAP1 POP JUMP JUMPDEST PUSH0 DUP2 PUSH1 0x1 SHR SWAP1 POP SWAP2 SWAP1 POP JUMP JUMPDEST PUSH0 DUP1 DUP3 SWAP2 POP DUP4 SWAP1 POP JUMPDEST PUSH1 0x1 DUP6 GT ISZERO PUSH2 0x1098 JUMPI DUP1 DUP7 DIV DUP2 GT ISZERO PUSH2 0x1074 JUMPI PUSH2 0x1073 PUSH2 0xF48 JUMP JUMPDEST JUMPDEST PUSH1 0x1 DUP6 AND ISZERO PUSH2 0x1083 JUMPI DUP1 DUP3 MUL SWAP2 POP JUMPDEST DUP1 DUP2 MUL SWAP1 POP PUSH2 0x1091 DUP6 PUSH2 0x1043 JUMP JUMPDEST SWAP5 POP PUSH2 0x1058 JUMP JUMPDEST SWAP5 POP SWAP5 SWAP3 POP POP POP JUMP JUMPDEST PUSH0 DUP3 PUSH2 0x10B0 JUMPI PUSH1 0x1 SWAP1 POP PUSH2 0x116B JUMP JUMPDEST DUP2 PUSH2 0x10BD JUMPI PUSH0 SWAP1 POP PUSH2 0x116B JUMP JUMPDEST DUP2 PUSH1 0x1 DUP2 EQ PUSH2 0x10D3 JUMPI PUSH1 0x2 DUP2 EQ PUSH2 0x10DD JUMPI PUSH2 0x110C JUMP JUMPDEST PUSH1 0x1 SWAP2 POP POP PUSH2 0x116B JUMP JUMPDEST PUSH1 0xFF DUP5 GT ISZERO PUSH2 0x10EF JUMPI PUSH2 0x10EE PUSH2 0xF48 JUMP JUMPDEST JUMPDEST DUP4 PUSH1 0x2 EXP SWAP2 POP DUP5 DUP3 GT ISZERO PUSH2 0x1106 JUMPI PUSH2 0x1105 PUSH2 0xF48 JUMP JUMPDEST JUMPDEST POP PUSH2 0x116B JUMP JUMPDEST POP PUSH1 0x20 DUP4 LT PUSH2 0x133 DUP4 LT AND PUSH1 0x4E DUP5 LT PUSH1 0xB DUP5 LT AND OR ISZERO PUSH2 0x1141 JUMPI DUP3 DUP3 EXP SWAP1 POP DUP4 DUP2 GT ISZERO PUSH2 0x113C JUMPI PUSH2 0x113B PUSH2 0xF48 JUMP JUMPDEST JUMPDEST PUSH2 0x116B JUMP JUMPDEST PUSH2 0x114E DUP5 DUP5 DUP5 PUSH1 0x1 PUSH2 0x104F JUMP JUMPDEST SWAP3 POP SWAP1 POP DUP2 DUP5 DIV DUP2 GT ISZERO PUSH2 0x1165 JUMPI PUSH2 0x1164 PUSH2 0xF48 JUMP JUMPDEST JUMPDEST DUP2 DUP2 MUL SWAP1 POP JUMPDEST SWAP4 SWAP3 POP POP POP JUMP JUMPDEST PUSH0 PUSH2 0x117C DUP3 PUSH2 0xC8A JUMP JUMPDEST SWAP2 POP PUSH2 0x1187 DUP4 PUSH2 0xDA4 JUMP JUMPDEST SWAP3 POP PUSH2 0x11B4 PUSH32 0xFFFFFFFFFFFFFFFFFFFFFFFFFFFFFFFFFFFFFFFFFFFFFFFFFFFFFFFFFFFFFFFF DUP5 DUP5 PUSH2 0x10A1 JUMP JUMPDEST SWAP1 POP SWAP3 SWAP2 POP POP JUMP JUMPDEST PUSH0 PUSH2 0x11C6 DUP3 PUSH2 0xC8A JUMP JUMPDEST SWAP2 POP PUSH2 0x11D1 DUP4 PUSH2 0xC8A JUMP JUMPDEST SWAP3 POP DUP3 DUP3 MUL PUSH2 0x11DF DUP2 PUSH2 0xC8A JUMP JUMPDEST SWAP2 POP DUP3 DUP3 DIV DUP5 EQ DUP4 ISZERO OR PUSH2 0x11F6 JUMPI PUSH2 0x11F5 PUSH2 0xF48 JUMP JUMPDEST JUMPDEST POP SWAP3 SWAP2 POP POP JUMP JUMPDEST PUSH32 0x4E487B7100000000000000000000000000000000000000000000000000000000 PUSH0 MSTORE PUSH1 0x12 PUSH1 0x4 MSTORE PUSH1 0x24 PUSH0 REVERT JUMPDEST PUSH0 PUSH2 0x1234 DUP3 PUSH2 0xC8A JUMP JUMPDEST SWAP2 POP PUSH2 0x123F DUP4 PUSH2 0xC8A JUMP JUMPDEST SWAP3 POP DUP3 PUSH2 0x124F JUMPI PUSH2 0x124E PUSH2 0x11FD JUMP JUMPDEST JUMPDEST DUP3 DUP3 DIV SWAP1 POP SWAP3 SWAP2 POP POP JUMP JUMPDEST PUSH32 0x496E73756666696369656E742062616C616E636520746F207374616B65000000 PUSH0 DUP3 ADD MSTORE POP JUMP JUMPDEST PUSH0 PUSH2 0x128E PUSH1 0x1D DUP4 PUSH2 0xCC5 JUMP JUMPDEST SWAP2 POP PUSH2 0x1299 DUP3 PUSH2 0x125A JUMP JUMPDEST PUSH1 0x20 DUP3 ADD SWAP1 POP SWAP2 SWAP1 POP JUMP JUMPDEST PUSH0 PUSH1 0x20 DUP3 ADD SWAP1 POP DUP2 DUP2 SUB PUSH0 DUP4 ADD MSTORE PUSH2 0x12BB DUP2 PUSH2 0x1282 JUMP JUMPDEST SWAP1 POP SWAP2 SWAP1 POP JUMP INVALID LOG2 PUSH5 0x6970667358 0x22 SLT KECCAK256 SWAP11 0x4D 0xAD 0xBC PUSH16 0xEB6687D7FF669D51EAF359F41EC87ADF 0xE7 BLOBHASH 0xCE DUP3 ADDMOD SWAP3 0xCC CHAINID DUP1 0xEB DUP14 PUSH5 0x736F6C6343 STOP ADDMOD BYTE STOP CALLER "
				},
				"gasEstimates": {
					"creation": {
						"codeDepositCost": "971200",
						"executionCost": "infinite",
						"totalCost": "infinite"
					},
					"external": {
						"": "1787",
						"balanceOf(address)": "2824",
						"calculateRewards(address)": "infinite",
						"claimRewards()": "infinite",
						"decimals()": "2533",
						"name()": "infinite",
						"rewardRatePerSecond()": "2536",
						"rewardsEarned(address)": "2846",
						"stake(uint256)": "infinite",
						"stakeStartTime(address)": "2869",
						"stakedBalance(address)": "2825",
						"symbol()": "infinite",
						"totalSupply()": "2448",
						"withdraw(uint256)": "infinite"
					},
					"internal": {
						"_updateRewards(address)": "infinite"
					}
				},
				"methodIdentifiers": {
					"balanceOf(address)": "70a08231",
					"calculateRewards(address)": "64ab8675",
					"claimRewards()": "372500ab",
					"decimals()": "313ce567",
					"name()": "06fdde03",
					"rewardRatePerSecond()": "5d773b2c",
					"rewardsEarned(address)": "8bfea439",
					"stake(uint256)": "a694fc3a",
					"stakeStartTime(address)": "6985e6d8",
					"stakedBalance(address)": "60217267",
					"symbol()": "95d89b41",
					"totalSupply()": "18160ddd",
					"withdraw(uint256)": "2e1a7d4d"
				}
			},
			"storageLayout": {
				"storage": [
					{
						"astId": 4,
						"contract": "contracts/project.sol:StakingContract",
						"label": "name",
						"offset": 0,
						"slot": "0",
						"type": "t_string_storage"
					},
					{
						"astId": 7,
						"contract": "contracts/project.sol:StakingContract",
						"label": "symbol",
						"offset": 0,
						"slot": "1",
						"type": "t_string_storage"
					},
					{
						"astId": 10,
						"contract": "contracts/project.sol:StakingContract",
						"label": "decimals",
						"offset": 0,
						"slot": "2",
						"type": "t_uint8"
					},
					{
						"astId": 12,
						"contract": "contracts/project.sol:StakingContract",
						"label": "totalSupply",
						"offset": 0,
						"slot": "3",
						"type": "t_uint256"
					},
					{
						"astId": 16,
						"contract": "contracts/project.sol:StakingContract",
						"label": "balanceOf",
						"offset": 0,
						"slot": "4",
						"type": "t_mapping(t_address,t_uint256)"
					},
					{
						"astId": 20,
						"contract": "contracts/project.sol:StakingContract",
						"label": "stakedBalance",
						"offset": 0,
						"slot": "5",
						"type": "t_mapping(t_address,t_uint256)"
					},
					{
						"astId": 24,
						"contract": "contracts/project.sol:StakingContract",
						"label": "stakeStartTime",
						"offset": 0,
						"slot": "6",
						"type": "t_mapping(t_address,t_uint256)"
					},
					{
						"astId": 28,
						"contract": "contracts/project.sol:StakingContract",
						"label": "rewardsEarned",
						"offset": 0,
						"slot": "7",
						"type": "t_mapping(t_address,t_uint256)"
					},
					{
						"astId": 31,
						"contract": "contracts/project.sol:StakingContract",
						"label": "rewardRatePerSecond",
						"offset": 0,
						"slot": "8",
						"type": "t_uint256"
					}
				],
				"types": {
					"t_address": {
						"encoding": "inplace",
						"label": "address",
						"numberOfBytes": "20"
					},
					"t_mapping(t_address,t_uint256)": {
						"encoding": "mapping",
						"key": "t_address",
						"label": "mapping(address => uint256)",
						"numberOfBytes": "32",
						"value": "t_uint256"
					},
					"t_string_storage": {
						"encoding": "bytes",
						"label": "string",
						"numberOfBytes": "32"
					},
					"t_uint256": {
						"encoding": "inplace",
						"label": "uint256",
						"numberOfBytes": "32"
					},
					"t_uint8": {
						"encoding": "inplace",
						"label": "uint8",
						"numberOfBytes": "1"
					}
				}
			},
			"userdoc": {
				"kind": "user",
				"methods": {
					"calculateRewards(address)": {
						"notice": "Get the total rewards earned by a user"
					},
					"claimRewards()": {
						"notice": "Claim staking rewards"
					},
					"stake(uint256)": {
						"notice": "Stake tokens to earn rewards"
					},
					"withdraw(uint256)": {
						"notice": "Withdraw staked tokens and claim rewards"
					}
				},
				"version": 1
			}
		}
	}
}